Archive member included to satisfy reference by file (symbol)

c:/progra~2/gnutoo~1/82019-~1/bin/../lib/gcc/arm-none-eabi/8.3.1/thumb/v7e-m+fp/hard\libgcc.a(_aeabi_uldivmod.o)
                              CMakeFiles/STM32Cube.elf.dir/Drivers/STM32L4xx_HAL_Driver/Src/stm32l4xx_hal_uart.c.obj (__aeabi_uldivmod)
c:/progra~2/gnutoo~1/82019-~1/bin/../lib/gcc/arm-none-eabi/8.3.1/thumb/v7e-m+fp/hard\libgcc.a(_udivmoddi4.o)
                              c:/progra~2/gnutoo~1/82019-~1/bin/../lib/gcc/arm-none-eabi/8.3.1/thumb/v7e-m+fp/hard\libgcc.a(_aeabi_uldivmod.o) (__udivmoddi4)
c:/progra~2/gnutoo~1/82019-~1/bin/../lib/gcc/arm-none-eabi/8.3.1/thumb/v7e-m+fp/hard\libgcc.a(_dvmd_tls.o)
                              c:/progra~2/gnutoo~1/82019-~1/bin/../lib/gcc/arm-none-eabi/8.3.1/thumb/v7e-m+fp/hard\libgcc.a(_aeabi_uldivmod.o) (__aeabi_ldiv0)
c:/progra~2/gnutoo~1/82019-~1/bin/../lib/gcc/arm-none-eabi/8.3.1/../../../../arm-none-eabi/lib/thumb/v7e-m+fp/hard\libg.a(lib_a-errno.o)
                              CMakeFiles/STM32Cube.elf.dir/Core/Src/syscalls.c.obj (__errno)
c:/progra~2/gnutoo~1/82019-~1/bin/../lib/gcc/arm-none-eabi/8.3.1/../../../../arm-none-eabi/lib/thumb/v7e-m+fp/hard\libg.a(lib_a-exit.o)
                              c:/progra~2/gnutoo~1/82019-~1/bin/../lib/gcc/arm-none-eabi/8.3.1/../../../../arm-none-eabi/lib/thumb/v7e-m+fp/hard/crt0.o (exit)
c:/progra~2/gnutoo~1/82019-~1/bin/../lib/gcc/arm-none-eabi/8.3.1/../../../../arm-none-eabi/lib/thumb/v7e-m+fp/hard\libg.a(lib_a-impure.o)
                              c:/progra~2/gnutoo~1/82019-~1/bin/../lib/gcc/arm-none-eabi/8.3.1/../../../../arm-none-eabi/lib/thumb/v7e-m+fp/hard\libg.a(lib_a-exit.o) (_global_impure_ptr)
c:/progra~2/gnutoo~1/82019-~1/bin/../lib/gcc/arm-none-eabi/8.3.1/../../../../arm-none-eabi/lib/thumb/v7e-m+fp/hard\libg.a(lib_a-init.o)
                              c:/progra~2/gnutoo~1/82019-~1/bin/../lib/gcc/arm-none-eabi/8.3.1/../../../../arm-none-eabi/lib/thumb/v7e-m+fp/hard/crt0.o (__libc_init_array)
c:/progra~2/gnutoo~1/82019-~1/bin/../lib/gcc/arm-none-eabi/8.3.1/../../../../arm-none-eabi/lib/thumb/v7e-m+fp/hard\libg.a(lib_a-memcpy.o)
                              CMakeFiles/STM32Cube.elf.dir/Middlewares/Third_Party/FreeRTOS/Source/CMSIS_RTOS_V2/cmsis_os2.c.obj (memcpy)
c:/progra~2/gnutoo~1/82019-~1/bin/../lib/gcc/arm-none-eabi/8.3.1/../../../../arm-none-eabi/lib/thumb/v7e-m+fp/hard\libg.a(lib_a-memset.o)
                              c:/progra~2/gnutoo~1/82019-~1/bin/../lib/gcc/arm-none-eabi/8.3.1/../../../../arm-none-eabi/lib/thumb/v7e-m+fp/hard/crt0.o (memset)
c:/progra~2/gnutoo~1/82019-~1/bin/../lib/gcc/arm-none-eabi/8.3.1/../../../../arm-none-eabi/lib/thumb/v7e-m+fp/hard\libg.a(lib_a-sprintf.o)
                              CMakeFiles/STM32Cube.elf.dir/Core/Src/main.c.obj (sprintf)
c:/progra~2/gnutoo~1/82019-~1/bin/../lib/gcc/arm-none-eabi/8.3.1/../../../../arm-none-eabi/lib/thumb/v7e-m+fp/hard\libg.a(lib_a-svfprintf.o)
                              c:/progra~2/gnutoo~1/82019-~1/bin/../lib/gcc/arm-none-eabi/8.3.1/../../../../arm-none-eabi/lib/thumb/v7e-m+fp/hard\libg.a(lib_a-sprintf.o) (_svfprintf_r)
c:/progra~2/gnutoo~1/82019-~1/bin/../lib/gcc/arm-none-eabi/8.3.1/../../../../arm-none-eabi/lib/thumb/v7e-m+fp/hard\libg.a(lib_a-__call_atexit.o)
                              c:/progra~2/gnutoo~1/82019-~1/bin/../lib/gcc/arm-none-eabi/8.3.1/../../../../arm-none-eabi/lib/thumb/v7e-m+fp/hard\libg.a(lib_a-exit.o) (__call_exitprocs)
c:/progra~2/gnutoo~1/82019-~1/bin/../lib/gcc/arm-none-eabi/8.3.1/../../../../arm-none-eabi/lib/thumb/v7e-m+fp/hard\libg.a(lib_a-atexit.o)
                              c:/progra~2/gnutoo~1/82019-~1/bin/../lib/gcc/arm-none-eabi/8.3.1/../../../../arm-none-eabi/lib/thumb/v7e-m+fp/hard\libg.a(lib_a-__call_atexit.o) (atexit)
c:/progra~2/gnutoo~1/82019-~1/bin/../lib/gcc/arm-none-eabi/8.3.1/../../../../arm-none-eabi/lib/thumb/v7e-m+fp/hard\libg.a(lib_a-dtoa.o)
                              c:/progra~2/gnutoo~1/82019-~1/bin/../lib/gcc/arm-none-eabi/8.3.1/../../../../arm-none-eabi/lib/thumb/v7e-m+fp/hard\libg.a(lib_a-svfprintf.o) (_dtoa_r)
c:/progra~2/gnutoo~1/82019-~1/bin/../lib/gcc/arm-none-eabi/8.3.1/../../../../arm-none-eabi/lib/thumb/v7e-m+fp/hard\libg.a(lib_a-fini.o)
                              c:/progra~2/gnutoo~1/82019-~1/bin/../lib/gcc/arm-none-eabi/8.3.1/../../../../arm-none-eabi/lib/thumb/v7e-m+fp/hard\libg.a(lib_a-__call_atexit.o) (__libc_fini_array)
c:/progra~2/gnutoo~1/82019-~1/bin/../lib/gcc/arm-none-eabi/8.3.1/../../../../arm-none-eabi/lib/thumb/v7e-m+fp/hard\libg.a(lib_a-freer.o)
                              c:/progra~2/gnutoo~1/82019-~1/bin/../lib/gcc/arm-none-eabi/8.3.1/../../../../arm-none-eabi/lib/thumb/v7e-m+fp/hard\libg.a(lib_a-svfprintf.o) (_free_r)
c:/progra~2/gnutoo~1/82019-~1/bin/../lib/gcc/arm-none-eabi/8.3.1/../../../../arm-none-eabi/lib/thumb/v7e-m+fp/hard\libg.a(lib_a-localeconv.o)
                              c:/progra~2/gnutoo~1/82019-~1/bin/../lib/gcc/arm-none-eabi/8.3.1/../../../../arm-none-eabi/lib/thumb/v7e-m+fp/hard\libg.a(lib_a-svfprintf.o) (_localeconv_r)
c:/progra~2/gnutoo~1/82019-~1/bin/../lib/gcc/arm-none-eabi/8.3.1/../../../../arm-none-eabi/lib/thumb/v7e-m+fp/hard\libg.a(lib_a-lock.o)
                              c:/progra~2/gnutoo~1/82019-~1/bin/../lib/gcc/arm-none-eabi/8.3.1/../../../../arm-none-eabi/lib/thumb/v7e-m+fp/hard\libg.a(lib_a-__call_atexit.o) (__retarget_lock_acquire_recursive)
c:/progra~2/gnutoo~1/82019-~1/bin/../lib/gcc/arm-none-eabi/8.3.1/../../../../arm-none-eabi/lib/thumb/v7e-m+fp/hard\libg.a(lib_a-mallocr.o)
                              c:/progra~2/gnutoo~1/82019-~1/bin/../lib/gcc/arm-none-eabi/8.3.1/../../../../arm-none-eabi/lib/thumb/v7e-m+fp/hard\libg.a(lib_a-svfprintf.o) (_malloc_r)
c:/progra~2/gnutoo~1/82019-~1/bin/../lib/gcc/arm-none-eabi/8.3.1/../../../../arm-none-eabi/lib/thumb/v7e-m+fp/hard\libg.a(lib_a-memchr.o)
                              c:/progra~2/gnutoo~1/82019-~1/bin/../lib/gcc/arm-none-eabi/8.3.1/../../../../arm-none-eabi/lib/thumb/v7e-m+fp/hard\libg.a(lib_a-svfprintf.o) (memchr)
c:/progra~2/gnutoo~1/82019-~1/bin/../lib/gcc/arm-none-eabi/8.3.1/../../../../arm-none-eabi/lib/thumb/v7e-m+fp/hard\libg.a(lib_a-mlock.o)
                              c:/progra~2/gnutoo~1/82019-~1/bin/../lib/gcc/arm-none-eabi/8.3.1/../../../../arm-none-eabi/lib/thumb/v7e-m+fp/hard\libg.a(lib_a-freer.o) (__malloc_lock)
c:/progra~2/gnutoo~1/82019-~1/bin/../lib/gcc/arm-none-eabi/8.3.1/../../../../arm-none-eabi/lib/thumb/v7e-m+fp/hard\libg.a(lib_a-mprec.o)
                              c:/progra~2/gnutoo~1/82019-~1/bin/../lib/gcc/arm-none-eabi/8.3.1/../../../../arm-none-eabi/lib/thumb/v7e-m+fp/hard\libg.a(lib_a-dtoa.o) (_Balloc)
c:/progra~2/gnutoo~1/82019-~1/bin/../lib/gcc/arm-none-eabi/8.3.1/../../../../arm-none-eabi/lib/thumb/v7e-m+fp/hard\libg.a(lib_a-s_frexp.o)
                              c:/progra~2/gnutoo~1/82019-~1/bin/../lib/gcc/arm-none-eabi/8.3.1/../../../../arm-none-eabi/lib/thumb/v7e-m+fp/hard\libg.a(lib_a-svfprintf.o) (frexp)
c:/progra~2/gnutoo~1/82019-~1/bin/../lib/gcc/arm-none-eabi/8.3.1/../../../../arm-none-eabi/lib/thumb/v7e-m+fp/hard\libg.a(lib_a-sbrkr.o)
                              c:/progra~2/gnutoo~1/82019-~1/bin/../lib/gcc/arm-none-eabi/8.3.1/../../../../arm-none-eabi/lib/thumb/v7e-m+fp/hard\libg.a(lib_a-freer.o) (_sbrk_r)
c:/progra~2/gnutoo~1/82019-~1/bin/../lib/gcc/arm-none-eabi/8.3.1/../../../../arm-none-eabi/lib/thumb/v7e-m+fp/hard\libg.a(lib_a-strlen.o)
                              c:/progra~2/gnutoo~1/82019-~1/bin/../lib/gcc/arm-none-eabi/8.3.1/../../../../arm-none-eabi/lib/thumb/v7e-m+fp/hard\libg.a(lib_a-svfprintf.o) (strlen)
c:/progra~2/gnutoo~1/82019-~1/bin/../lib/gcc/arm-none-eabi/8.3.1/../../../../arm-none-eabi/lib/thumb/v7e-m+fp/hard\libg.a(lib_a-strncpy.o)
                              c:/progra~2/gnutoo~1/82019-~1/bin/../lib/gcc/arm-none-eabi/8.3.1/../../../../arm-none-eabi/lib/thumb/v7e-m+fp/hard\libg.a(lib_a-svfprintf.o) (strncpy)
c:/progra~2/gnutoo~1/82019-~1/bin/../lib/gcc/arm-none-eabi/8.3.1/../../../../arm-none-eabi/lib/thumb/v7e-m+fp/hard\libg.a(lib_a-svfiprintf.o)
                              c:/progra~2/gnutoo~1/82019-~1/bin/../lib/gcc/arm-none-eabi/8.3.1/../../../../arm-none-eabi/lib/thumb/v7e-m+fp/hard\libg.a(lib_a-svfprintf.o) (__ssprint_r)
c:/progra~2/gnutoo~1/82019-~1/bin/../lib/gcc/arm-none-eabi/8.3.1/../../../../arm-none-eabi/lib/thumb/v7e-m+fp/hard\libg.a(lib_a-__atexit.o)
                              c:/progra~2/gnutoo~1/82019-~1/bin/../lib/gcc/arm-none-eabi/8.3.1/../../../../arm-none-eabi/lib/thumb/v7e-m+fp/hard\libg.a(lib_a-atexit.o) (__register_exitproc)
c:/progra~2/gnutoo~1/82019-~1/bin/../lib/gcc/arm-none-eabi/8.3.1/../../../../arm-none-eabi/lib/thumb/v7e-m+fp/hard\libg.a(lib_a-callocr.o)
                              c:/progra~2/gnutoo~1/82019-~1/bin/../lib/gcc/arm-none-eabi/8.3.1/../../../../arm-none-eabi/lib/thumb/v7e-m+fp/hard\libg.a(lib_a-mprec.o) (_calloc_r)
c:/progra~2/gnutoo~1/82019-~1/bin/../lib/gcc/arm-none-eabi/8.3.1/../../../../arm-none-eabi/lib/thumb/v7e-m+fp/hard\libg.a(lib_a-locale.o)
                              c:/progra~2/gnutoo~1/82019-~1/bin/../lib/gcc/arm-none-eabi/8.3.1/../../../../arm-none-eabi/lib/thumb/v7e-m+fp/hard\libg.a(lib_a-localeconv.o) (__global_locale)
c:/progra~2/gnutoo~1/82019-~1/bin/../lib/gcc/arm-none-eabi/8.3.1/../../../../arm-none-eabi/lib/thumb/v7e-m+fp/hard\libg.a(lib_a-mbtowc_r.o)
                              c:/progra~2/gnutoo~1/82019-~1/bin/../lib/gcc/arm-none-eabi/8.3.1/../../../../arm-none-eabi/lib/thumb/v7e-m+fp/hard\libg.a(lib_a-locale.o) (__ascii_mbtowc)
c:/progra~2/gnutoo~1/82019-~1/bin/../lib/gcc/arm-none-eabi/8.3.1/../../../../arm-none-eabi/lib/thumb/v7e-m+fp/hard\libg.a(lib_a-memmove.o)
                              c:/progra~2/gnutoo~1/82019-~1/bin/../lib/gcc/arm-none-eabi/8.3.1/../../../../arm-none-eabi/lib/thumb/v7e-m+fp/hard\libg.a(lib_a-svfiprintf.o) (memmove)
c:/progra~2/gnutoo~1/82019-~1/bin/../lib/gcc/arm-none-eabi/8.3.1/../../../../arm-none-eabi/lib/thumb/v7e-m+fp/hard\libg.a(lib_a-reallocr.o)
                              c:/progra~2/gnutoo~1/82019-~1/bin/../lib/gcc/arm-none-eabi/8.3.1/../../../../arm-none-eabi/lib/thumb/v7e-m+fp/hard\libg.a(lib_a-svfiprintf.o) (_realloc_r)
c:/progra~2/gnutoo~1/82019-~1/bin/../lib/gcc/arm-none-eabi/8.3.1/../../../../arm-none-eabi/lib/thumb/v7e-m+fp/hard\libg.a(lib_a-reent.o)
                              c:/progra~2/gnutoo~1/82019-~1/bin/../lib/gcc/arm-none-eabi/8.3.1/../../../../arm-none-eabi/lib/thumb/v7e-m+fp/hard\libg.a(lib_a-sbrkr.o) (errno)
c:/progra~2/gnutoo~1/82019-~1/bin/../lib/gcc/arm-none-eabi/8.3.1/../../../../arm-none-eabi/lib/thumb/v7e-m+fp/hard\libg.a(lib_a-strcmp.o)
                              c:/progra~2/gnutoo~1/82019-~1/bin/../lib/gcc/arm-none-eabi/8.3.1/../../../../arm-none-eabi/lib/thumb/v7e-m+fp/hard\libg.a(lib_a-locale.o) (strcmp)
c:/progra~2/gnutoo~1/82019-~1/bin/../lib/gcc/arm-none-eabi/8.3.1/../../../../arm-none-eabi/lib/thumb/v7e-m+fp/hard\libg.a(lib_a-wctomb_r.o)
                              c:/progra~2/gnutoo~1/82019-~1/bin/../lib/gcc/arm-none-eabi/8.3.1/../../../../arm-none-eabi/lib/thumb/v7e-m+fp/hard\libg.a(lib_a-locale.o) (__ascii_wctomb)
c:/progra~2/gnutoo~1/82019-~1/bin/../lib/gcc/arm-none-eabi/8.3.1/../../../../arm-none-eabi/lib/thumb/v7e-m+fp/hard\libg.a(lib_a-ctype_.o)
                              c:/progra~2/gnutoo~1/82019-~1/bin/../lib/gcc/arm-none-eabi/8.3.1/../../../../arm-none-eabi/lib/thumb/v7e-m+fp/hard\libg.a(lib_a-locale.o) (_ctype_)
c:/progra~2/gnutoo~1/82019-~1/bin/../lib/gcc/arm-none-eabi/8.3.1/thumb/v7e-m+fp/hard\libgcc.a(_arm_addsubdf3.o)
                              c:/progra~2/gnutoo~1/82019-~1/bin/../lib/gcc/arm-none-eabi/8.3.1/../../../../arm-none-eabi/lib/thumb/v7e-m+fp/hard\libg.a(lib_a-svfprintf.o) (__aeabi_dsub)
c:/progra~2/gnutoo~1/82019-~1/bin/../lib/gcc/arm-none-eabi/8.3.1/thumb/v7e-m+fp/hard\libgcc.a(_arm_muldivdf3.o)
                              c:/progra~2/gnutoo~1/82019-~1/bin/../lib/gcc/arm-none-eabi/8.3.1/../../../../arm-none-eabi/lib/thumb/v7e-m+fp/hard\libg.a(lib_a-svfprintf.o) (__aeabi_dmul)
c:/progra~2/gnutoo~1/82019-~1/bin/../lib/gcc/arm-none-eabi/8.3.1/thumb/v7e-m+fp/hard\libgcc.a(_arm_cmpdf2.o)
                              c:/progra~2/gnutoo~1/82019-~1/bin/../lib/gcc/arm-none-eabi/8.3.1/../../../../arm-none-eabi/lib/thumb/v7e-m+fp/hard\libg.a(lib_a-svfprintf.o) (__aeabi_dcmpeq)
c:/progra~2/gnutoo~1/82019-~1/bin/../lib/gcc/arm-none-eabi/8.3.1/thumb/v7e-m+fp/hard\libgcc.a(_arm_unorddf2.o)
                              c:/progra~2/gnutoo~1/82019-~1/bin/../lib/gcc/arm-none-eabi/8.3.1/../../../../arm-none-eabi/lib/thumb/v7e-m+fp/hard\libg.a(lib_a-svfprintf.o) (__aeabi_dcmpun)
c:/progra~2/gnutoo~1/82019-~1/bin/../lib/gcc/arm-none-eabi/8.3.1/thumb/v7e-m+fp/hard\libgcc.a(_arm_fixdfsi.o)
                              c:/progra~2/gnutoo~1/82019-~1/bin/../lib/gcc/arm-none-eabi/8.3.1/../../../../arm-none-eabi/lib/thumb/v7e-m+fp/hard\libg.a(lib_a-svfprintf.o) (__aeabi_d2iz)

Allocating common symbols
Common symbol       size              file

__lock___atexit_recursive_mutex
                    0x1               c:/progra~2/gnutoo~1/82019-~1/bin/../lib/gcc/arm-none-eabi/8.3.1/../../../../arm-none-eabi/lib/thumb/v7e-m+fp/hard\libg.a(lib_a-lock.o)
__lock___arc4random_mutex
                    0x1               c:/progra~2/gnutoo~1/82019-~1/bin/../lib/gcc/arm-none-eabi/8.3.1/../../../../arm-none-eabi/lib/thumb/v7e-m+fp/hard\libg.a(lib_a-lock.o)
errno               0x4               c:/progra~2/gnutoo~1/82019-~1/bin/../lib/gcc/arm-none-eabi/8.3.1/../../../../arm-none-eabi/lib/thumb/v7e-m+fp/hard\libg.a(lib_a-reent.o)
__lock___env_recursive_mutex
                    0x1               c:/progra~2/gnutoo~1/82019-~1/bin/../lib/gcc/arm-none-eabi/8.3.1/../../../../arm-none-eabi/lib/thumb/v7e-m+fp/hard\libg.a(lib_a-lock.o)
__lock___sinit_recursive_mutex
                    0x1               c:/progra~2/gnutoo~1/82019-~1/bin/../lib/gcc/arm-none-eabi/8.3.1/../../../../arm-none-eabi/lib/thumb/v7e-m+fp/hard\libg.a(lib_a-lock.o)
__lock___malloc_recursive_mutex
                    0x1               c:/progra~2/gnutoo~1/82019-~1/bin/../lib/gcc/arm-none-eabi/8.3.1/../../../../arm-none-eabi/lib/thumb/v7e-m+fp/hard\libg.a(lib_a-lock.o)
__lock___at_quick_exit_mutex
                    0x1               c:/progra~2/gnutoo~1/82019-~1/bin/../lib/gcc/arm-none-eabi/8.3.1/../../../../arm-none-eabi/lib/thumb/v7e-m+fp/hard\libg.a(lib_a-lock.o)
__lock___dd_hash_mutex
                    0x1               c:/progra~2/gnutoo~1/82019-~1/bin/../lib/gcc/arm-none-eabi/8.3.1/../../../../arm-none-eabi/lib/thumb/v7e-m+fp/hard\libg.a(lib_a-lock.o)
__lock___tz_mutex   0x1               c:/progra~2/gnutoo~1/82019-~1/bin/../lib/gcc/arm-none-eabi/8.3.1/../../../../arm-none-eabi/lib/thumb/v7e-m+fp/hard\libg.a(lib_a-lock.o)
__lock___sfp_recursive_mutex
                    0x1               c:/progra~2/gnutoo~1/82019-~1/bin/../lib/gcc/arm-none-eabi/8.3.1/../../../../arm-none-eabi/lib/thumb/v7e-m+fp/hard\libg.a(lib_a-lock.o)

Discarded input sections

 .text          0x00000000        0x0 c:/progra~2/gnutoo~1/82019-~1/bin/../lib/gcc/arm-none-eabi/8.3.1/thumb/v7e-m+fp/hard/crti.o
 .data          0x00000000        0x0 c:/progra~2/gnutoo~1/82019-~1/bin/../lib/gcc/arm-none-eabi/8.3.1/thumb/v7e-m+fp/hard/crti.o
 .bss           0x00000000        0x0 c:/progra~2/gnutoo~1/82019-~1/bin/../lib/gcc/arm-none-eabi/8.3.1/thumb/v7e-m+fp/hard/crti.o
 .data          0x00000000        0x4 c:/progra~2/gnutoo~1/82019-~1/bin/../lib/gcc/arm-none-eabi/8.3.1/thumb/v7e-m+fp/hard/crtbegin.o
 .text          0x00000000       0x74 c:/progra~2/gnutoo~1/82019-~1/bin/../lib/gcc/arm-none-eabi/8.3.1/../../../../arm-none-eabi/lib/thumb/v7e-m+fp/hard/crt0.o
 .data          0x00000000        0x0 c:/progra~2/gnutoo~1/82019-~1/bin/../lib/gcc/arm-none-eabi/8.3.1/../../../../arm-none-eabi/lib/thumb/v7e-m+fp/hard/crt0.o
 .bss           0x00000000        0x0 c:/progra~2/gnutoo~1/82019-~1/bin/../lib/gcc/arm-none-eabi/8.3.1/../../../../arm-none-eabi/lib/thumb/v7e-m+fp/hard/crt0.o
 .ARM.extab     0x00000000        0x0 c:/progra~2/gnutoo~1/82019-~1/bin/../lib/gcc/arm-none-eabi/8.3.1/../../../../arm-none-eabi/lib/thumb/v7e-m+fp/hard/crt0.o
 .ARM.exidx     0x00000000        0x8 c:/progra~2/gnutoo~1/82019-~1/bin/../lib/gcc/arm-none-eabi/8.3.1/../../../../arm-none-eabi/lib/thumb/v7e-m+fp/hard/crt0.o
 .ARM.attributes
                0x00000000       0x1c c:/progra~2/gnutoo~1/82019-~1/bin/../lib/gcc/arm-none-eabi/8.3.1/../../../../arm-none-eabi/lib/thumb/v7e-m+fp/hard/crt0.o
 .text          0x00000000        0x0 CMakeFiles/STM32Cube.elf.dir/Core/Src/freertos.c.obj
 .data          0x00000000        0x0 CMakeFiles/STM32Cube.elf.dir/Core/Src/freertos.c.obj
 .bss           0x00000000        0x0 CMakeFiles/STM32Cube.elf.dir/Core/Src/freertos.c.obj
 .debug_info    0x00000000      0x2cc CMakeFiles/STM32Cube.elf.dir/Core/Src/freertos.c.obj
 .debug_abbrev  0x00000000       0xb7 CMakeFiles/STM32Cube.elf.dir/Core/Src/freertos.c.obj
 .debug_aranges
                0x00000000       0x18 CMakeFiles/STM32Cube.elf.dir/Core/Src/freertos.c.obj
Memory Configuration

Name             Origin             Length             Attributes
RAM              0x20000000         0x00010000         xrw
FLASH            0x08000000         0x00040000         xr
*default*        0x00000000         0xffffffff

Linker script and memory map

LOAD c:/progra~2/gnutoo~1/82019-~1/bin/../lib/gcc/arm-none-eabi/8.3.1/thumb/v7e-m+fp/hard/crti.o
LOAD c:/progra~2/gnutoo~1/82019-~1/bin/../lib/gcc/arm-none-eabi/8.3.1/thumb/v7e-m+fp/hard/crtbegin.o
LOAD c:/progra~2/gnutoo~1/82019-~1/bin/../lib/gcc/arm-none-eabi/8.3.1/../../../../arm-none-eabi/lib/thumb/v7e-m+fp/hard/crt0.o
LOAD CMakeFiles/STM32Cube.elf.dir/Core/Src/freertos.c.obj
LOAD CMakeFiles/STM32Cube.elf.dir/Core/Src/main.c.obj
LOAD CMakeFiles/STM32Cube.elf.dir/Core/Src/stm32l4xx_hal_msp.c.obj
LOAD CMakeFiles/STM32Cube.elf.dir/Core/Src/stm32l4xx_hal_timebase_tim.c.obj
LOAD CMakeFiles/STM32Cube.elf.dir/Core/Src/stm32l4xx_it.c.obj
LOAD CMakeFiles/STM32Cube.elf.dir/Core/Src/syscalls.c.obj
LOAD CMakeFiles/STM32Cube.elf.dir/Core/Src/system_stm32l4xx.c.obj
LOAD CMakeFiles/STM32Cube.elf.dir/Drivers/STM32L4xx_HAL_Driver/Src/stm32l4xx_hal.c.obj
LOAD CMakeFiles/STM32Cube.elf.dir/Drivers/STM32L4xx_HAL_Driver/Src/stm32l4xx_hal_adc.c.obj
LOAD CMakeFiles/STM32Cube.elf.dir/Drivers/STM32L4xx_HAL_Driver/Src/stm32l4xx_hal_adc_ex.c.obj
LOAD CMakeFiles/STM32Cube.elf.dir/Drivers/STM32L4xx_HAL_Driver/Src/stm32l4xx_hal_cortex.c.obj
LOAD CMakeFiles/STM32Cube.elf.dir/Drivers/STM32L4xx_HAL_Driver/Src/stm32l4xx_hal_dma.c.obj
LOAD CMakeFiles/STM32Cube.elf.dir/Drivers/STM32L4xx_HAL_Driver/Src/stm32l4xx_hal_dma_ex.c.obj
LOAD CMakeFiles/STM32Cube.elf.dir/Drivers/STM32L4xx_HAL_Driver/Src/stm32l4xx_hal_exti.c.obj
LOAD CMakeFiles/STM32Cube.elf.dir/Drivers/STM32L4xx_HAL_Driver/Src/stm32l4xx_hal_flash.c.obj
LOAD CMakeFiles/STM32Cube.elf.dir/Drivers/STM32L4xx_HAL_Driver/Src/stm32l4xx_hal_flash_ex.c.obj
LOAD CMakeFiles/STM32Cube.elf.dir/Drivers/STM32L4xx_HAL_Driver/Src/stm32l4xx_hal_flash_ramfunc.c.obj
LOAD CMakeFiles/STM32Cube.elf.dir/Drivers/STM32L4xx_HAL_Driver/Src/stm32l4xx_hal_gpio.c.obj
LOAD CMakeFiles/STM32Cube.elf.dir/Drivers/STM32L4xx_HAL_Driver/Src/stm32l4xx_hal_i2c.c.obj
LOAD CMakeFiles/STM32Cube.elf.dir/Drivers/STM32L4xx_HAL_Driver/Src/stm32l4xx_hal_i2c_ex.c.obj
LOAD CMakeFiles/STM32Cube.elf.dir/Drivers/STM32L4xx_HAL_Driver/Src/stm32l4xx_hal_pwr.c.obj
LOAD CMakeFiles/STM32Cube.elf.dir/Drivers/STM32L4xx_HAL_Driver/Src/stm32l4xx_hal_pwr_ex.c.obj
LOAD CMakeFiles/STM32Cube.elf.dir/Drivers/STM32L4xx_HAL_Driver/Src/stm32l4xx_hal_rcc.c.obj
LOAD CMakeFiles/STM32Cube.elf.dir/Drivers/STM32L4xx_HAL_Driver/Src/stm32l4xx_hal_rcc_ex.c.obj
LOAD CMakeFiles/STM32Cube.elf.dir/Drivers/STM32L4xx_HAL_Driver/Src/stm32l4xx_hal_spi.c.obj
LOAD CMakeFiles/STM32Cube.elf.dir/Drivers/STM32L4xx_HAL_Driver/Src/stm32l4xx_hal_spi_ex.c.obj
LOAD CMakeFiles/STM32Cube.elf.dir/Drivers/STM32L4xx_HAL_Driver/Src/stm32l4xx_hal_tim.c.obj
LOAD CMakeFiles/STM32Cube.elf.dir/Drivers/STM32L4xx_HAL_Driver/Src/stm32l4xx_hal_tim_ex.c.obj
LOAD CMakeFiles/STM32Cube.elf.dir/Drivers/STM32L4xx_HAL_Driver/Src/stm32l4xx_hal_uart.c.obj
LOAD CMakeFiles/STM32Cube.elf.dir/Drivers/STM32L4xx_HAL_Driver/Src/stm32l4xx_hal_uart_ex.c.obj
LOAD CMakeFiles/STM32Cube.elf.dir/Middlewares/Third_Party/FreeRTOS/Source/CMSIS_RTOS_V2/cmsis_os2.c.obj
LOAD CMakeFiles/STM32Cube.elf.dir/Middlewares/Third_Party/FreeRTOS/Source/croutine.c.obj
LOAD CMakeFiles/STM32Cube.elf.dir/Middlewares/Third_Party/FreeRTOS/Source/event_groups.c.obj
LOAD CMakeFiles/STM32Cube.elf.dir/Middlewares/Third_Party/FreeRTOS/Source/list.c.obj
LOAD CMakeFiles/STM32Cube.elf.dir/Middlewares/Third_Party/FreeRTOS/Source/portable/GCC/ARM_CM4F/port.c.obj
LOAD CMakeFiles/STM32Cube.elf.dir/Middlewares/Third_Party/FreeRTOS/Source/portable/MemMang/heap_4.c.obj
LOAD CMakeFiles/STM32Cube.elf.dir/Middlewares/Third_Party/FreeRTOS/Source/queue.c.obj
LOAD CMakeFiles/STM32Cube.elf.dir/Middlewares/Third_Party/FreeRTOS/Source/stream_buffer.c.obj
LOAD CMakeFiles/STM32Cube.elf.dir/Middlewares/Third_Party/FreeRTOS/Source/tasks.c.obj
LOAD CMakeFiles/STM32Cube.elf.dir/Middlewares/Third_Party/FreeRTOS/Source/timers.c.obj
LOAD CMakeFiles/STM32Cube.elf.dir/startup/startup_stm32l432xx.s.obj
START GROUP
LOAD c:/progra~2/gnutoo~1/82019-~1/bin/../lib/gcc/arm-none-eabi/8.3.1/thumb/v7e-m+fp/hard\libgcc.a
LOAD c:/progra~2/gnutoo~1/82019-~1/bin/../lib/gcc/arm-none-eabi/8.3.1/../../../../arm-none-eabi/lib/thumb/v7e-m+fp/hard\libg.a
LOAD c:/progra~2/gnutoo~1/82019-~1/bin/../lib/gcc/arm-none-eabi/8.3.1/../../../../arm-none-eabi/lib/thumb/v7e-m+fp/hard\libc.a
END GROUP
LOAD c:/progra~2/gnutoo~1/82019-~1/bin/../lib/gcc/arm-none-eabi/8.3.1/thumb/v7e-m+fp/hard/crtend.o
LOAD c:/progra~2/gnutoo~1/82019-~1/bin/../lib/gcc/arm-none-eabi/8.3.1/thumb/v7e-m+fp/hard/crtn.o
                0x20010000                _estack = 0x20010000
                0x00000200                _Min_Heap_Size = 0x200
                0x00000400                _Min_Stack_Size = 0x400

.isr_vector     0x08000000      0x190
                0x08000000                . = ALIGN (0x8)
 *(.isr_vector)
 .isr_vector    0x08000000      0x18c CMakeFiles/STM32Cube.elf.dir/startup/startup_stm32l432xx.s.obj
                0x08000000                g_pfnVectors
                0x08000190                . = ALIGN (0x8)
 *fill*         0x0800018c        0x4 

.text           0x080001c0     0xa778
                0x080001c0                . = ALIGN (0x8)
 *(.text)
 .text          0x080001c0       0x40 c:/progra~2/gnutoo~1/82019-~1/bin/../lib/gcc/arm-none-eabi/8.3.1/thumb/v7e-m+fp/hard/crtbegin.o
 .text          0x08000200       0x30 c:/progra~2/gnutoo~1/82019-~1/bin/../lib/gcc/arm-none-eabi/8.3.1/thumb/v7e-m+fp/hard\libgcc.a(_aeabi_uldivmod.o)
                0x08000200                __aeabi_uldivmod
 .text          0x08000230      0x2d0 c:/progra~2/gnutoo~1/82019-~1/bin/../lib/gcc/arm-none-eabi/8.3.1/thumb/v7e-m+fp/hard\libgcc.a(_udivmoddi4.o)
                0x08000230                __udivmoddi4
 .text          0x08000500        0x4 c:/progra~2/gnutoo~1/82019-~1/bin/../lib/gcc/arm-none-eabi/8.3.1/thumb/v7e-m+fp/hard\libgcc.a(_dvmd_tls.o)
                0x08000500                __aeabi_idiv0
                0x08000500                __aeabi_ldiv0
 .text          0x08000504      0x134 c:/progra~2/gnutoo~1/82019-~1/bin/../lib/gcc/arm-none-eabi/8.3.1/../../../../arm-none-eabi/lib/thumb/v7e-m+fp/hard\libg.a(lib_a-memcpy.o)
                0x08000504                memcpy
 *fill*         0x08000638        0x8 
 .text          0x08000640       0xa0 c:/progra~2/gnutoo~1/82019-~1/bin/../lib/gcc/arm-none-eabi/8.3.1/../../../../arm-none-eabi/lib/thumb/v7e-m+fp/hard\libg.a(lib_a-memchr.o)
                0x08000640                memchr
 *fill*         0x080006e0       0x20 
 .text          0x08000700       0xdc c:/progra~2/gnutoo~1/82019-~1/bin/../lib/gcc/arm-none-eabi/8.3.1/../../../../arm-none-eabi/lib/thumb/v7e-m+fp/hard\libg.a(lib_a-strlen.o)
                0x08000700                strlen
 .text          0x080007dc      0x378 c:/progra~2/gnutoo~1/82019-~1/bin/../lib/gcc/arm-none-eabi/8.3.1/thumb/v7e-m+fp/hard\libgcc.a(_arm_addsubdf3.o)
                0x080007dc                __aeabi_drsub
                0x080007e4                __aeabi_dsub
                0x080007e4                __subdf3
                0x080007e8                __aeabi_dadd
                0x080007e8                __adddf3
                0x08000a60                __floatunsidf
                0x08000a60                __aeabi_ui2d
                0x08000a80                __floatsidf
                0x08000a80                __aeabi_i2d
                0x08000aa4                __aeabi_f2d
                0x08000aa4                __extendsfdf2
                0x08000ae8                __floatundidf
                0x08000ae8                __aeabi_ul2d
                0x08000af8                __floatdidf
                0x08000af8                __aeabi_l2d
 .text          0x08000b54      0x424 c:/progra~2/gnutoo~1/82019-~1/bin/../lib/gcc/arm-none-eabi/8.3.1/thumb/v7e-m+fp/hard\libgcc.a(_arm_muldivdf3.o)
                0x08000b54                __aeabi_dmul
                0x08000b54                __muldf3
                0x08000da8                __divdf3
                0x08000da8                __aeabi_ddiv
 .text          0x08000f78      0x110 c:/progra~2/gnutoo~1/82019-~1/bin/../lib/gcc/arm-none-eabi/8.3.1/thumb/v7e-m+fp/hard\libgcc.a(_arm_cmpdf2.o)
                0x08000f78                __gtdf2
                0x08000f78                __gedf2
                0x08000f80                __ltdf2
                0x08000f80                __ledf2
                0x08000f88                __nedf2
                0x08000f88                __eqdf2
                0x08000f88                __cmpdf2
                0x08001004                __aeabi_cdrcmple
                0x08001014                __aeabi_cdcmpeq
                0x08001014                __aeabi_cdcmple
                0x08001024                __aeabi_dcmpeq
                0x08001038                __aeabi_dcmplt
                0x0800104c                __aeabi_dcmple
                0x08001060                __aeabi_dcmpge
                0x08001074                __aeabi_dcmpgt
 .text          0x08001088       0x2c c:/progra~2/gnutoo~1/82019-~1/bin/../lib/gcc/arm-none-eabi/8.3.1/thumb/v7e-m+fp/hard\libgcc.a(_arm_unorddf2.o)
                0x08001088                __unorddf2
                0x08001088                __aeabi_dcmpun
 .text          0x080010b4       0x50 c:/progra~2/gnutoo~1/82019-~1/bin/../lib/gcc/arm-none-eabi/8.3.1/thumb/v7e-m+fp/hard\libgcc.a(_arm_fixdfsi.o)
                0x080010b4                __aeabi_d2iz
                0x080010b4                __fixdfsi
 *(.text*)
 .text.MX_GPIO_Init
                0x08001104      0x104 CMakeFiles/STM32Cube.elf.dir/Core/Src/main.c.obj
 .text.MX_DMA_Init
                0x08001208       0x44 CMakeFiles/STM32Cube.elf.dir/Core/Src/main.c.obj
 .text.StartPowerTask
                0x0800124c        0xc CMakeFiles/STM32Cube.elf.dir/Core/Src/main.c.obj
                0x0800124c                StartPowerTask
 .text.StartDefaultTask
                0x08001258      0x10c CMakeFiles/STM32Cube.elf.dir/Core/Src/main.c.obj
                0x08001258                StartDefaultTask
 .text.StartUartTask
                0x08001364      0x13c CMakeFiles/STM32Cube.elf.dir/Core/Src/main.c.obj
                0x08001364                StartUartTask
 .text.HAL_ADC_ConvHalfCpltCallback
                0x080014a0       0x24 CMakeFiles/STM32Cube.elf.dir/Core/Src/main.c.obj
                0x080014a0                HAL_ADC_ConvHalfCpltCallback
 .text.HAL_ADC_ConvCpltCallback
                0x080014c4       0x24 CMakeFiles/STM32Cube.elf.dir/Core/Src/main.c.obj
                0x080014c4                HAL_ADC_ConvCpltCallback
 .text.HAL_UART_TxCpltCallback
                0x080014e8       0x50 CMakeFiles/STM32Cube.elf.dir/Core/Src/main.c.obj
                0x080014e8                HAL_UART_TxCpltCallback
 .text.HAL_UART_RxCpltCallback
                0x08001538       0x50 CMakeFiles/STM32Cube.elf.dir/Core/Src/main.c.obj
                0x08001538                HAL_UART_RxCpltCallback
 .text.HAL_TIM_PeriodElapsedCallback
                0x08001588       0x18 CMakeFiles/STM32Cube.elf.dir/Core/Src/main.c.obj
                0x08001588                HAL_TIM_PeriodElapsedCallback
 .text.Error_Handler
                0x080015a0        0x4 CMakeFiles/STM32Cube.elf.dir/Core/Src/main.c.obj
                0x080015a0                Error_Handler
 .text.MX_ADC1_Init
                0x080015a4       0xa4 CMakeFiles/STM32Cube.elf.dir/Core/Src/main.c.obj
 .text.MX_SPI1_Init
                0x08001648       0x44 CMakeFiles/STM32Cube.elf.dir/Core/Src/main.c.obj
 .text.MX_USART2_UART_Init
                0x0800168c       0x38 CMakeFiles/STM32Cube.elf.dir/Core/Src/main.c.obj
 .text.MX_USART1_UART_Init
                0x080016c4       0x38 CMakeFiles/STM32Cube.elf.dir/Core/Src/main.c.obj
 .text.SystemClock_Config
                0x080016fc       0xd8 CMakeFiles/STM32Cube.elf.dir/Core/Src/main.c.obj
                0x080016fc                SystemClock_Config
 .text.main     0x080017d4      0x100 CMakeFiles/STM32Cube.elf.dir/Core/Src/main.c.obj
                0x080017d4                main
 .text.HAL_MspInit
                0x080018d4       0x40 CMakeFiles/STM32Cube.elf.dir/Core/Src/stm32l4xx_hal_msp.c.obj
                0x080018d4                HAL_MspInit
 .text.HAL_ADC_MspInit
                0x08001914       0xa4 CMakeFiles/STM32Cube.elf.dir/Core/Src/stm32l4xx_hal_msp.c.obj
                0x08001914                HAL_ADC_MspInit
 .text.HAL_SPI_MspInit
                0x080019b8       0x90 CMakeFiles/STM32Cube.elf.dir/Core/Src/stm32l4xx_hal_msp.c.obj
                0x080019b8                HAL_SPI_MspInit
 .text.HAL_UART_MspInit
                0x08001a48      0x124 CMakeFiles/STM32Cube.elf.dir/Core/Src/stm32l4xx_hal_msp.c.obj
                0x08001a48                HAL_UART_MspInit
 .text.HAL_InitTick
                0x08001b6c       0x78 CMakeFiles/STM32Cube.elf.dir/Core/Src/stm32l4xx_hal_timebase_tim.c.obj
                0x08001b6c                HAL_InitTick
 .text.NMI_Handler
                0x08001be4        0x2 CMakeFiles/STM32Cube.elf.dir/Core/Src/stm32l4xx_it.c.obj
                0x08001be4                NMI_Handler
 .text.HardFault_Handler
                0x08001be6        0x2 CMakeFiles/STM32Cube.elf.dir/Core/Src/stm32l4xx_it.c.obj
                0x08001be6                HardFault_Handler
 .text.MemManage_Handler
                0x08001be8        0x2 CMakeFiles/STM32Cube.elf.dir/Core/Src/stm32l4xx_it.c.obj
                0x08001be8                MemManage_Handler
 .text.BusFault_Handler
                0x08001bea        0x2 CMakeFiles/STM32Cube.elf.dir/Core/Src/stm32l4xx_it.c.obj
                0x08001bea                BusFault_Handler
 .text.UsageFault_Handler
                0x08001bec        0x2 CMakeFiles/STM32Cube.elf.dir/Core/Src/stm32l4xx_it.c.obj
                0x08001bec                UsageFault_Handler
 .text.DebugMon_Handler
                0x08001bee        0x2 CMakeFiles/STM32Cube.elf.dir/Core/Src/stm32l4xx_it.c.obj
                0x08001bee                DebugMon_Handler
 .text.DMA1_Channel1_IRQHandler
                0x08001bf0       0x10 CMakeFiles/STM32Cube.elf.dir/Core/Src/stm32l4xx_it.c.obj
                0x08001bf0                DMA1_Channel1_IRQHandler
 .text.DMA1_Channel7_IRQHandler
                0x08001c00       0x10 CMakeFiles/STM32Cube.elf.dir/Core/Src/stm32l4xx_it.c.obj
                0x08001c00                DMA1_Channel7_IRQHandler
 .text.USART1_IRQHandler
                0x08001c10       0x10 CMakeFiles/STM32Cube.elf.dir/Core/Src/stm32l4xx_it.c.obj
                0x08001c10                USART1_IRQHandler
 .text.USART2_IRQHandler
                0x08001c20       0x10 CMakeFiles/STM32Cube.elf.dir/Core/Src/stm32l4xx_it.c.obj
                0x08001c20                USART2_IRQHandler
 .text.TIM6_DAC_IRQHandler
                0x08001c30       0x10 CMakeFiles/STM32Cube.elf.dir/Core/Src/stm32l4xx_it.c.obj
                0x08001c30                TIM6_DAC_IRQHandler
 .text._sbrk    0x08001c40       0x3c CMakeFiles/STM32Cube.elf.dir/Core/Src/syscalls.c.obj
                0x08001c40                _sbrk
 .text.SystemInit
                0x08001c7c       0x48 CMakeFiles/STM32Cube.elf.dir/Core/Src/system_stm32l4xx.c.obj
                0x08001c7c                SystemInit
 .text.HAL_Init
                0x08001cc4       0x1e CMakeFiles/STM32Cube.elf.dir/Drivers/STM32L4xx_HAL_Driver/Src/stm32l4xx_hal.c.obj
                0x08001cc4                HAL_Init
 *fill*         0x08001ce2        0x2 
 .text.HAL_IncTick
                0x08001ce4       0x18 CMakeFiles/STM32Cube.elf.dir/Drivers/STM32L4xx_HAL_Driver/Src/stm32l4xx_hal.c.obj
                0x08001ce4                HAL_IncTick
 .text.HAL_GetTick
                0x08001cfc        0xc CMakeFiles/STM32Cube.elf.dir/Drivers/STM32L4xx_HAL_Driver/Src/stm32l4xx_hal.c.obj
                0x08001cfc                HAL_GetTick
 .text.HAL_ADC_Init
                0x08001d08      0x1d4 CMakeFiles/STM32Cube.elf.dir/Drivers/STM32L4xx_HAL_Driver/Src/stm32l4xx_hal_adc.c.obj
                0x08001d08                HAL_ADC_Init
 .text.ADC_DMAHalfConvCplt
                0x08001edc        0xa CMakeFiles/STM32Cube.elf.dir/Drivers/STM32L4xx_HAL_Driver/Src/stm32l4xx_hal_adc.c.obj
                0x08001edc                ADC_DMAHalfConvCplt
 .text.HAL_ADC_ErrorCallback
                0x08001ee6        0x2 CMakeFiles/STM32Cube.elf.dir/Drivers/STM32L4xx_HAL_Driver/Src/stm32l4xx_hal_adc.c.obj
                0x08001ee6                HAL_ADC_ErrorCallback
 .text.ADC_DMAConvCplt
                0x08001ee8       0x88 CMakeFiles/STM32Cube.elf.dir/Drivers/STM32L4xx_HAL_Driver/Src/stm32l4xx_hal_adc.c.obj
                0x08001ee8                ADC_DMAConvCplt
 .text.ADC_DMAError
                0x08001f70       0x1a CMakeFiles/STM32Cube.elf.dir/Drivers/STM32L4xx_HAL_Driver/Src/stm32l4xx_hal_adc.c.obj
                0x08001f70                ADC_DMAError
 *fill*         0x08001f8a        0x2 
 .text.HAL_ADC_ConfigChannel
                0x08001f8c      0x480 CMakeFiles/STM32Cube.elf.dir/Drivers/STM32L4xx_HAL_Driver/Src/stm32l4xx_hal_adc.c.obj
                0x08001f8c                HAL_ADC_ConfigChannel
 .text.ADC_ConversionStop
                0x0800240c       0xf8 CMakeFiles/STM32Cube.elf.dir/Drivers/STM32L4xx_HAL_Driver/Src/stm32l4xx_hal_adc.c.obj
                0x0800240c                ADC_ConversionStop
 .text.ADC_Enable
                0x08002504       0x90 CMakeFiles/STM32Cube.elf.dir/Drivers/STM32L4xx_HAL_Driver/Src/stm32l4xx_hal_adc.c.obj
                0x08002504                ADC_Enable
 .text.HAL_ADC_Start_DMA
                0x08002594       0xc4 CMakeFiles/STM32Cube.elf.dir/Drivers/STM32L4xx_HAL_Driver/Src/stm32l4xx_hal_adc.c.obj
                0x08002594                HAL_ADC_Start_DMA
 .text.ADC_Disable
                0x08002658       0x8a CMakeFiles/STM32Cube.elf.dir/Drivers/STM32L4xx_HAL_Driver/Src/stm32l4xx_hal_adc.c.obj
                0x08002658                ADC_Disable
 .text.HAL_ADC_Stop_DMA
                0x080026e2       0x82 CMakeFiles/STM32Cube.elf.dir/Drivers/STM32L4xx_HAL_Driver/Src/stm32l4xx_hal_adc.c.obj
                0x080026e2                HAL_ADC_Stop_DMA
 .text.HAL_NVIC_SetPriorityGrouping
                0x08002764       0x24 CMakeFiles/STM32Cube.elf.dir/Drivers/STM32L4xx_HAL_Driver/Src/stm32l4xx_hal_cortex.c.obj
                0x08002764                HAL_NVIC_SetPriorityGrouping
 .text.HAL_NVIC_SetPriority
                0x08002788       0x68 CMakeFiles/STM32Cube.elf.dir/Drivers/STM32L4xx_HAL_Driver/Src/stm32l4xx_hal_cortex.c.obj
                0x08002788                HAL_NVIC_SetPriority
 .text.HAL_NVIC_EnableIRQ
                0x080027f0       0x1c CMakeFiles/STM32Cube.elf.dir/Drivers/STM32L4xx_HAL_Driver/Src/stm32l4xx_hal_cortex.c.obj
                0x080027f0                HAL_NVIC_EnableIRQ
 .text.DMA_SetConfig
                0x0800280c       0x30 CMakeFiles/STM32Cube.elf.dir/Drivers/STM32L4xx_HAL_Driver/Src/stm32l4xx_hal_dma.c.obj
 .text.HAL_DMA_Init
                0x0800283c       0xf8 CMakeFiles/STM32Cube.elf.dir/Drivers/STM32L4xx_HAL_Driver/Src/stm32l4xx_hal_dma.c.obj
                0x0800283c                HAL_DMA_Init
 .text.HAL_DMA_Start_IT
                0x08002934       0x76 CMakeFiles/STM32Cube.elf.dir/Drivers/STM32L4xx_HAL_Driver/Src/stm32l4xx_hal_dma.c.obj
                0x08002934                HAL_DMA_Start_IT
 .text.HAL_DMA_Abort
                0x080029aa       0x4a CMakeFiles/STM32Cube.elf.dir/Drivers/STM32L4xx_HAL_Driver/Src/stm32l4xx_hal_dma.c.obj
                0x080029aa                HAL_DMA_Abort
 .text.HAL_DMA_Abort_IT
                0x080029f4       0x50 CMakeFiles/STM32Cube.elf.dir/Drivers/STM32L4xx_HAL_Driver/Src/stm32l4xx_hal_dma.c.obj
                0x080029f4                HAL_DMA_Abort_IT
 .text.HAL_DMA_IRQHandler
                0x08002a44       0xc4 CMakeFiles/STM32Cube.elf.dir/Drivers/STM32L4xx_HAL_Driver/Src/stm32l4xx_hal_dma.c.obj
                0x08002a44                HAL_DMA_IRQHandler
 .text.HAL_GPIO_Init
                0x08002b08      0x180 CMakeFiles/STM32Cube.elf.dir/Drivers/STM32L4xx_HAL_Driver/Src/stm32l4xx_hal_gpio.c.obj
                0x08002b08                HAL_GPIO_Init
 .text.HAL_GPIO_WritePin
                0x08002c88        0xa CMakeFiles/STM32Cube.elf.dir/Drivers/STM32L4xx_HAL_Driver/Src/stm32l4xx_hal_gpio.c.obj
                0x08002c88                HAL_GPIO_WritePin
 *fill*         0x08002c92        0x2 
 .text.HAL_PWR_EnableBkUpAccess
                0x08002c94       0x10 CMakeFiles/STM32Cube.elf.dir/Drivers/STM32L4xx_HAL_Driver/Src/stm32l4xx_hal_pwr.c.obj
                0x08002c94                HAL_PWR_EnableBkUpAccess
 .text.HAL_PWREx_GetVoltageRange
                0x08002ca4       0x10 CMakeFiles/STM32Cube.elf.dir/Drivers/STM32L4xx_HAL_Driver/Src/stm32l4xx_hal_pwr_ex.c.obj
                0x08002ca4                HAL_PWREx_GetVoltageRange
 .text.HAL_PWREx_ControlVoltageScaling
                0x08002cb4       0x8c CMakeFiles/STM32Cube.elf.dir/Drivers/STM32L4xx_HAL_Driver/Src/stm32l4xx_hal_pwr_ex.c.obj
                0x08002cb4                HAL_PWREx_ControlVoltageScaling
 .text.RCC_SetFlashLatencyFromMSIRange
                0x08002d40       0x90 CMakeFiles/STM32Cube.elf.dir/Drivers/STM32L4xx_HAL_Driver/Src/stm32l4xx_hal_rcc.c.obj
 .text.HAL_RCC_GetSysClockFreq
                0x08002dd0       0xb4 CMakeFiles/STM32Cube.elf.dir/Drivers/STM32L4xx_HAL_Driver/Src/stm32l4xx_hal_rcc.c.obj
                0x08002dd0                HAL_RCC_GetSysClockFreq
 .text.HAL_RCC_OscConfig
                0x08002e84      0x688 CMakeFiles/STM32Cube.elf.dir/Drivers/STM32L4xx_HAL_Driver/Src/stm32l4xx_hal_rcc.c.obj
                0x08002e84                HAL_RCC_OscConfig
 .text.HAL_RCC_ClockConfig
                0x0800350c      0x15c CMakeFiles/STM32Cube.elf.dir/Drivers/STM32L4xx_HAL_Driver/Src/stm32l4xx_hal_rcc.c.obj
                0x0800350c                HAL_RCC_ClockConfig
 .text.HAL_RCC_GetHCLKFreq
                0x08003668        0xc CMakeFiles/STM32Cube.elf.dir/Drivers/STM32L4xx_HAL_Driver/Src/stm32l4xx_hal_rcc.c.obj
                0x08003668                HAL_RCC_GetHCLKFreq
 .text.HAL_RCC_GetPCLK1Freq
                0x08003674       0x24 CMakeFiles/STM32Cube.elf.dir/Drivers/STM32L4xx_HAL_Driver/Src/stm32l4xx_hal_rcc.c.obj
                0x08003674                HAL_RCC_GetPCLK1Freq
 .text.HAL_RCC_GetPCLK2Freq
                0x08003698       0x24 CMakeFiles/STM32Cube.elf.dir/Drivers/STM32L4xx_HAL_Driver/Src/stm32l4xx_hal_rcc.c.obj
                0x08003698                HAL_RCC_GetPCLK2Freq
 .text.HAL_RCC_GetClockConfig
                0x080036bc       0x3c CMakeFiles/STM32Cube.elf.dir/Drivers/STM32L4xx_HAL_Driver/Src/stm32l4xx_hal_rcc.c.obj
                0x080036bc                HAL_RCC_GetClockConfig
 .text.RCCEx_PLLSAI1_Config
                0x080036f8      0x16c CMakeFiles/STM32Cube.elf.dir/Drivers/STM32L4xx_HAL_Driver/Src/stm32l4xx_hal_rcc_ex.c.obj
 .text.HAL_RCCEx_PeriphCLKConfig
                0x08003864      0x2e8 CMakeFiles/STM32Cube.elf.dir/Drivers/STM32L4xx_HAL_Driver/Src/stm32l4xx_hal_rcc_ex.c.obj
                0x08003864                HAL_RCCEx_PeriphCLKConfig
 .text.HAL_RCCEx_EnableMSIPLLMode
                0x08003b4c       0x10 CMakeFiles/STM32Cube.elf.dir/Drivers/STM32L4xx_HAL_Driver/Src/stm32l4xx_hal_rcc_ex.c.obj
                0x08003b4c                HAL_RCCEx_EnableMSIPLLMode
 .text.HAL_SPI_Init
                0x08003b5c       0xde CMakeFiles/STM32Cube.elf.dir/Drivers/STM32L4xx_HAL_Driver/Src/stm32l4xx_hal_spi.c.obj
                0x08003b5c                HAL_SPI_Init
 .text.HAL_TIM_Base_MspInit
                0x08003c3a        0x2 CMakeFiles/STM32Cube.elf.dir/Drivers/STM32L4xx_HAL_Driver/Src/stm32l4xx_hal_tim.c.obj
                0x08003c3a                HAL_TIM_Base_MspInit
 .text.HAL_TIM_Base_Start_IT
                0x08003c3c       0x6c CMakeFiles/STM32Cube.elf.dir/Drivers/STM32L4xx_HAL_Driver/Src/stm32l4xx_hal_tim.c.obj
                0x08003c3c                HAL_TIM_Base_Start_IT
 .text.HAL_TIM_OC_DelayElapsedCallback
                0x08003ca8        0x2 CMakeFiles/STM32Cube.elf.dir/Drivers/STM32L4xx_HAL_Driver/Src/stm32l4xx_hal_tim.c.obj
                0x08003ca8                HAL_TIM_OC_DelayElapsedCallback
 .text.HAL_TIM_IC_CaptureCallback
                0x08003caa        0x2 CMakeFiles/STM32Cube.elf.dir/Drivers/STM32L4xx_HAL_Driver/Src/stm32l4xx_hal_tim.c.obj
                0x08003caa                HAL_TIM_IC_CaptureCallback
 .text.HAL_TIM_PWM_PulseFinishedCallback
                0x08003cac        0x2 CMakeFiles/STM32Cube.elf.dir/Drivers/STM32L4xx_HAL_Driver/Src/stm32l4xx_hal_tim.c.obj
                0x08003cac                HAL_TIM_PWM_PulseFinishedCallback
 .text.HAL_TIM_TriggerCallback
                0x08003cae        0x2 CMakeFiles/STM32Cube.elf.dir/Drivers/STM32L4xx_HAL_Driver/Src/stm32l4xx_hal_tim.c.obj
                0x08003cae                HAL_TIM_TriggerCallback
 .text.HAL_TIM_IRQHandler
                0x08003cb0      0x19a CMakeFiles/STM32Cube.elf.dir/Drivers/STM32L4xx_HAL_Driver/Src/stm32l4xx_hal_tim.c.obj
                0x08003cb0                HAL_TIM_IRQHandler
 *fill*         0x08003e4a        0x2 
 .text.TIM_Base_SetConfig
                0x08003e4c       0x70 CMakeFiles/STM32Cube.elf.dir/Drivers/STM32L4xx_HAL_Driver/Src/stm32l4xx_hal_tim.c.obj
                0x08003e4c                TIM_Base_SetConfig
 .text.HAL_TIM_Base_Init
                0x08003ebc       0x60 CMakeFiles/STM32Cube.elf.dir/Drivers/STM32L4xx_HAL_Driver/Src/stm32l4xx_hal_tim.c.obj
                0x08003ebc                HAL_TIM_Base_Init
 .text.HAL_TIMEx_CommutCallback
                0x08003f1c        0x2 CMakeFiles/STM32Cube.elf.dir/Drivers/STM32L4xx_HAL_Driver/Src/stm32l4xx_hal_tim_ex.c.obj
                0x08003f1c                HAL_TIMEx_CommutCallback
 .text.HAL_TIMEx_BreakCallback
                0x08003f1e        0x2 CMakeFiles/STM32Cube.elf.dir/Drivers/STM32L4xx_HAL_Driver/Src/stm32l4xx_hal_tim_ex.c.obj
                0x08003f1e                HAL_TIMEx_BreakCallback
 .text.HAL_TIMEx_Break2Callback
                0x08003f20        0x2 CMakeFiles/STM32Cube.elf.dir/Drivers/STM32L4xx_HAL_Driver/Src/stm32l4xx_hal_tim_ex.c.obj
                0x08003f20                HAL_TIMEx_Break2Callback
 .text.UART_EndTxTransfer
                0x08003f22       0x10 CMakeFiles/STM32Cube.elf.dir/Drivers/STM32L4xx_HAL_Driver/Src/stm32l4xx_hal_uart.c.obj
 .text.UART_EndRxTransfer
                0x08003f32       0x1e CMakeFiles/STM32Cube.elf.dir/Drivers/STM32L4xx_HAL_Driver/Src/stm32l4xx_hal_uart.c.obj
 .text.HAL_UART_Receive_IT
                0x08003f50       0xd4 CMakeFiles/STM32Cube.elf.dir/Drivers/STM32L4xx_HAL_Driver/Src/stm32l4xx_hal_uart.c.obj
                0x08003f50                HAL_UART_Receive_IT
 .text.HAL_UART_Transmit_DMA
                0x08004024       0xa4 CMakeFiles/STM32Cube.elf.dir/Drivers/STM32L4xx_HAL_Driver/Src/stm32l4xx_hal_uart.c.obj
                0x08004024                HAL_UART_Transmit_DMA
 .text.UART_DMATransmitCplt
                0x080040c8       0x32 CMakeFiles/STM32Cube.elf.dir/Drivers/STM32L4xx_HAL_Driver/Src/stm32l4xx_hal_uart.c.obj
 .text.UART_EndTransmit_IT
                0x080040fa       0x1a CMakeFiles/STM32Cube.elf.dir/Drivers/STM32L4xx_HAL_Driver/Src/stm32l4xx_hal_uart.c.obj
 .text.HAL_UART_TxHalfCpltCallback
                0x08004114        0x2 CMakeFiles/STM32Cube.elf.dir/Drivers/STM32L4xx_HAL_Driver/Src/stm32l4xx_hal_uart.c.obj
                0x08004114                HAL_UART_TxHalfCpltCallback
 .text.UART_DMATxHalfCplt
                0x08004116        0xa CMakeFiles/STM32Cube.elf.dir/Drivers/STM32L4xx_HAL_Driver/Src/stm32l4xx_hal_uart.c.obj
 .text.UART_RxISR_8BIT
                0x08004120       0x62 CMakeFiles/STM32Cube.elf.dir/Drivers/STM32L4xx_HAL_Driver/Src/stm32l4xx_hal_uart.c.obj
 .text.UART_RxISR_16BIT
                0x08004182       0x60 CMakeFiles/STM32Cube.elf.dir/Drivers/STM32L4xx_HAL_Driver/Src/stm32l4xx_hal_uart.c.obj
 .text.HAL_UART_ErrorCallback
                0x080041e2        0x2 CMakeFiles/STM32Cube.elf.dir/Drivers/STM32L4xx_HAL_Driver/Src/stm32l4xx_hal_uart.c.obj
                0x080041e2                HAL_UART_ErrorCallback
 .text.UART_DMAError
                0x080041e4       0x50 CMakeFiles/STM32Cube.elf.dir/Drivers/STM32L4xx_HAL_Driver/Src/stm32l4xx_hal_uart.c.obj
 .text.HAL_UART_IRQHandler
                0x08004234      0x184 CMakeFiles/STM32Cube.elf.dir/Drivers/STM32L4xx_HAL_Driver/Src/stm32l4xx_hal_uart.c.obj
                0x08004234                HAL_UART_IRQHandler
 .text.UART_DMAAbortOnError
                0x080043b8       0x14 CMakeFiles/STM32Cube.elf.dir/Drivers/STM32L4xx_HAL_Driver/Src/stm32l4xx_hal_uart.c.obj
 .text.UART_SetConfig
                0x080043cc      0x264 CMakeFiles/STM32Cube.elf.dir/Drivers/STM32L4xx_HAL_Driver/Src/stm32l4xx_hal_uart.c.obj
                0x080043cc                UART_SetConfig
 .text.UART_AdvFeatureConfig
                0x08004630       0xca CMakeFiles/STM32Cube.elf.dir/Drivers/STM32L4xx_HAL_Driver/Src/stm32l4xx_hal_uart.c.obj
                0x08004630                UART_AdvFeatureConfig
 .text.UART_WaitOnFlagUntilTimeout
                0x080046fa       0x9c CMakeFiles/STM32Cube.elf.dir/Drivers/STM32L4xx_HAL_Driver/Src/stm32l4xx_hal_uart.c.obj
                0x080046fa                UART_WaitOnFlagUntilTimeout
 .text.UART_CheckIdleState
                0x08004796       0x6c CMakeFiles/STM32Cube.elf.dir/Drivers/STM32L4xx_HAL_Driver/Src/stm32l4xx_hal_uart.c.obj
                0x08004796                UART_CheckIdleState
 .text.HAL_UART_Init
                0x08004802       0x62 CMakeFiles/STM32Cube.elf.dir/Drivers/STM32L4xx_HAL_Driver/Src/stm32l4xx_hal_uart.c.obj
                0x08004802                HAL_UART_Init
 .text.HAL_UARTEx_WakeupCallback
                0x08004864        0x2 CMakeFiles/STM32Cube.elf.dir/Drivers/STM32L4xx_HAL_Driver/Src/stm32l4xx_hal_uart_ex.c.obj
                0x08004864                HAL_UARTEx_WakeupCallback
 *fill*         0x08004866        0x2 
 .text.osKernelInitialize
                0x08004868       0x3c CMakeFiles/STM32Cube.elf.dir/Middlewares/Third_Party/FreeRTOS/Source/CMSIS_RTOS_V2/cmsis_os2.c.obj
                0x08004868                osKernelInitialize
 .text.osKernelStart
                0x080048a4       0x48 CMakeFiles/STM32Cube.elf.dir/Middlewares/Third_Party/FreeRTOS/Source/CMSIS_RTOS_V2/cmsis_os2.c.obj
                0x080048a4                osKernelStart
 .text.osThreadNew
                0x080048ec       0xd8 CMakeFiles/STM32Cube.elf.dir/Middlewares/Third_Party/FreeRTOS/Source/CMSIS_RTOS_V2/cmsis_os2.c.obj
                0x080048ec                osThreadNew
 .text.osDelay  0x080049c4       0x3c CMakeFiles/STM32Cube.elf.dir/Middlewares/Third_Party/FreeRTOS/Source/CMSIS_RTOS_V2/cmsis_os2.c.obj
                0x080049c4                osDelay
 .text.osMessageQueueNew
                0x08004a00       0xb4 CMakeFiles/STM32Cube.elf.dir/Middlewares/Third_Party/FreeRTOS/Source/CMSIS_RTOS_V2/cmsis_os2.c.obj
                0x08004a00                osMessageQueueNew
 .text.osMessageQueuePut
                0x08004ab4       0x9c CMakeFiles/STM32Cube.elf.dir/Middlewares/Third_Party/FreeRTOS/Source/CMSIS_RTOS_V2/cmsis_os2.c.obj
                0x08004ab4                osMessageQueuePut
 .text.osMessageQueueGet
                0x08004b50       0x9c CMakeFiles/STM32Cube.elf.dir/Middlewares/Third_Party/FreeRTOS/Source/CMSIS_RTOS_V2/cmsis_os2.c.obj
                0x08004b50                osMessageQueueGet
 .text.vApplicationGetIdleTaskMemory
                0x08004bec       0x18 CMakeFiles/STM32Cube.elf.dir/Middlewares/Third_Party/FreeRTOS/Source/CMSIS_RTOS_V2/cmsis_os2.c.obj
                0x08004bec                vApplicationGetIdleTaskMemory
 .text.vApplicationGetTimerTaskMemory
                0x08004c04       0x18 CMakeFiles/STM32Cube.elf.dir/Middlewares/Third_Party/FreeRTOS/Source/CMSIS_RTOS_V2/cmsis_os2.c.obj
                0x08004c04                vApplicationGetTimerTaskMemory
 .text.vListInitialise
                0x08004c1c       0x16 CMakeFiles/STM32Cube.elf.dir/Middlewares/Third_Party/FreeRTOS/Source/list.c.obj
                0x08004c1c                vListInitialise
 .text.vListInitialiseItem
                0x08004c32        0x6 CMakeFiles/STM32Cube.elf.dir/Middlewares/Third_Party/FreeRTOS/Source/list.c.obj
                0x08004c32                vListInitialiseItem
 .text.vListInsertEnd
                0x08004c38       0x16 CMakeFiles/STM32Cube.elf.dir/Middlewares/Third_Party/FreeRTOS/Source/list.c.obj
                0x08004c38                vListInsertEnd
 .text.vListInsert
                0x08004c4e       0x34 CMakeFiles/STM32Cube.elf.dir/Middlewares/Third_Party/FreeRTOS/Source/list.c.obj
                0x08004c4e                vListInsert
 .text.uxListRemove
                0x08004c82       0x26 CMakeFiles/STM32Cube.elf.dir/Middlewares/Third_Party/FreeRTOS/Source/list.c.obj
                0x08004c82                uxListRemove
 .text.prvTaskExitError
                0x08004ca8       0x40 CMakeFiles/STM32Cube.elf.dir/Middlewares/Third_Party/FreeRTOS/Source/portable/GCC/ARM_CM4F/port.c.obj
 .text.prvPortStartFirstTask
                0x08004ce8       0x28 CMakeFiles/STM32Cube.elf.dir/Middlewares/Third_Party/FreeRTOS/Source/portable/GCC/ARM_CM4F/port.c.obj
 .text.vPortEnableVFP
                0x08004d10       0x14 CMakeFiles/STM32Cube.elf.dir/Middlewares/Third_Party/FreeRTOS/Source/portable/GCC/ARM_CM4F/port.c.obj
 .text.pxPortInitialiseStack
                0x08004d24       0x2c CMakeFiles/STM32Cube.elf.dir/Middlewares/Third_Party/FreeRTOS/Source/portable/GCC/ARM_CM4F/port.c.obj
                0x08004d24                pxPortInitialiseStack
 .text.SVC_Handler
                0x08004d50       0x24 CMakeFiles/STM32Cube.elf.dir/Middlewares/Third_Party/FreeRTOS/Source/portable/GCC/ARM_CM4F/port.c.obj
                0x08004d50                SVC_Handler
 .text.vPortEnterCritical
                0x08004d74       0x44 CMakeFiles/STM32Cube.elf.dir/Middlewares/Third_Party/FreeRTOS/Source/portable/GCC/ARM_CM4F/port.c.obj
                0x08004d74                vPortEnterCritical
 .text.vPortExitCritical
                0x08004db8       0x2c CMakeFiles/STM32Cube.elf.dir/Middlewares/Third_Party/FreeRTOS/Source/portable/GCC/ARM_CM4F/port.c.obj
                0x08004db8                vPortExitCritical
 *fill*         0x08004de4        0xc 
 .text.PendSV_Handler
                0x08004df0       0x64 CMakeFiles/STM32Cube.elf.dir/Middlewares/Third_Party/FreeRTOS/Source/portable/GCC/ARM_CM4F/port.c.obj
                0x08004df0                PendSV_Handler
 .text.SysTick_Handler
                0x08004e54       0x2c CMakeFiles/STM32Cube.elf.dir/Middlewares/Third_Party/FreeRTOS/Source/portable/GCC/ARM_CM4F/port.c.obj
                0x08004e54                SysTick_Handler
 .text.vPortSetupTimerInterrupt
                0x08004e80       0x38 CMakeFiles/STM32Cube.elf.dir/Middlewares/Third_Party/FreeRTOS/Source/portable/GCC/ARM_CM4F/port.c.obj
                0x08004e80                vPortSetupTimerInterrupt
 .text.xPortStartScheduler
                0x08004eb8      0x110 CMakeFiles/STM32Cube.elf.dir/Middlewares/Third_Party/FreeRTOS/Source/portable/GCC/ARM_CM4F/port.c.obj
                0x08004eb8                xPortStartScheduler
 .text.vPortValidateInterruptPriority
                0x08004fc8       0x5c CMakeFiles/STM32Cube.elf.dir/Middlewares/Third_Party/FreeRTOS/Source/portable/GCC/ARM_CM4F/port.c.obj
                0x08004fc8                vPortValidateInterruptPriority
 .text.prvHeapInit
                0x08005024       0x68 CMakeFiles/STM32Cube.elf.dir/Middlewares/Third_Party/FreeRTOS/Source/portable/MemMang/heap_4.c.obj
 .text.prvInsertBlockIntoFreeList
                0x0800508c       0x58 CMakeFiles/STM32Cube.elf.dir/Middlewares/Third_Party/FreeRTOS/Source/portable/MemMang/heap_4.c.obj
 .text.pvPortMalloc
                0x080050e4      0x108 CMakeFiles/STM32Cube.elf.dir/Middlewares/Third_Party/FreeRTOS/Source/portable/MemMang/heap_4.c.obj
                0x080050e4                pvPortMalloc
 .text.vPortFree
                0x080051ec       0x70 CMakeFiles/STM32Cube.elf.dir/Middlewares/Third_Party/FreeRTOS/Source/portable/MemMang/heap_4.c.obj
                0x080051ec                vPortFree
 .text.prvIsQueueFull
                0x0800525c       0x1e CMakeFiles/STM32Cube.elf.dir/Middlewares/Third_Party/FreeRTOS/Source/queue.c.obj
 .text.prvIsQueueEmpty
                0x0800527a       0x1a CMakeFiles/STM32Cube.elf.dir/Middlewares/Third_Party/FreeRTOS/Source/queue.c.obj
 .text.prvCopyDataToQueue
                0x08005294       0x76 CMakeFiles/STM32Cube.elf.dir/Middlewares/Third_Party/FreeRTOS/Source/queue.c.obj
 .text.prvCopyDataFromQueue
                0x0800530a       0x24 CMakeFiles/STM32Cube.elf.dir/Middlewares/Third_Party/FreeRTOS/Source/queue.c.obj
 .text.prvUnlockQueue
                0x0800532e       0x6e CMakeFiles/STM32Cube.elf.dir/Middlewares/Third_Party/FreeRTOS/Source/queue.c.obj
 .text.xQueueGenericReset
                0x0800539c       0x84 CMakeFiles/STM32Cube.elf.dir/Middlewares/Third_Party/FreeRTOS/Source/queue.c.obj
                0x0800539c                xQueueGenericReset
 .text.prvInitialiseNewQueue
                0x08005420       0x22 CMakeFiles/STM32Cube.elf.dir/Middlewares/Third_Party/FreeRTOS/Source/queue.c.obj
 .text.xQueueGenericCreateStatic
                0x08005442       0x94 CMakeFiles/STM32Cube.elf.dir/Middlewares/Third_Party/FreeRTOS/Source/queue.c.obj
                0x08005442                xQueueGenericCreateStatic
 .text.xQueueGenericCreate
                0x080054d6       0x4e CMakeFiles/STM32Cube.elf.dir/Middlewares/Third_Party/FreeRTOS/Source/queue.c.obj
                0x080054d6                xQueueGenericCreate
 .text.xQueueGenericSend
                0x08005524      0x180 CMakeFiles/STM32Cube.elf.dir/Middlewares/Third_Party/FreeRTOS/Source/queue.c.obj
                0x08005524                xQueueGenericSend
 .text.xQueueGenericSendFromISR
                0x080056a4       0xce CMakeFiles/STM32Cube.elf.dir/Middlewares/Third_Party/FreeRTOS/Source/queue.c.obj
                0x080056a4                xQueueGenericSendFromISR
 *fill*         0x08005772        0x2 
 .text.xQueueReceive
                0x08005774      0x15c CMakeFiles/STM32Cube.elf.dir/Middlewares/Third_Party/FreeRTOS/Source/queue.c.obj
                0x08005774                xQueueReceive
 .text.xQueueReceiveFromISR
                0x080058d0       0xac CMakeFiles/STM32Cube.elf.dir/Middlewares/Third_Party/FreeRTOS/Source/queue.c.obj
                0x080058d0                xQueueReceiveFromISR
 .text.vQueueAddToRegistry
                0x0800597c       0x28 CMakeFiles/STM32Cube.elf.dir/Middlewares/Third_Party/FreeRTOS/Source/queue.c.obj
                0x0800597c                vQueueAddToRegistry
 .text.vQueueWaitForMessageRestricted
                0x080059a4       0x52 CMakeFiles/STM32Cube.elf.dir/Middlewares/Third_Party/FreeRTOS/Source/queue.c.obj
                0x080059a4                vQueueWaitForMessageRestricted
 *fill*         0x080059f6        0x2 
 .text.prvResetNextTaskUnblockTime
                0x080059f8       0x2c CMakeFiles/STM32Cube.elf.dir/Middlewares/Third_Party/FreeRTOS/Source/tasks.c.obj
 .text.prvInitialiseNewTask
                0x08005a24       0x98 CMakeFiles/STM32Cube.elf.dir/Middlewares/Third_Party/FreeRTOS/Source/tasks.c.obj
 .text.prvInitialiseTaskLists
                0x08005abc       0x68 CMakeFiles/STM32Cube.elf.dir/Middlewares/Third_Party/FreeRTOS/Source/tasks.c.obj
 .text.prvAddNewTaskToReadyList
                0x08005b24       0xac CMakeFiles/STM32Cube.elf.dir/Middlewares/Third_Party/FreeRTOS/Source/tasks.c.obj
 .text.prvDeleteTCB
                0x08005bd0       0x38 CMakeFiles/STM32Cube.elf.dir/Middlewares/Third_Party/FreeRTOS/Source/tasks.c.obj
 .text.prvCheckTasksWaitingTermination
                0x08005c08       0x4c CMakeFiles/STM32Cube.elf.dir/Middlewares/Third_Party/FreeRTOS/Source/tasks.c.obj
 .text.prvIdleTask
                0x08005c54       0x28 CMakeFiles/STM32Cube.elf.dir/Middlewares/Third_Party/FreeRTOS/Source/tasks.c.obj
 .text.prvAddCurrentTaskToDelayedList
                0x08005c7c       0x7c CMakeFiles/STM32Cube.elf.dir/Middlewares/Third_Party/FreeRTOS/Source/tasks.c.obj
 .text.xTaskCreateStatic
                0x08005cf8       0x74 CMakeFiles/STM32Cube.elf.dir/Middlewares/Third_Party/FreeRTOS/Source/tasks.c.obj
                0x08005cf8                xTaskCreateStatic
 .text.xTaskCreate
                0x08005d6c       0x66 CMakeFiles/STM32Cube.elf.dir/Middlewares/Third_Party/FreeRTOS/Source/tasks.c.obj
                0x08005d6c                xTaskCreate
 *fill*         0x08005dd2        0x2 
 .text.vTaskStartScheduler
                0x08005dd4       0x94 CMakeFiles/STM32Cube.elf.dir/Middlewares/Third_Party/FreeRTOS/Source/tasks.c.obj
                0x08005dd4                vTaskStartScheduler
 .text.vTaskSuspendAll
                0x08005e68       0x10 CMakeFiles/STM32Cube.elf.dir/Middlewares/Third_Party/FreeRTOS/Source/tasks.c.obj
                0x08005e68                vTaskSuspendAll
 .text.xTaskGetTickCount
                0x08005e78        0xc CMakeFiles/STM32Cube.elf.dir/Middlewares/Third_Party/FreeRTOS/Source/tasks.c.obj
                0x08005e78                xTaskGetTickCount
 .text.xTaskIncrementTick
                0x08005e84      0x118 CMakeFiles/STM32Cube.elf.dir/Middlewares/Third_Party/FreeRTOS/Source/tasks.c.obj
                0x08005e84                xTaskIncrementTick
 .text.xTaskResumeAll
                0x08005f9c       0xf8 CMakeFiles/STM32Cube.elf.dir/Middlewares/Third_Party/FreeRTOS/Source/tasks.c.obj
                0x08005f9c                xTaskResumeAll
 .text.vTaskDelay
                0x08006094       0x4c CMakeFiles/STM32Cube.elf.dir/Middlewares/Third_Party/FreeRTOS/Source/tasks.c.obj
                0x08006094                vTaskDelay
 .text.vTaskSwitchContext
                0x080060e0       0x9c CMakeFiles/STM32Cube.elf.dir/Middlewares/Third_Party/FreeRTOS/Source/tasks.c.obj
                0x080060e0                vTaskSwitchContext
 .text.vTaskPlaceOnEventList
                0x0800617c       0x30 CMakeFiles/STM32Cube.elf.dir/Middlewares/Third_Party/FreeRTOS/Source/tasks.c.obj
                0x0800617c                vTaskPlaceOnEventList
 .text.vTaskPlaceOnEventListRestricted
                0x080061ac       0x38 CMakeFiles/STM32Cube.elf.dir/Middlewares/Third_Party/FreeRTOS/Source/tasks.c.obj
                0x080061ac                vTaskPlaceOnEventListRestricted
 .text.xTaskRemoveFromEventList
                0x080061e4       0x8c CMakeFiles/STM32Cube.elf.dir/Middlewares/Third_Party/FreeRTOS/Source/tasks.c.obj
                0x080061e4                xTaskRemoveFromEventList
 .text.vTaskInternalSetTimeOutState
                0x08006270       0x18 CMakeFiles/STM32Cube.elf.dir/Middlewares/Third_Party/FreeRTOS/Source/tasks.c.obj
                0x08006270                vTaskInternalSetTimeOutState
 .text.xTaskCheckForTimeOut
                0x08006288       0x84 CMakeFiles/STM32Cube.elf.dir/Middlewares/Third_Party/FreeRTOS/Source/tasks.c.obj
                0x08006288                xTaskCheckForTimeOut
 .text.vTaskMissedYield
                0x0800630c        0xc CMakeFiles/STM32Cube.elf.dir/Middlewares/Third_Party/FreeRTOS/Source/tasks.c.obj
                0x0800630c                vTaskMissedYield
 .text.xTaskGetSchedulerState
                0x08006318       0x20 CMakeFiles/STM32Cube.elf.dir/Middlewares/Third_Party/FreeRTOS/Source/tasks.c.obj
                0x08006318                xTaskGetSchedulerState
 .text.xTaskPriorityDisinherit
                0x08006338       0x90 CMakeFiles/STM32Cube.elf.dir/Middlewares/Third_Party/FreeRTOS/Source/tasks.c.obj
                0x08006338                xTaskPriorityDisinherit
 .text.prvGetNextExpireTime
                0x080063c8       0x20 CMakeFiles/STM32Cube.elf.dir/Middlewares/Third_Party/FreeRTOS/Source/timers.c.obj
 .text.prvInsertTimerInActiveList
                0x080063e8       0x48 CMakeFiles/STM32Cube.elf.dir/Middlewares/Third_Party/FreeRTOS/Source/timers.c.obj
 .text.prvCheckForValidListAndQueue
                0x08006430       0x70 CMakeFiles/STM32Cube.elf.dir/Middlewares/Third_Party/FreeRTOS/Source/timers.c.obj
 .text.xTimerCreateTimerTask
                0x080064a0       0x64 CMakeFiles/STM32Cube.elf.dir/Middlewares/Third_Party/FreeRTOS/Source/timers.c.obj
                0x080064a0                xTimerCreateTimerTask
 .text.xTimerGenericCommand
                0x08006504       0x6c CMakeFiles/STM32Cube.elf.dir/Middlewares/Third_Party/FreeRTOS/Source/timers.c.obj
                0x08006504                xTimerGenericCommand
 .text.prvSwitchTimerLists
                0x08006570       0x7c CMakeFiles/STM32Cube.elf.dir/Middlewares/Third_Party/FreeRTOS/Source/timers.c.obj
 .text.prvSampleTimeNow
                0x080065ec       0x2c CMakeFiles/STM32Cube.elf.dir/Middlewares/Third_Party/FreeRTOS/Source/timers.c.obj
 .text.prvProcessExpiredTimer
                0x08006618       0x6c CMakeFiles/STM32Cube.elf.dir/Middlewares/Third_Party/FreeRTOS/Source/timers.c.obj
 .text.prvProcessTimerOrBlockTask
                0x08006684       0x74 CMakeFiles/STM32Cube.elf.dir/Middlewares/Third_Party/FreeRTOS/Source/timers.c.obj
 .text.prvProcessReceivedCommands
                0x080066f8      0x110 CMakeFiles/STM32Cube.elf.dir/Middlewares/Third_Party/FreeRTOS/Source/timers.c.obj
 .text.prvTimerTask
                0x08006808       0x16 CMakeFiles/STM32Cube.elf.dir/Middlewares/Third_Party/FreeRTOS/Source/timers.c.obj
 *fill*         0x0800681e        0x2 
 .text.Reset_Handler
                0x08006820       0x50 CMakeFiles/STM32Cube.elf.dir/startup/startup_stm32l432xx.s.obj
                0x08006820                Reset_Handler
 .text.Default_Handler
                0x08006870        0x2 CMakeFiles/STM32Cube.elf.dir/startup/startup_stm32l432xx.s.obj
                0x08006870                RTC_Alarm_IRQHandler
                0x08006870                EXTI2_IRQHandler
                0x08006870                TIM1_CC_IRQHandler
                0x08006870                TSC_IRQHandler
                0x08006870                TAMP_STAMP_IRQHandler
                0x08006870                EXTI3_IRQHandler
                0x08006870                LPTIM2_IRQHandler
                0x08006870                I2C3_ER_IRQHandler
                0x08006870                EXTI0_IRQHandler
                0x08006870                CAN1_RX0_IRQHandler
                0x08006870                FPU_IRQHandler
                0x08006870                TIM1_UP_TIM16_IRQHandler
                0x08006870                SPI1_IRQHandler
                0x08006870                DMA2_Channel2_IRQHandler
                0x08006870                DMA1_Channel4_IRQHandler
                0x08006870                ADC1_IRQHandler
                0x08006870                CAN1_RX1_IRQHandler
                0x08006870                DMA2_Channel1_IRQHandler
                0x08006870                QUADSPI_IRQHandler
                0x08006870                I2C1_EV_IRQHandler
                0x08006870                DMA1_Channel6_IRQHandler
                0x08006870                DMA2_Channel4_IRQHandler
                0x08006870                RCC_IRQHandler
                0x08006870                TIM1_TRG_COM_IRQHandler
                0x08006870                Default_Handler
                0x08006870                DMA2_Channel7_IRQHandler
                0x08006870                EXTI15_10_IRQHandler
                0x08006870                TIM7_IRQHandler
                0x08006870                I2C3_EV_IRQHandler
                0x08006870                USB_IRQHandler
                0x08006870                EXTI9_5_IRQHandler
                0x08006870                RTC_WKUP_IRQHandler
                0x08006870                PVD_PVM_IRQHandler
                0x08006870                CAN1_TX_IRQHandler
                0x08006870                DMA2_Channel5_IRQHandler
                0x08006870                CRS_IRQHandler
                0x08006870                DMA1_Channel5_IRQHandler
                0x08006870                EXTI4_IRQHandler
                0x08006870                RNG_IRQHandler
                0x08006870                DMA1_Channel3_IRQHandler
                0x08006870                COMP_IRQHandler
                0x08006870                WWDG_IRQHandler
                0x08006870                LPUART1_IRQHandler
                0x08006870                DMA2_Channel6_IRQHandler
                0x08006870                TIM2_IRQHandler
                0x08006870                EXTI1_IRQHandler
                0x08006870                DMA1_Channel2_IRQHandler
                0x08006870                CAN1_SCE_IRQHandler
                0x08006870                FLASH_IRQHandler
                0x08006870                SPI3_IRQHandler
                0x08006870                I2C1_ER_IRQHandler
                0x08006870                SWPMI1_IRQHandler
                0x08006870                LPTIM1_IRQHandler
                0x08006870                SAI1_IRQHandler
                0x08006870                DMA2_Channel3_IRQHandler
                0x08006870                TIM1_BRK_TIM15_IRQHandler
 *fill*         0x08006872        0x2 
 .text.__errno  0x08006874        0xc c:/progra~2/gnutoo~1/82019-~1/bin/../lib/gcc/arm-none-eabi/8.3.1/../../../../arm-none-eabi/lib/thumb/v7e-m+fp/hard\libg.a(lib_a-errno.o)
                0x08006874                __errno
 .text.__libc_init_array
                0x08006880       0x48 c:/progra~2/gnutoo~1/82019-~1/bin/../lib/gcc/arm-none-eabi/8.3.1/../../../../arm-none-eabi/lib/thumb/v7e-m+fp/hard\libg.a(lib_a-init.o)
                0x08006880                __libc_init_array
 .text.memset   0x080068c8       0xa0 c:/progra~2/gnutoo~1/82019-~1/bin/../lib/gcc/arm-none-eabi/8.3.1/../../../../arm-none-eabi/lib/thumb/v7e-m+fp/hard\libg.a(lib_a-memset.o)
                0x080068c8                memset
 .text.sprintf  0x08006968       0x44 c:/progra~2/gnutoo~1/82019-~1/bin/../lib/gcc/arm-none-eabi/8.3.1/../../../../arm-none-eabi/lib/thumb/v7e-m+fp/hard\libg.a(lib_a-sprintf.o)
                0x08006968                sprintf
 *fill*         0x080069ac        0x4 
 .text._svfprintf_r
                0x080069b0     0x19f8 c:/progra~2/gnutoo~1/82019-~1/bin/../lib/gcc/arm-none-eabi/8.3.1/../../../../arm-none-eabi/lib/thumb/v7e-m+fp/hard\libg.a(lib_a-svfprintf.o)
                0x080069b0                _svfprintf_r
 .text.startup.register_fini
                0x080083a8       0x14 c:/progra~2/gnutoo~1/82019-~1/bin/../lib/gcc/arm-none-eabi/8.3.1/../../../../arm-none-eabi/lib/thumb/v7e-m+fp/hard\libg.a(lib_a-__call_atexit.o)
 .text.atexit   0x080083bc        0xc c:/progra~2/gnutoo~1/82019-~1/bin/../lib/gcc/arm-none-eabi/8.3.1/../../../../arm-none-eabi/lib/thumb/v7e-m+fp/hard\libg.a(lib_a-atexit.o)
                0x080083bc                atexit
 .text.quorem   0x080083c8      0x124 c:/progra~2/gnutoo~1/82019-~1/bin/../lib/gcc/arm-none-eabi/8.3.1/../../../../arm-none-eabi/lib/thumb/v7e-m+fp/hard\libg.a(lib_a-dtoa.o)
 *fill*         0x080084ec        0x4 
 .text._dtoa_r  0x080084f0      0xe54 c:/progra~2/gnutoo~1/82019-~1/bin/../lib/gcc/arm-none-eabi/8.3.1/../../../../arm-none-eabi/lib/thumb/v7e-m+fp/hard\libg.a(lib_a-dtoa.o)
                0x080084f0                _dtoa_r
 .text.__libc_fini_array
                0x08009344       0x34 c:/progra~2/gnutoo~1/82019-~1/bin/../lib/gcc/arm-none-eabi/8.3.1/../../../../arm-none-eabi/lib/thumb/v7e-m+fp/hard\libg.a(lib_a-fini.o)
                0x08009344                __libc_fini_array
 .text._malloc_trim_r
                0x08009378       0xa0 c:/progra~2/gnutoo~1/82019-~1/bin/../lib/gcc/arm-none-eabi/8.3.1/../../../../arm-none-eabi/lib/thumb/v7e-m+fp/hard\libg.a(lib_a-freer.o)
                0x08009378                _malloc_trim_r
 .text._free_r  0x08009418      0x1f4 c:/progra~2/gnutoo~1/82019-~1/bin/../lib/gcc/arm-none-eabi/8.3.1/../../../../arm-none-eabi/lib/thumb/v7e-m+fp/hard\libg.a(lib_a-freer.o)
                0x08009418                _free_r
 .text._localeconv_r
                0x0800960c        0x8 c:/progra~2/gnutoo~1/82019-~1/bin/../lib/gcc/arm-none-eabi/8.3.1/../../../../arm-none-eabi/lib/thumb/v7e-m+fp/hard\libg.a(lib_a-localeconv.o)
                0x0800960c                _localeconv_r
 .text.__retarget_lock_acquire_recursive
                0x08009614        0x4 c:/progra~2/gnutoo~1/82019-~1/bin/../lib/gcc/arm-none-eabi/8.3.1/../../../../arm-none-eabi/lib/thumb/v7e-m+fp/hard\libg.a(lib_a-lock.o)
                0x08009614                __retarget_lock_acquire_recursive
 .text.__retarget_lock_release_recursive
                0x08009618        0x4 c:/progra~2/gnutoo~1/82019-~1/bin/../lib/gcc/arm-none-eabi/8.3.1/../../../../arm-none-eabi/lib/thumb/v7e-m+fp/hard\libg.a(lib_a-lock.o)
                0x08009618                __retarget_lock_release_recursive
 .text._malloc_r
                0x0800961c      0x570 c:/progra~2/gnutoo~1/82019-~1/bin/../lib/gcc/arm-none-eabi/8.3.1/../../../../arm-none-eabi/lib/thumb/v7e-m+fp/hard\libg.a(lib_a-mallocr.o)
                0x0800961c                _malloc_r
 .text.__malloc_lock
                0x08009b8c        0xc c:/progra~2/gnutoo~1/82019-~1/bin/../lib/gcc/arm-none-eabi/8.3.1/../../../../arm-none-eabi/lib/thumb/v7e-m+fp/hard\libg.a(lib_a-mlock.o)
                0x08009b8c                __malloc_lock
 .text.__malloc_unlock
                0x08009b98        0xc c:/progra~2/gnutoo~1/82019-~1/bin/../lib/gcc/arm-none-eabi/8.3.1/../../../../arm-none-eabi/lib/thumb/v7e-m+fp/hard\libg.a(lib_a-mlock.o)
                0x08009b98                __malloc_unlock
 .text._Balloc  0x08009ba4       0x4c c:/progra~2/gnutoo~1/82019-~1/bin/../lib/gcc/arm-none-eabi/8.3.1/../../../../arm-none-eabi/lib/thumb/v7e-m+fp/hard\libg.a(lib_a-mprec.o)
                0x08009ba4                _Balloc
 .text._Bfree   0x08009bf0       0x14 c:/progra~2/gnutoo~1/82019-~1/bin/../lib/gcc/arm-none-eabi/8.3.1/../../../../arm-none-eabi/lib/thumb/v7e-m+fp/hard\libg.a(lib_a-mprec.o)
                0x08009bf0                _Bfree
 .text.__multadd
                0x08009c04       0x8c c:/progra~2/gnutoo~1/82019-~1/bin/../lib/gcc/arm-none-eabi/8.3.1/../../../../arm-none-eabi/lib/thumb/v7e-m+fp/hard\libg.a(lib_a-mprec.o)
                0x08009c04                __multadd
 .text.__hi0bits
                0x08009c90       0x40 c:/progra~2/gnutoo~1/82019-~1/bin/../lib/gcc/arm-none-eabi/8.3.1/../../../../arm-none-eabi/lib/thumb/v7e-m+fp/hard\libg.a(lib_a-mprec.o)
                0x08009c90                __hi0bits
 .text.__lo0bits
                0x08009cd0       0x60 c:/progra~2/gnutoo~1/82019-~1/bin/../lib/gcc/arm-none-eabi/8.3.1/../../../../arm-none-eabi/lib/thumb/v7e-m+fp/hard\libg.a(lib_a-mprec.o)
                0x08009cd0                __lo0bits
 .text.__i2b    0x08009d30       0x14 c:/progra~2/gnutoo~1/82019-~1/bin/../lib/gcc/arm-none-eabi/8.3.1/../../../../arm-none-eabi/lib/thumb/v7e-m+fp/hard\libg.a(lib_a-mprec.o)
                0x08009d30                __i2b
 .text.__multiply
                0x08009d44      0x130 c:/progra~2/gnutoo~1/82019-~1/bin/../lib/gcc/arm-none-eabi/8.3.1/../../../../arm-none-eabi/lib/thumb/v7e-m+fp/hard\libg.a(lib_a-mprec.o)
                0x08009d44                __multiply
 .text.__pow5mult
                0x08009e74       0xa0 c:/progra~2/gnutoo~1/82019-~1/bin/../lib/gcc/arm-none-eabi/8.3.1/../../../../arm-none-eabi/lib/thumb/v7e-m+fp/hard\libg.a(lib_a-mprec.o)
                0x08009e74                __pow5mult
 .text.__lshift
                0x08009f14       0xb4 c:/progra~2/gnutoo~1/82019-~1/bin/../lib/gcc/arm-none-eabi/8.3.1/../../../../arm-none-eabi/lib/thumb/v7e-m+fp/hard\libg.a(lib_a-mprec.o)
                0x08009f14                __lshift
 .text.__mcmp   0x08009fc8       0x38 c:/progra~2/gnutoo~1/82019-~1/bin/../lib/gcc/arm-none-eabi/8.3.1/../../../../arm-none-eabi/lib/thumb/v7e-m+fp/hard\libg.a(lib_a-mprec.o)
                0x08009fc8                __mcmp
 .text.__mdiff  0x0800a000       0xf8 c:/progra~2/gnutoo~1/82019-~1/bin/../lib/gcc/arm-none-eabi/8.3.1/../../../../arm-none-eabi/lib/thumb/v7e-m+fp/hard\libg.a(lib_a-mprec.o)
                0x0800a000                __mdiff
 .text.__d2b    0x0800a0f8       0xc0 c:/progra~2/gnutoo~1/82019-~1/bin/../lib/gcc/arm-none-eabi/8.3.1/../../../../arm-none-eabi/lib/thumb/v7e-m+fp/hard\libg.a(lib_a-mprec.o)
                0x0800a0f8                __d2b
 .text.frexp    0x0800a1b8       0x6c c:/progra~2/gnutoo~1/82019-~1/bin/../lib/gcc/arm-none-eabi/8.3.1/../../../../arm-none-eabi/lib/thumb/v7e-m+fp/hard\libg.a(lib_a-s_frexp.o)
                0x0800a1b8                frexp
 .text._sbrk_r  0x0800a224       0x24 c:/progra~2/gnutoo~1/82019-~1/bin/../lib/gcc/arm-none-eabi/8.3.1/../../../../arm-none-eabi/lib/thumb/v7e-m+fp/hard\libg.a(lib_a-sbrkr.o)
                0x0800a224                _sbrk_r
 .text.strncpy  0x0800a248       0x74 c:/progra~2/gnutoo~1/82019-~1/bin/../lib/gcc/arm-none-eabi/8.3.1/../../../../arm-none-eabi/lib/thumb/v7e-m+fp/hard\libg.a(lib_a-strncpy.o)
                0x0800a248                strncpy
 .text.__ssprint_r
                0x0800a2bc       0xf8 c:/progra~2/gnutoo~1/82019-~1/bin/../lib/gcc/arm-none-eabi/8.3.1/../../../../arm-none-eabi/lib/thumb/v7e-m+fp/hard\libg.a(lib_a-svfiprintf.o)
                0x0800a2bc                __ssprint_r
 .text.__register_exitproc
                0x0800a3b4       0x88 c:/progra~2/gnutoo~1/82019-~1/bin/../lib/gcc/arm-none-eabi/8.3.1/../../../../arm-none-eabi/lib/thumb/v7e-m+fp/hard\libg.a(lib_a-__atexit.o)
                0x0800a3b4                __register_exitproc
 .text._calloc_r
                0x0800a43c       0x60 c:/progra~2/gnutoo~1/82019-~1/bin/../lib/gcc/arm-none-eabi/8.3.1/../../../../arm-none-eabi/lib/thumb/v7e-m+fp/hard\libg.a(lib_a-callocr.o)
                0x0800a43c                _calloc_r
 .text.__ascii_mbtowc
                0x0800a49c       0x2c c:/progra~2/gnutoo~1/82019-~1/bin/../lib/gcc/arm-none-eabi/8.3.1/../../../../arm-none-eabi/lib/thumb/v7e-m+fp/hard\libg.a(lib_a-mbtowc_r.o)
                0x0800a49c                __ascii_mbtowc
 .text.memmove  0x0800a4c8       0xd0 c:/progra~2/gnutoo~1/82019-~1/bin/../lib/gcc/arm-none-eabi/8.3.1/../../../../arm-none-eabi/lib/thumb/v7e-m+fp/hard\libg.a(lib_a-memmove.o)
                0x0800a4c8                memmove
 .text._realloc_r
                0x0800a598      0x36c c:/progra~2/gnutoo~1/82019-~1/bin/../lib/gcc/arm-none-eabi/8.3.1/../../../../arm-none-eabi/lib/thumb/v7e-m+fp/hard\libg.a(lib_a-reallocr.o)
                0x0800a598                _realloc_r
 .text.__ascii_wctomb
                0x0800a904       0x1c c:/progra~2/gnutoo~1/82019-~1/bin/../lib/gcc/arm-none-eabi/8.3.1/../../../../arm-none-eabi/lib/thumb/v7e-m+fp/hard\libg.a(lib_a-wctomb_r.o)
                0x0800a904                __ascii_wctomb
 *(.glue_7)
 .glue_7        0x0800a920        0x0 linker stubs
 *(.glue_7t)
 .glue_7t       0x0800a920        0x0 linker stubs
 *(.eh_frame)
 .eh_frame      0x0800a920        0x0 c:/progra~2/gnutoo~1/82019-~1/bin/../lib/gcc/arm-none-eabi/8.3.1/thumb/v7e-m+fp/hard/crtbegin.o
 *(.init)
 .init          0x0800a920        0x4 c:/progra~2/gnutoo~1/82019-~1/bin/../lib/gcc/arm-none-eabi/8.3.1/thumb/v7e-m+fp/hard/crti.o
                0x0800a920                _init
 .init          0x0800a924        0x8 c:/progra~2/gnutoo~1/82019-~1/bin/../lib/gcc/arm-none-eabi/8.3.1/thumb/v7e-m+fp/hard/crtn.o
 *(.fini)
 .fini          0x0800a92c        0x4 c:/progra~2/gnutoo~1/82019-~1/bin/../lib/gcc/arm-none-eabi/8.3.1/thumb/v7e-m+fp/hard/crti.o
                0x0800a92c                _fini
 .fini          0x0800a930        0x8 c:/progra~2/gnutoo~1/82019-~1/bin/../lib/gcc/arm-none-eabi/8.3.1/thumb/v7e-m+fp/hard/crtn.o
                0x0800a938                . = ALIGN (0x8)
                0x0800a938                _etext = .

.vfp11_veneer   0x0800a938        0x0
 .vfp11_veneer  0x0800a938        0x0 linker stubs

.v4_bx          0x0800a938        0x0
 .v4_bx         0x0800a938        0x0 linker stubs

.iplt           0x0800a938        0x0
 .iplt          0x0800a938        0x0 c:/progra~2/gnutoo~1/82019-~1/bin/../lib/gcc/arm-none-eabi/8.3.1/thumb/v7e-m+fp/hard/crtbegin.o

.rodata         0x0800a938      0x460
                0x0800a938                . = ALIGN (0x8)
 *(.rodata)
 *(.rodata*)
 .rodata.StartUartTask.str1.4
                0x0800a938       0x13 CMakeFiles/STM32Cube.elf.dir/Core/Src/main.c.obj
 *fill*         0x0800a94b        0x1 
 .rodata.adcDone_attributes
                0x0800a94c       0x18 CMakeFiles/STM32Cube.elf.dir/Core/Src/main.c.obj
                0x0800a94c                adcDone_attributes
 .rodata.adcHalfDone_attributes
                0x0800a964       0x18 CMakeFiles/STM32Cube.elf.dir/Core/Src/main.c.obj
                0x0800a964                adcHalfDone_attributes
 .rodata.defaultTask_attributes
                0x0800a97c       0x24 CMakeFiles/STM32Cube.elf.dir/Core/Src/main.c.obj
                0x0800a97c                defaultTask_attributes
 .rodata.powerTask_attributes
                0x0800a9a0       0x24 CMakeFiles/STM32Cube.elf.dir/Core/Src/main.c.obj
                0x0800a9a0                powerTask_attributes
 .rodata.rx1Received_attributes
                0x0800a9c4       0x18 CMakeFiles/STM32Cube.elf.dir/Core/Src/main.c.obj
                0x0800a9c4                rx1Received_attributes
 .rodata.rx2Received_attributes
                0x0800a9dc       0x18 CMakeFiles/STM32Cube.elf.dir/Core/Src/main.c.obj
                0x0800a9dc                rx2Received_attributes
 .rodata.str1.4
                0x0800a9f4       0x64 CMakeFiles/STM32Cube.elf.dir/Core/Src/main.c.obj
 .rodata.tx1Done_attributes
                0x0800aa58       0x18 CMakeFiles/STM32Cube.elf.dir/Core/Src/main.c.obj
                0x0800aa58                tx1Done_attributes
 .rodata.tx2Done_attributes
                0x0800aa70       0x18 CMakeFiles/STM32Cube.elf.dir/Core/Src/main.c.obj
                0x0800aa70                tx2Done_attributes
 .rodata.uartToPcTask_attributes
                0x0800aa88       0x24 CMakeFiles/STM32Cube.elf.dir/Core/Src/main.c.obj
                0x0800aa88                uartToPcTask_attributes
 .rodata.AHBPrescTable
                0x0800aaac       0x10 CMakeFiles/STM32Cube.elf.dir/Core/Src/system_stm32l4xx.c.obj
                0x0800aaac                AHBPrescTable
 .rodata.APBPrescTable
                0x0800aabc        0x8 CMakeFiles/STM32Cube.elf.dir/Core/Src/system_stm32l4xx.c.obj
                0x0800aabc                APBPrescTable
 .rodata.MSIRangeTable
                0x0800aac4       0x30 CMakeFiles/STM32Cube.elf.dir/Core/Src/system_stm32l4xx.c.obj
                0x0800aac4                MSIRangeTable
 .rodata.vTaskStartScheduler.str1.4
                0x0800aaf4        0x5 CMakeFiles/STM32Cube.elf.dir/Middlewares/Third_Party/FreeRTOS/Source/tasks.c.obj
 *fill*         0x0800aaf9        0x3 
 .rodata.prvCheckForValidListAndQueue.str1.4
                0x0800aafc        0x5 CMakeFiles/STM32Cube.elf.dir/Middlewares/Third_Party/FreeRTOS/Source/timers.c.obj
 *fill*         0x0800ab01        0x3 
 .rodata.xTimerCreateTimerTask.str1.4
                0x0800ab04        0x8 CMakeFiles/STM32Cube.elf.dir/Middlewares/Third_Party/FreeRTOS/Source/timers.c.obj
 .rodata._global_impure_ptr
                0x0800ab0c        0x4 c:/progra~2/gnutoo~1/82019-~1/bin/../lib/gcc/arm-none-eabi/8.3.1/../../../../arm-none-eabi/lib/thumb/v7e-m+fp/hard\libg.a(lib_a-impure.o)
                0x0800ab0c                _global_impure_ptr
 .rodata._svfprintf_r.str1.4
                0x0800ab10       0x42 c:/progra~2/gnutoo~1/82019-~1/bin/../lib/gcc/arm-none-eabi/8.3.1/../../../../arm-none-eabi/lib/thumb/v7e-m+fp/hard\libg.a(lib_a-svfprintf.o)
 *fill*         0x0800ab52        0x2 
 .rodata.blanks.8662
                0x0800ab54       0x10 c:/progra~2/gnutoo~1/82019-~1/bin/../lib/gcc/arm-none-eabi/8.3.1/../../../../arm-none-eabi/lib/thumb/v7e-m+fp/hard\libg.a(lib_a-svfprintf.o)
 .rodata.zeroes.8663
                0x0800ab64       0x10 c:/progra~2/gnutoo~1/82019-~1/bin/../lib/gcc/arm-none-eabi/8.3.1/../../../../arm-none-eabi/lib/thumb/v7e-m+fp/hard\libg.a(lib_a-svfprintf.o)
 .rodata._dtoa_r.str1.4
                0x0800ab74        0xd c:/progra~2/gnutoo~1/82019-~1/bin/../lib/gcc/arm-none-eabi/8.3.1/../../../../arm-none-eabi/lib/thumb/v7e-m+fp/hard\libg.a(lib_a-dtoa.o)
                                 0x12 (size before relaxing)
 *fill*         0x0800ab81        0x7 
 .rodata.__mprec_bigtens
                0x0800ab88       0x28 c:/progra~2/gnutoo~1/82019-~1/bin/../lib/gcc/arm-none-eabi/8.3.1/../../../../arm-none-eabi/lib/thumb/v7e-m+fp/hard\libg.a(lib_a-mprec.o)
                0x0800ab88                __mprec_bigtens
 .rodata.__mprec_tens
                0x0800abb0       0xc8 c:/progra~2/gnutoo~1/82019-~1/bin/../lib/gcc/arm-none-eabi/8.3.1/../../../../arm-none-eabi/lib/thumb/v7e-m+fp/hard\libg.a(lib_a-mprec.o)
                0x0800abb0                __mprec_tens
 .rodata.p05.7432
                0x0800ac78        0xc c:/progra~2/gnutoo~1/82019-~1/bin/../lib/gcc/arm-none-eabi/8.3.1/../../../../arm-none-eabi/lib/thumb/v7e-m+fp/hard\libg.a(lib_a-mprec.o)
 .rodata._setlocale_r.str1.4
                0x0800ac84        0xa c:/progra~2/gnutoo~1/82019-~1/bin/../lib/gcc/arm-none-eabi/8.3.1/../../../../arm-none-eabi/lib/thumb/v7e-m+fp/hard\libg.a(lib_a-locale.o)
                                  0xd (size before relaxing)
 *fill*         0x0800ac8e        0x2 
 .rodata.str1.4
                0x0800ac90        0x4 c:/progra~2/gnutoo~1/82019-~1/bin/../lib/gcc/arm-none-eabi/8.3.1/../../../../arm-none-eabi/lib/thumb/v7e-m+fp/hard\libg.a(lib_a-locale.o)
                                  0x2 (size before relaxing)
 .rodata._ctype_
                0x0800ac94      0x101 c:/progra~2/gnutoo~1/82019-~1/bin/../lib/gcc/arm-none-eabi/8.3.1/../../../../arm-none-eabi/lib/thumb/v7e-m+fp/hard\libg.a(lib_a-ctype_.o)
                0x0800ac94                _ctype_
                0x0800ad98                . = ALIGN (0x8)
 *fill*         0x0800ad95        0x3 

.ARM.extab      0x0800ad98        0x0
                0x0800ad98                . = ALIGN (0x8)
 *(.ARM.extab* .gnu.linkonce.armextab.*)
                0x0800ad98                . = ALIGN (0x8)

.ARM            0x0800ad98        0x8
                0x0800ad98                . = ALIGN (0x8)
                0x0800ad98                __exidx_start = .
 *(.ARM.exidx*)
 .ARM.exidx     0x0800ad98        0x8 c:/progra~2/gnutoo~1/82019-~1/bin/../lib/gcc/arm-none-eabi/8.3.1/thumb/v7e-m+fp/hard\libgcc.a(_udivmoddi4.o)
                0x0800ada0                __exidx_end = .
                0x0800ada0                . = ALIGN (0x8)

.rel.dyn        0x0800ada0        0x0
 .rel.iplt      0x0800ada0        0x0 c:/progra~2/gnutoo~1/82019-~1/bin/../lib/gcc/arm-none-eabi/8.3.1/thumb/v7e-m+fp/hard/crtbegin.o

.preinit_array  0x0800ada0        0x0
                0x0800ada0                . = ALIGN (0x8)
                0x0800ada0                PROVIDE (__preinit_array_start = .)
 *(.preinit_array*)
                0x0800ada0                PROVIDE (__preinit_array_end = .)
                0x0800ada0                . = ALIGN (0x8)

.init_array     0x0800ada0        0x8
                0x0800ada0                . = ALIGN (0x8)
                0x0800ada0                PROVIDE (__init_array_start = .)
 *(SORT_BY_NAME(.init_array.*))
 .init_array.00000
                0x0800ada0        0x4 c:/progra~2/gnutoo~1/82019-~1/bin/../lib/gcc/arm-none-eabi/8.3.1/../../../../arm-none-eabi/lib/thumb/v7e-m+fp/hard\libg.a(lib_a-__call_atexit.o)
 *(.init_array*)
 .init_array    0x0800ada4        0x4 c:/progra~2/gnutoo~1/82019-~1/bin/../lib/gcc/arm-none-eabi/8.3.1/thumb/v7e-m+fp/hard/crtbegin.o
                0x0800ada8                PROVIDE (__init_array_end = .)
                0x0800ada8                . = ALIGN (0x8)

.fini_array     0x0800ada8        0x8
                0x0800ada8                . = ALIGN (0x8)
                0x0800ada8                PROVIDE (__fini_array_start = .)
 *(SORT_BY_NAME(.fini_array.*))
 *(.fini_array*)
 .fini_array    0x0800ada8        0x4 c:/progra~2/gnutoo~1/82019-~1/bin/../lib/gcc/arm-none-eabi/8.3.1/thumb/v7e-m+fp/hard/crtbegin.o
                0x0800adac                PROVIDE (__fini_array_end = .)
                0x0800adb0                . = ALIGN (0x8)
 *fill*         0x0800adac        0x4 
                0x0800adb0                _sidata = LOADADDR (.data)

.data           0x20000000      0x9c0 load address 0x0800adb0
                0x20000000                . = ALIGN (0x8)
                0x20000000                _sdata = .
 *(.data)
 *(.data*)
 .data.SystemCoreClock
                0x20000000        0x4 CMakeFiles/STM32Cube.elf.dir/Core/Src/system_stm32l4xx.c.obj
                0x20000000                SystemCoreClock
 .data.uwTickFreq
                0x20000004        0x1 CMakeFiles/STM32Cube.elf.dir/Drivers/STM32L4xx_HAL_Driver/Src/stm32l4xx_hal.c.obj
                0x20000004                uwTickFreq
 *fill*         0x20000005        0x3 
 .data.uwTickPrio
                0x20000008        0x4 CMakeFiles/STM32Cube.elf.dir/Drivers/STM32L4xx_HAL_Driver/Src/stm32l4xx_hal.c.obj
                0x20000008                uwTickPrio
 .data.uxCriticalNesting
                0x2000000c        0x4 CMakeFiles/STM32Cube.elf.dir/Middlewares/Third_Party/FreeRTOS/Source/portable/GCC/ARM_CM4F/port.c.obj
 .data._impure_ptr
                0x20000010        0x4 c:/progra~2/gnutoo~1/82019-~1/bin/../lib/gcc/arm-none-eabi/8.3.1/../../../../arm-none-eabi/lib/thumb/v7e-m+fp/hard\libg.a(lib_a-impure.o)
                0x20000010                _impure_ptr
 *fill*         0x20000014        0x4 
 .data.impure_data
                0x20000018      0x428 c:/progra~2/gnutoo~1/82019-~1/bin/../lib/gcc/arm-none-eabi/8.3.1/../../../../arm-none-eabi/lib/thumb/v7e-m+fp/hard\libg.a(lib_a-impure.o)
 .data.__atexit_recursive_mutex
                0x20000440        0x4 c:/progra~2/gnutoo~1/82019-~1/bin/../lib/gcc/arm-none-eabi/8.3.1/../../../../arm-none-eabi/lib/thumb/v7e-m+fp/hard\libg.a(lib_a-__call_atexit.o)
                0x20000440                __atexit_recursive_mutex
 .data.__malloc_av_
                0x20000444      0x408 c:/progra~2/gnutoo~1/82019-~1/bin/../lib/gcc/arm-none-eabi/8.3.1/../../../../arm-none-eabi/lib/thumb/v7e-m+fp/hard\libg.a(lib_a-mallocr.o)
                0x20000444                __malloc_av_
 .data.__malloc_sbrk_base
                0x2000084c        0x4 c:/progra~2/gnutoo~1/82019-~1/bin/../lib/gcc/arm-none-eabi/8.3.1/../../../../arm-none-eabi/lib/thumb/v7e-m+fp/hard\libg.a(lib_a-mallocr.o)
                0x2000084c                __malloc_sbrk_base
 .data.__malloc_trim_threshold
                0x20000850        0x4 c:/progra~2/gnutoo~1/82019-~1/bin/../lib/gcc/arm-none-eabi/8.3.1/../../../../arm-none-eabi/lib/thumb/v7e-m+fp/hard\libg.a(lib_a-mallocr.o)
                0x20000850                __malloc_trim_threshold
 .data.__global_locale
                0x20000854      0x16c c:/progra~2/gnutoo~1/82019-~1/bin/../lib/gcc/arm-none-eabi/8.3.1/../../../../arm-none-eabi/lib/thumb/v7e-m+fp/hard\libg.a(lib_a-locale.o)
                0x20000854                __global_locale
                0x200009c0                . = ALIGN (0x8)
                0x200009c0                _edata = .

.igot.plt       0x200009c0        0x0 load address 0x0800b770
 .igot.plt      0x200009c0        0x0 c:/progra~2/gnutoo~1/82019-~1/bin/../lib/gcc/arm-none-eabi/8.3.1/thumb/v7e-m+fp/hard/crtbegin.o
                0x200009c0                . = ALIGN (0x4)

.bss            0x200009c0     0x6aa0 load address 0x0800b770
                0x200009c0                _sbss = .
                0x200009c0                __bss_start__ = _sbss
 *(.bss)
 .bss           0x200009c0       0x1c c:/progra~2/gnutoo~1/82019-~1/bin/../lib/gcc/arm-none-eabi/8.3.1/thumb/v7e-m+fp/hard/crtbegin.o
 *(.bss*)
 .bss.AdcBuff   0x200009dc     0x4e20 CMakeFiles/STM32Cube.elf.dir/Core/Src/main.c.obj
                0x200009dc                AdcBuff
 .bss.adcDoneHandle
                0x200057fc        0x4 CMakeFiles/STM32Cube.elf.dir/Core/Src/main.c.obj
                0x200057fc                adcDoneHandle
 .bss.adcHalfDoneHandle
                0x20005800        0x4 CMakeFiles/STM32Cube.elf.dir/Core/Src/main.c.obj
                0x20005800                adcHalfDoneHandle
 .bss.defaultTaskHandle
                0x20005804        0x4 CMakeFiles/STM32Cube.elf.dir/Core/Src/main.c.obj
                0x20005804                defaultTaskHandle
 .bss.hadc1     0x20005808       0x64 CMakeFiles/STM32Cube.elf.dir/Core/Src/main.c.obj
                0x20005808                hadc1
 .bss.hdma_adc1
                0x2000586c       0x48 CMakeFiles/STM32Cube.elf.dir/Core/Src/main.c.obj
                0x2000586c                hdma_adc1
 .bss.hdma_usart2_tx
                0x200058b4       0x48 CMakeFiles/STM32Cube.elf.dir/Core/Src/main.c.obj
                0x200058b4                hdma_usart2_tx
 .bss.hspi1     0x200058fc       0x64 CMakeFiles/STM32Cube.elf.dir/Core/Src/main.c.obj
                0x200058fc                hspi1
 .bss.huart1    0x20005960       0x80 CMakeFiles/STM32Cube.elf.dir/Core/Src/main.c.obj
                0x20005960                huart1
 .bss.huart2    0x200059e0       0x80 CMakeFiles/STM32Cube.elf.dir/Core/Src/main.c.obj
                0x200059e0                huart2
 .bss.powerTaskHandle
                0x20005a60        0x4 CMakeFiles/STM32Cube.elf.dir/Core/Src/main.c.obj
                0x20005a60                powerTaskHandle
 .bss.power_measure_on
                0x20005a64        0x2 CMakeFiles/STM32Cube.elf.dir/Core/Src/main.c.obj
                0x20005a64                power_measure_on
 *fill*         0x20005a66        0x2 
 .bss.rx1ReceivedHandle
                0x20005a68        0x4 CMakeFiles/STM32Cube.elf.dir/Core/Src/main.c.obj
                0x20005a68                rx1ReceivedHandle
 .bss.rx2ReceivedHandle
                0x20005a6c        0x4 CMakeFiles/STM32Cube.elf.dir/Core/Src/main.c.obj
                0x20005a6c                rx2ReceivedHandle
 .bss.tx1DoneHandle
                0x20005a70        0x4 CMakeFiles/STM32Cube.elf.dir/Core/Src/main.c.obj
                0x20005a70                tx1DoneHandle
 .bss.tx2DoneHandle
                0x20005a74        0x4 CMakeFiles/STM32Cube.elf.dir/Core/Src/main.c.obj
                0x20005a74                tx2DoneHandle
 .bss.tx_message
                0x20005a78       0x32 CMakeFiles/STM32Cube.elf.dir/Core/Src/main.c.obj
                0x20005a78                tx_message
 *fill*         0x20005aaa        0x2 
 .bss.uartToPcTaskHandle
                0x20005aac        0x4 CMakeFiles/STM32Cube.elf.dir/Core/Src/main.c.obj
                0x20005aac                uartToPcTaskHandle
 .bss.writingLTE
                0x20005ab0        0x4 CMakeFiles/STM32Cube.elf.dir/Core/Src/main.c.obj
                0x20005ab0                writingLTE
 .bss.htim6     0x20005ab4       0x4c CMakeFiles/STM32Cube.elf.dir/Core/Src/stm32l4xx_hal_timebase_tim.c.obj
                0x20005ab4                htim6
 .bss.heap_end.7381
                0x20005b00        0x4 CMakeFiles/STM32Cube.elf.dir/Core/Src/syscalls.c.obj
 .bss.uwTick    0x20005b04        0x4 CMakeFiles/STM32Cube.elf.dir/Drivers/STM32L4xx_HAL_Driver/Src/stm32l4xx_hal.c.obj
                0x20005b04                uwTick
 .bss.Idle_Stack
                0x20005b08      0x200 CMakeFiles/STM32Cube.elf.dir/Middlewares/Third_Party/FreeRTOS/Source/CMSIS_RTOS_V2/cmsis_os2.c.obj
 .bss.Idle_TCB  0x20005d08       0x5c CMakeFiles/STM32Cube.elf.dir/Middlewares/Third_Party/FreeRTOS/Source/CMSIS_RTOS_V2/cmsis_os2.c.obj
 .bss.KernelState
                0x20005d64        0x4 CMakeFiles/STM32Cube.elf.dir/Middlewares/Third_Party/FreeRTOS/Source/CMSIS_RTOS_V2/cmsis_os2.c.obj
 .bss.Timer_Stack
                0x20005d68      0x400 CMakeFiles/STM32Cube.elf.dir/Middlewares/Third_Party/FreeRTOS/Source/CMSIS_RTOS_V2/cmsis_os2.c.obj
 .bss.Timer_TCB
                0x20006168       0x5c CMakeFiles/STM32Cube.elf.dir/Middlewares/Third_Party/FreeRTOS/Source/CMSIS_RTOS_V2/cmsis_os2.c.obj
 .bss.ucMaxSysCallPriority
                0x200061c4        0x1 CMakeFiles/STM32Cube.elf.dir/Middlewares/Third_Party/FreeRTOS/Source/portable/GCC/ARM_CM4F/port.c.obj
 *fill*         0x200061c5        0x3 
 .bss.ulMaxPRIGROUPValue
                0x200061c8        0x4 CMakeFiles/STM32Cube.elf.dir/Middlewares/Third_Party/FreeRTOS/Source/portable/GCC/ARM_CM4F/port.c.obj
 .bss.pxEnd     0x200061cc        0x4 CMakeFiles/STM32Cube.elf.dir/Middlewares/Third_Party/FreeRTOS/Source/portable/MemMang/heap_4.c.obj
 .bss.ucHeap    0x200061d0      0xbb8 CMakeFiles/STM32Cube.elf.dir/Middlewares/Third_Party/FreeRTOS/Source/portable/MemMang/heap_4.c.obj
 .bss.xBlockAllocatedBit
                0x20006d88        0x4 CMakeFiles/STM32Cube.elf.dir/Middlewares/Third_Party/FreeRTOS/Source/portable/MemMang/heap_4.c.obj
 .bss.xFreeBytesRemaining
                0x20006d8c        0x4 CMakeFiles/STM32Cube.elf.dir/Middlewares/Third_Party/FreeRTOS/Source/portable/MemMang/heap_4.c.obj
 .bss.xMinimumEverFreeBytesRemaining
                0x20006d90        0x4 CMakeFiles/STM32Cube.elf.dir/Middlewares/Third_Party/FreeRTOS/Source/portable/MemMang/heap_4.c.obj
 .bss.xStart    0x20006d94        0x8 CMakeFiles/STM32Cube.elf.dir/Middlewares/Third_Party/FreeRTOS/Source/portable/MemMang/heap_4.c.obj
 .bss.xQueueRegistry
                0x20006d9c       0x40 CMakeFiles/STM32Cube.elf.dir/Middlewares/Third_Party/FreeRTOS/Source/queue.c.obj
                0x20006d9c                xQueueRegistry
 .bss.pxCurrentTCB
                0x20006ddc        0x4 CMakeFiles/STM32Cube.elf.dir/Middlewares/Third_Party/FreeRTOS/Source/tasks.c.obj
                0x20006ddc                pxCurrentTCB
 .bss.pxDelayedTaskList
                0x20006de0        0x4 CMakeFiles/STM32Cube.elf.dir/Middlewares/Third_Party/FreeRTOS/Source/tasks.c.obj
 .bss.pxOverflowDelayedTaskList
                0x20006de4        0x4 CMakeFiles/STM32Cube.elf.dir/Middlewares/Third_Party/FreeRTOS/Source/tasks.c.obj
 .bss.pxReadyTasksLists
                0x20006de8      0x460 CMakeFiles/STM32Cube.elf.dir/Middlewares/Third_Party/FreeRTOS/Source/tasks.c.obj
 .bss.uxCurrentNumberOfTasks
                0x20007248        0x4 CMakeFiles/STM32Cube.elf.dir/Middlewares/Third_Party/FreeRTOS/Source/tasks.c.obj
 .bss.uxDeletedTasksWaitingCleanUp
                0x2000724c        0x4 CMakeFiles/STM32Cube.elf.dir/Middlewares/Third_Party/FreeRTOS/Source/tasks.c.obj
 .bss.uxPendedTicks
                0x20007250        0x4 CMakeFiles/STM32Cube.elf.dir/Middlewares/Third_Party/FreeRTOS/Source/tasks.c.obj
 .bss.uxSchedulerSuspended
                0x20007254        0x4 CMakeFiles/STM32Cube.elf.dir/Middlewares/Third_Party/FreeRTOS/Source/tasks.c.obj
 .bss.uxTaskNumber
                0x20007258        0x4 CMakeFiles/STM32Cube.elf.dir/Middlewares/Third_Party/FreeRTOS/Source/tasks.c.obj
 .bss.uxTopReadyPriority
                0x2000725c        0x4 CMakeFiles/STM32Cube.elf.dir/Middlewares/Third_Party/FreeRTOS/Source/tasks.c.obj
 .bss.xDelayedTaskList1
                0x20007260       0x14 CMakeFiles/STM32Cube.elf.dir/Middlewares/Third_Party/FreeRTOS/Source/tasks.c.obj
 .bss.xDelayedTaskList2
                0x20007274       0x14 CMakeFiles/STM32Cube.elf.dir/Middlewares/Third_Party/FreeRTOS/Source/tasks.c.obj
 .bss.xNextTaskUnblockTime
                0x20007288        0x4 CMakeFiles/STM32Cube.elf.dir/Middlewares/Third_Party/FreeRTOS/Source/tasks.c.obj
 .bss.xNumOfOverflows
                0x2000728c        0x4 CMakeFiles/STM32Cube.elf.dir/Middlewares/Third_Party/FreeRTOS/Source/tasks.c.obj
 .bss.xPendingReadyList
                0x20007290       0x14 CMakeFiles/STM32Cube.elf.dir/Middlewares/Third_Party/FreeRTOS/Source/tasks.c.obj
 .bss.xSchedulerRunning
                0x200072a4        0x4 CMakeFiles/STM32Cube.elf.dir/Middlewares/Third_Party/FreeRTOS/Source/tasks.c.obj
 .bss.xSuspendedTaskList
                0x200072a8       0x14 CMakeFiles/STM32Cube.elf.dir/Middlewares/Third_Party/FreeRTOS/Source/tasks.c.obj
 .bss.xTasksWaitingTermination
                0x200072bc       0x14 CMakeFiles/STM32Cube.elf.dir/Middlewares/Third_Party/FreeRTOS/Source/tasks.c.obj
 .bss.xTickCount
                0x200072d0        0x4 CMakeFiles/STM32Cube.elf.dir/Middlewares/Third_Party/FreeRTOS/Source/tasks.c.obj
 .bss.xYieldPending
                0x200072d4        0x4 CMakeFiles/STM32Cube.elf.dir/Middlewares/Third_Party/FreeRTOS/Source/tasks.c.obj
 .bss.pxCurrentTimerList
                0x200072d8        0x4 CMakeFiles/STM32Cube.elf.dir/Middlewares/Third_Party/FreeRTOS/Source/timers.c.obj
 .bss.pxOverflowTimerList
                0x200072dc        0x4 CMakeFiles/STM32Cube.elf.dir/Middlewares/Third_Party/FreeRTOS/Source/timers.c.obj
 .bss.ucStaticTimerQueueStorage.6930
                0x200072e0       0xa0 CMakeFiles/STM32Cube.elf.dir/Middlewares/Third_Party/FreeRTOS/Source/timers.c.obj
 .bss.xActiveTimerList1
                0x20007380       0x14 CMakeFiles/STM32Cube.elf.dir/Middlewares/Third_Party/FreeRTOS/Source/timers.c.obj
 .bss.xActiveTimerList2
                0x20007394       0x14 CMakeFiles/STM32Cube.elf.dir/Middlewares/Third_Party/FreeRTOS/Source/timers.c.obj
 .bss.xLastTime.6879
                0x200073a8        0x4 CMakeFiles/STM32Cube.elf.dir/Middlewares/Third_Party/FreeRTOS/Source/timers.c.obj
 .bss.xStaticTimerQueue.6929
                0x200073ac       0x50 CMakeFiles/STM32Cube.elf.dir/Middlewares/Third_Party/FreeRTOS/Source/timers.c.obj
 .bss.xTimerQueue
                0x200073fc        0x4 CMakeFiles/STM32Cube.elf.dir/Middlewares/Third_Party/FreeRTOS/Source/timers.c.obj
 .bss.xTimerTaskHandle
                0x20007400        0x4 CMakeFiles/STM32Cube.elf.dir/Middlewares/Third_Party/FreeRTOS/Source/timers.c.obj
 .bss.__malloc_current_mallinfo
                0x20007404       0x28 c:/progra~2/gnutoo~1/82019-~1/bin/../lib/gcc/arm-none-eabi/8.3.1/../../../../arm-none-eabi/lib/thumb/v7e-m+fp/hard\libg.a(lib_a-mallocr.o)
                0x20007404                __malloc_current_mallinfo
 .bss.__malloc_max_sbrked_mem
                0x2000742c        0x4 c:/progra~2/gnutoo~1/82019-~1/bin/../lib/gcc/arm-none-eabi/8.3.1/../../../../arm-none-eabi/lib/thumb/v7e-m+fp/hard\libg.a(lib_a-mallocr.o)
                0x2000742c                __malloc_max_sbrked_mem
 .bss.__malloc_max_total_mem
                0x20007430        0x4 c:/progra~2/gnutoo~1/82019-~1/bin/../lib/gcc/arm-none-eabi/8.3.1/../../../../arm-none-eabi/lib/thumb/v7e-m+fp/hard\libg.a(lib_a-mallocr.o)
                0x20007430                __malloc_max_total_mem
 .bss.__malloc_top_pad
                0x20007434        0x4 c:/progra~2/gnutoo~1/82019-~1/bin/../lib/gcc/arm-none-eabi/8.3.1/../../../../arm-none-eabi/lib/thumb/v7e-m+fp/hard\libg.a(lib_a-mallocr.o)
                0x20007434                __malloc_top_pad
 *(COMMON)
 COMMON         0x20007438       0x21 c:/progra~2/gnutoo~1/82019-~1/bin/../lib/gcc/arm-none-eabi/8.3.1/../../../../arm-none-eabi/lib/thumb/v7e-m+fp/hard\libg.a(lib_a-lock.o)
                0x20007438                __lock___atexit_recursive_mutex
                0x2000743c                __lock___arc4random_mutex
                0x20007440                __lock___env_recursive_mutex
                0x20007444                __lock___sinit_recursive_mutex
                0x20007448                __lock___malloc_recursive_mutex
                0x2000744c                __lock___at_quick_exit_mutex
                0x20007450                __lock___dd_hash_mutex
                0x20007454                __lock___tz_mutex
                0x20007458                __lock___sfp_recursive_mutex
 *fill*         0x20007459        0x3 
 COMMON         0x2000745c        0x4 c:/progra~2/gnutoo~1/82019-~1/bin/../lib/gcc/arm-none-eabi/8.3.1/../../../../arm-none-eabi/lib/thumb/v7e-m+fp/hard\libg.a(lib_a-reent.o)
                0x2000745c                errno
                0x20007460                . = ALIGN (0x4)
                0x20007460                _ebss = .
                0x20007460                __bss_end__ = _ebss

._user_heap_stack
                0x20007460      0x600 load address 0x0800b770
                0x20007460                . = ALIGN (0x8)
                0x20007460                PROVIDE (end = .)
                [!provide]                PROVIDE (_end = .)
                0x20007660                . = (. + _Min_Heap_Size)
 *fill*         0x20007460      0x200 
                0x20007a60                . = (. + _Min_Stack_Size)
 *fill*         0x20007660      0x400 
                0x20007a60                . = ALIGN (0x8)

/DISCARD/
 libc.a(*)
 libm.a(*)
 libgcc.a(*)

.ARM.attributes
                0x00000000       0x30
 *(.ARM.attributes)
 .ARM.attributes
                0x00000000       0x1e c:/progra~2/gnutoo~1/82019-~1/bin/../lib/gcc/arm-none-eabi/8.3.1/thumb/v7e-m+fp/hard/crti.o
 .ARM.attributes
                0x0000001e       0x34 c:/progra~2/gnutoo~1/82019-~1/bin/../lib/gcc/arm-none-eabi/8.3.1/thumb/v7e-m+fp/hard/crtbegin.o
 .ARM.attributes
                0x00000052       0x34 CMakeFiles/STM32Cube.elf.dir/Core/Src/main.c.obj
 .ARM.attributes
                0x00000086       0x34 CMakeFiles/STM32Cube.elf.dir/Core/Src/stm32l4xx_hal_msp.c.obj
 .ARM.attributes
                0x000000ba       0x34 CMakeFiles/STM32Cube.elf.dir/Core/Src/stm32l4xx_hal_timebase_tim.c.obj
 .ARM.attributes
                0x000000ee       0x34 CMakeFiles/STM32Cube.elf.dir/Core/Src/stm32l4xx_it.c.obj
 .ARM.attributes
                0x00000122       0x34 CMakeFiles/STM32Cube.elf.dir/Core/Src/syscalls.c.obj
 .ARM.attributes
                0x00000156       0x34 CMakeFiles/STM32Cube.elf.dir/Core/Src/system_stm32l4xx.c.obj
 .ARM.attributes
                0x0000018a       0x34 CMakeFiles/STM32Cube.elf.dir/Drivers/STM32L4xx_HAL_Driver/Src/stm32l4xx_hal.c.obj
 .ARM.attributes
                0x000001be       0x34 CMakeFiles/STM32Cube.elf.dir/Drivers/STM32L4xx_HAL_Driver/Src/stm32l4xx_hal_adc.c.obj
 .ARM.attributes
                0x000001f2       0x34 CMakeFiles/STM32Cube.elf.dir/Drivers/STM32L4xx_HAL_Driver/Src/stm32l4xx_hal_cortex.c.obj
 .ARM.attributes
                0x00000226       0x34 CMakeFiles/STM32Cube.elf.dir/Drivers/STM32L4xx_HAL_Driver/Src/stm32l4xx_hal_dma.c.obj
 .ARM.attributes
                0x0000025a       0x34 CMakeFiles/STM32Cube.elf.dir/Drivers/STM32L4xx_HAL_Driver/Src/stm32l4xx_hal_gpio.c.obj
 .ARM.attributes
                0x0000028e       0x34 CMakeFiles/STM32Cube.elf.dir/Drivers/STM32L4xx_HAL_Driver/Src/stm32l4xx_hal_pwr.c.obj
 .ARM.attributes
                0x000002c2       0x34 CMakeFiles/STM32Cube.elf.dir/Drivers/STM32L4xx_HAL_Driver/Src/stm32l4xx_hal_pwr_ex.c.obj
 .ARM.attributes
                0x000002f6       0x34 CMakeFiles/STM32Cube.elf.dir/Drivers/STM32L4xx_HAL_Driver/Src/stm32l4xx_hal_rcc.c.obj
 .ARM.attributes
                0x0000032a       0x34 CMakeFiles/STM32Cube.elf.dir/Drivers/STM32L4xx_HAL_Driver/Src/stm32l4xx_hal_rcc_ex.c.obj
 .ARM.attributes
                0x0000035e       0x34 CMakeFiles/STM32Cube.elf.dir/Drivers/STM32L4xx_HAL_Driver/Src/stm32l4xx_hal_spi.c.obj
 .ARM.attributes
                0x00000392       0x34 CMakeFiles/STM32Cube.elf.dir/Drivers/STM32L4xx_HAL_Driver/Src/stm32l4xx_hal_tim.c.obj
 .ARM.attributes
                0x000003c6       0x34 CMakeFiles/STM32Cube.elf.dir/Drivers/STM32L4xx_HAL_Driver/Src/stm32l4xx_hal_tim_ex.c.obj
 .ARM.attributes
                0x000003fa       0x34 CMakeFiles/STM32Cube.elf.dir/Drivers/STM32L4xx_HAL_Driver/Src/stm32l4xx_hal_uart.c.obj
 .ARM.attributes
                0x0000042e       0x34 CMakeFiles/STM32Cube.elf.dir/Drivers/STM32L4xx_HAL_Driver/Src/stm32l4xx_hal_uart_ex.c.obj
 .ARM.attributes
                0x00000462       0x34 CMakeFiles/STM32Cube.elf.dir/Middlewares/Third_Party/FreeRTOS/Source/CMSIS_RTOS_V2/cmsis_os2.c.obj
 .ARM.attributes
                0x00000496       0x34 CMakeFiles/STM32Cube.elf.dir/Middlewares/Third_Party/FreeRTOS/Source/list.c.obj
 .ARM.attributes
                0x000004ca       0x34 CMakeFiles/STM32Cube.elf.dir/Middlewares/Third_Party/FreeRTOS/Source/portable/GCC/ARM_CM4F/port.c.obj
 .ARM.attributes
                0x000004fe       0x34 CMakeFiles/STM32Cube.elf.dir/Middlewares/Third_Party/FreeRTOS/Source/portable/MemMang/heap_4.c.obj
 .ARM.attributes
                0x00000532       0x34 CMakeFiles/STM32Cube.elf.dir/Middlewares/Third_Party/FreeRTOS/Source/queue.c.obj
 .ARM.attributes
                0x00000566       0x34 CMakeFiles/STM32Cube.elf.dir/Middlewares/Third_Party/FreeRTOS/Source/tasks.c.obj
 .ARM.attributes
                0x0000059a       0x34 CMakeFiles/STM32Cube.elf.dir/Middlewares/Third_Party/FreeRTOS/Source/timers.c.obj
 .ARM.attributes
                0x000005ce       0x21 CMakeFiles/STM32Cube.elf.dir/startup/startup_stm32l432xx.s.obj
 .ARM.attributes
                0x000005ef       0x1e c:/progra~2/gnutoo~1/82019-~1/bin/../lib/gcc/arm-none-eabi/8.3.1/thumb/v7e-m+fp/hard\libgcc.a(_aeabi_uldivmod.o)
 .ARM.attributes
                0x0000060d       0x34 c:/progra~2/gnutoo~1/82019-~1/bin/../lib/gcc/arm-none-eabi/8.3.1/thumb/v7e-m+fp/hard\libgcc.a(_udivmoddi4.o)
 .ARM.attributes
                0x00000641       0x1e c:/progra~2/gnutoo~1/82019-~1/bin/../lib/gcc/arm-none-eabi/8.3.1/thumb/v7e-m+fp/hard\libgcc.a(_dvmd_tls.o)
 .ARM.attributes
                0x0000065f       0x34 c:/progra~2/gnutoo~1/82019-~1/bin/../lib/gcc/arm-none-eabi/8.3.1/../../../../arm-none-eabi/lib/thumb/v7e-m+fp/hard\libg.a(lib_a-errno.o)
 .ARM.attributes
                0x00000693       0x32 c:/progra~2/gnutoo~1/82019-~1/bin/../lib/gcc/arm-none-eabi/8.3.1/../../../../arm-none-eabi/lib/thumb/v7e-m+fp/hard\libg.a(lib_a-impure.o)
 .ARM.attributes
                0x000006c5       0x34 c:/progra~2/gnutoo~1/82019-~1/bin/../lib/gcc/arm-none-eabi/8.3.1/../../../../arm-none-eabi/lib/thumb/v7e-m+fp/hard\libg.a(lib_a-init.o)
 .ARM.attributes
                0x000006f9       0x1c c:/progra~2/gnutoo~1/82019-~1/bin/../lib/gcc/arm-none-eabi/8.3.1/../../../../arm-none-eabi/lib/thumb/v7e-m+fp/hard\libg.a(lib_a-memcpy.o)
 .ARM.attributes
                0x00000715       0x34 c:/progra~2/gnutoo~1/82019-~1/bin/../lib/gcc/arm-none-eabi/8.3.1/../../../../arm-none-eabi/lib/thumb/v7e-m+fp/hard\libg.a(lib_a-memset.o)
 .ARM.attributes
                0x00000749       0x34 c:/progra~2/gnutoo~1/82019-~1/bin/../lib/gcc/arm-none-eabi/8.3.1/../../../../arm-none-eabi/lib/thumb/v7e-m+fp/hard\libg.a(lib_a-sprintf.o)
 .ARM.attributes
                0x0000077d       0x34 c:/progra~2/gnutoo~1/82019-~1/bin/../lib/gcc/arm-none-eabi/8.3.1/../../../../arm-none-eabi/lib/thumb/v7e-m+fp/hard\libg.a(lib_a-svfprintf.o)
 .ARM.attributes
                0x000007b1       0x34 c:/progra~2/gnutoo~1/82019-~1/bin/../lib/gcc/arm-none-eabi/8.3.1/../../../../arm-none-eabi/lib/thumb/v7e-m+fp/hard\libg.a(lib_a-__call_atexit.o)
 .ARM.attributes
                0x000007e5       0x34 c:/progra~2/gnutoo~1/82019-~1/bin/../lib/gcc/arm-none-eabi/8.3.1/../../../../arm-none-eabi/lib/thumb/v7e-m+fp/hard\libg.a(lib_a-atexit.o)
 .ARM.attributes
                0x00000819       0x34 c:/progra~2/gnutoo~1/82019-~1/bin/../lib/gcc/arm-none-eabi/8.3.1/../../../../arm-none-eabi/lib/thumb/v7e-m+fp/hard\libg.a(lib_a-dtoa.o)
 .ARM.attributes
                0x0000084d       0x34 c:/progra~2/gnutoo~1/82019-~1/bin/../lib/gcc/arm-none-eabi/8.3.1/../../../../arm-none-eabi/lib/thumb/v7e-m+fp/hard\libg.a(lib_a-fini.o)
 .ARM.attributes
                0x00000881       0x34 c:/progra~2/gnutoo~1/82019-~1/bin/../lib/gcc/arm-none-eabi/8.3.1/../../../../arm-none-eabi/lib/thumb/v7e-m+fp/hard\libg.a(lib_a-freer.o)
 .ARM.attributes
                0x000008b5       0x34 c:/progra~2/gnutoo~1/82019-~1/bin/../lib/gcc/arm-none-eabi/8.3.1/../../../../arm-none-eabi/lib/thumb/v7e-m+fp/hard\libg.a(lib_a-localeconv.o)
 .ARM.attributes
                0x000008e9       0x34 c:/progra~2/gnutoo~1/82019-~1/bin/../lib/gcc/arm-none-eabi/8.3.1/../../../../arm-none-eabi/lib/thumb/v7e-m+fp/hard\libg.a(lib_a-lock.o)
 .ARM.attributes
                0x0000091d       0x34 c:/progra~2/gnutoo~1/82019-~1/bin/../lib/gcc/arm-none-eabi/8.3.1/../../../../arm-none-eabi/lib/thumb/v7e-m+fp/hard\libg.a(lib_a-mallocr.o)
 .ARM.attributes
                0x00000951       0x1c c:/progra~2/gnutoo~1/82019-~1/bin/../lib/gcc/arm-none-eabi/8.3.1/../../../../arm-none-eabi/lib/thumb/v7e-m+fp/hard\libg.a(lib_a-memchr.o)
 .ARM.attributes
                0x0000096d       0x34 c:/progra~2/gnutoo~1/82019-~1/bin/../lib/gcc/arm-none-eabi/8.3.1/../../../../arm-none-eabi/lib/thumb/v7e-m+fp/hard\libg.a(lib_a-mlock.o)
 .ARM.attributes
                0x000009a1       0x34 c:/progra~2/gnutoo~1/82019-~1/bin/../lib/gcc/arm-none-eabi/8.3.1/../../../../arm-none-eabi/lib/thumb/v7e-m+fp/hard\libg.a(lib_a-mprec.o)
 .ARM.attributes
                0x000009d5       0x34 c:/progra~2/gnutoo~1/82019-~1/bin/../lib/gcc/arm-none-eabi/8.3.1/../../../../arm-none-eabi/lib/thumb/v7e-m+fp/hard\libg.a(lib_a-s_frexp.o)
 .ARM.attributes
                0x00000a09       0x34 c:/progra~2/gnutoo~1/82019-~1/bin/../lib/gcc/arm-none-eabi/8.3.1/../../../../arm-none-eabi/lib/thumb/v7e-m+fp/hard\libg.a(lib_a-sbrkr.o)
 .ARM.attributes
                0x00000a3d       0x1c c:/progra~2/gnutoo~1/82019-~1/bin/../lib/gcc/arm-none-eabi/8.3.1/../../../../arm-none-eabi/lib/thumb/v7e-m+fp/hard\libg.a(lib_a-strlen.o)
 .ARM.attributes
                0x00000a59       0x34 c:/progra~2/gnutoo~1/82019-~1/bin/../lib/gcc/arm-none-eabi/8.3.1/../../../../arm-none-eabi/lib/thumb/v7e-m+fp/hard\libg.a(lib_a-strncpy.o)
 .ARM.attributes
                0x00000a8d       0x34 c:/progra~2/gnutoo~1/82019-~1/bin/../lib/gcc/arm-none-eabi/8.3.1/../../../../arm-none-eabi/lib/thumb/v7e-m+fp/hard\libg.a(lib_a-svfiprintf.o)
 .ARM.attributes
                0x00000ac1       0x34 c:/progra~2/gnutoo~1/82019-~1/bin/../lib/gcc/arm-none-eabi/8.3.1/../../../../arm-none-eabi/lib/thumb/v7e-m+fp/hard\libg.a(lib_a-__atexit.o)
 .ARM.attributes
                0x00000af5       0x34 c:/progra~2/gnutoo~1/82019-~1/bin/../lib/gcc/arm-none-eabi/8.3.1/../../../../arm-none-eabi/lib/thumb/v7e-m+fp/hard\libg.a(lib_a-callocr.o)
 .ARM.attributes
                0x00000b29       0x34 c:/progra~2/gnutoo~1/82019-~1/bin/../lib/gcc/arm-none-eabi/8.3.1/../../../../arm-none-eabi/lib/thumb/v7e-m+fp/hard\libg.a(lib_a-locale.o)
 .ARM.attributes
                0x00000b5d       0x34 c:/progra~2/gnutoo~1/82019-~1/bin/../lib/gcc/arm-none-eabi/8.3.1/../../../../arm-none-eabi/lib/thumb/v7e-m+fp/hard\libg.a(lib_a-mbtowc_r.o)
 .ARM.attributes
                0x00000b91       0x34 c:/progra~2/gnutoo~1/82019-~1/bin/../lib/gcc/arm-none-eabi/8.3.1/../../../../arm-none-eabi/lib/thumb/v7e-m+fp/hard\libg.a(lib_a-memmove.o)
 .ARM.attributes
                0x00000bc5       0x34 c:/progra~2/gnutoo~1/82019-~1/bin/../lib/gcc/arm-none-eabi/8.3.1/../../../../arm-none-eabi/lib/thumb/v7e-m+fp/hard\libg.a(lib_a-reallocr.o)
 .ARM.attributes
                0x00000bf9       0x34 c:/progra~2/gnutoo~1/82019-~1/bin/../lib/gcc/arm-none-eabi/8.3.1/../../../../arm-none-eabi/lib/thumb/v7e-m+fp/hard\libg.a(lib_a-reent.o)
 .ARM.attributes
                0x00000c2d       0x34 c:/progra~2/gnutoo~1/82019-~1/bin/../lib/gcc/arm-none-eabi/8.3.1/../../../../arm-none-eabi/lib/thumb/v7e-m+fp/hard\libg.a(lib_a-wctomb_r.o)
 .ARM.attributes
                0x00000c61       0x32 c:/progra~2/gnutoo~1/82019-~1/bin/../lib/gcc/arm-none-eabi/8.3.1/../../../../arm-none-eabi/lib/thumb/v7e-m+fp/hard\libg.a(lib_a-ctype_.o)
 .ARM.attributes
                0x00000c93       0x1e c:/progra~2/gnutoo~1/82019-~1/bin/../lib/gcc/arm-none-eabi/8.3.1/thumb/v7e-m+fp/hard\libgcc.a(_arm_addsubdf3.o)
 .ARM.attributes
                0x00000cb1       0x1e c:/progra~2/gnutoo~1/82019-~1/bin/../lib/gcc/arm-none-eabi/8.3.1/thumb/v7e-m+fp/hard\libgcc.a(_arm_muldivdf3.o)
 .ARM.attributes
                0x00000ccf       0x1e c:/progra~2/gnutoo~1/82019-~1/bin/../lib/gcc/arm-none-eabi/8.3.1/thumb/v7e-m+fp/hard\libgcc.a(_arm_cmpdf2.o)
 .ARM.attributes
                0x00000ced       0x1e c:/progra~2/gnutoo~1/82019-~1/bin/../lib/gcc/arm-none-eabi/8.3.1/thumb/v7e-m+fp/hard\libgcc.a(_arm_unorddf2.o)
 .ARM.attributes
                0x00000d0b       0x1e c:/progra~2/gnutoo~1/82019-~1/bin/../lib/gcc/arm-none-eabi/8.3.1/thumb/v7e-m+fp/hard\libgcc.a(_arm_fixdfsi.o)
 .ARM.attributes
                0x00000d29       0x1e c:/progra~2/gnutoo~1/82019-~1/bin/../lib/gcc/arm-none-eabi/8.3.1/thumb/v7e-m+fp/hard/crtn.o
OUTPUT(STM32Cube.elf elf32-littlearm)

.debug_info     0x00000000    0x2dfd3
 .debug_info    0x00000000     0x360c CMakeFiles/STM32Cube.elf.dir/Core/Src/main.c.obj
 .debug_info    0x0000360c     0x1917 CMakeFiles/STM32Cube.elf.dir/Core/Src/stm32l4xx_hal_msp.c.obj
 .debug_info    0x00004f23      0xe9b CMakeFiles/STM32Cube.elf.dir/Core/Src/stm32l4xx_hal_timebase_tim.c.obj
 .debug_info    0x00005dbe      0xd59 CMakeFiles/STM32Cube.elf.dir/Core/Src/stm32l4xx_it.c.obj
 .debug_info    0x00006b17     0x112a CMakeFiles/STM32Cube.elf.dir/Core/Src/syscalls.c.obj
 .debug_info    0x00007c41      0x7bc CMakeFiles/STM32Cube.elf.dir/Core/Src/system_stm32l4xx.c.obj
 .debug_info    0x000083fd      0xc2e CMakeFiles/STM32Cube.elf.dir/Drivers/STM32L4xx_HAL_Driver/Src/stm32l4xx_hal.c.obj
 .debug_info    0x0000902b     0x346d CMakeFiles/STM32Cube.elf.dir/Drivers/STM32L4xx_HAL_Driver/Src/stm32l4xx_hal_adc.c.obj
 .debug_info    0x0000c498     0x123f CMakeFiles/STM32Cube.elf.dir/Drivers/STM32L4xx_HAL_Driver/Src/stm32l4xx_hal_cortex.c.obj
 .debug_info    0x0000d6d7      0xa87 CMakeFiles/STM32Cube.elf.dir/Drivers/STM32L4xx_HAL_Driver/Src/stm32l4xx_hal_dma.c.obj
 .debug_info    0x0000e15e      0xa95 CMakeFiles/STM32Cube.elf.dir/Drivers/STM32L4xx_HAL_Driver/Src/stm32l4xx_hal_gpio.c.obj
 .debug_info    0x0000ebf3      0xbb8 CMakeFiles/STM32Cube.elf.dir/Drivers/STM32L4xx_HAL_Driver/Src/stm32l4xx_hal_pwr.c.obj
 .debug_info    0x0000f7ab      0xc33 CMakeFiles/STM32Cube.elf.dir/Drivers/STM32L4xx_HAL_Driver/Src/stm32l4xx_hal_pwr_ex.c.obj
 .debug_info    0x000103de     0x107b CMakeFiles/STM32Cube.elf.dir/Drivers/STM32L4xx_HAL_Driver/Src/stm32l4xx_hal_rcc.c.obj
 .debug_info    0x00011459     0x1431 CMakeFiles/STM32Cube.elf.dir/Drivers/STM32L4xx_HAL_Driver/Src/stm32l4xx_hal_rcc_ex.c.obj
 .debug_info    0x0001288a     0x2356 CMakeFiles/STM32Cube.elf.dir/Drivers/STM32L4xx_HAL_Driver/Src/stm32l4xx_hal_spi.c.obj
 .debug_info    0x00014be0     0x3ec6 CMakeFiles/STM32Cube.elf.dir/Drivers/STM32L4xx_HAL_Driver/Src/stm32l4xx_hal_tim.c.obj
 .debug_info    0x00018aa6     0x1dd8 CMakeFiles/STM32Cube.elf.dir/Drivers/STM32L4xx_HAL_Driver/Src/stm32l4xx_hal_tim_ex.c.obj
 .debug_info    0x0001a87e     0x2170 CMakeFiles/STM32Cube.elf.dir/Drivers/STM32L4xx_HAL_Driver/Src/stm32l4xx_hal_uart.c.obj
 .debug_info    0x0001c9ee      0xc08 CMakeFiles/STM32Cube.elf.dir/Drivers/STM32L4xx_HAL_Driver/Src/stm32l4xx_hal_uart_ex.c.obj
 .debug_info    0x0001d5f6     0x599f CMakeFiles/STM32Cube.elf.dir/Middlewares/Third_Party/FreeRTOS/Source/CMSIS_RTOS_V2/cmsis_os2.c.obj
 .debug_info    0x00022f95      0xb91 CMakeFiles/STM32Cube.elf.dir/Middlewares/Third_Party/FreeRTOS/Source/list.c.obj
 .debug_info    0x00023b26      0x5ff CMakeFiles/STM32Cube.elf.dir/Middlewares/Third_Party/FreeRTOS/Source/portable/GCC/ARM_CM4F/port.c.obj
 .debug_info    0x00024125      0xd73 CMakeFiles/STM32Cube.elf.dir/Middlewares/Third_Party/FreeRTOS/Source/portable/MemMang/heap_4.c.obj
 .debug_info    0x00024e98     0x3296 CMakeFiles/STM32Cube.elf.dir/Middlewares/Third_Party/FreeRTOS/Source/queue.c.obj
 .debug_info    0x0002812e     0x3b15 CMakeFiles/STM32Cube.elf.dir/Middlewares/Third_Party/FreeRTOS/Source/tasks.c.obj
 .debug_info    0x0002bc43     0x236e CMakeFiles/STM32Cube.elf.dir/Middlewares/Third_Party/FreeRTOS/Source/timers.c.obj
 .debug_info    0x0002dfb1       0x22 CMakeFiles/STM32Cube.elf.dir/startup/startup_stm32l432xx.s.obj

.debug_abbrev   0x00000000     0x48c1
 .debug_abbrev  0x00000000      0x390 CMakeFiles/STM32Cube.elf.dir/Core/Src/main.c.obj
 .debug_abbrev  0x00000390      0x228 CMakeFiles/STM32Cube.elf.dir/Core/Src/stm32l4xx_hal_msp.c.obj
 .debug_abbrev  0x000005b8      0x219 CMakeFiles/STM32Cube.elf.dir/Core/Src/stm32l4xx_hal_timebase_tim.c.obj
 .debug_abbrev  0x000007d1      0x193 CMakeFiles/STM32Cube.elf.dir/Core/Src/stm32l4xx_it.c.obj
 .debug_abbrev  0x00000964      0x31e CMakeFiles/STM32Cube.elf.dir/Core/Src/syscalls.c.obj
 .debug_abbrev  0x00000c82      0x171 CMakeFiles/STM32Cube.elf.dir/Core/Src/system_stm32l4xx.c.obj
 .debug_abbrev  0x00000df3      0x239 CMakeFiles/STM32Cube.elf.dir/Drivers/STM32L4xx_HAL_Driver/Src/stm32l4xx_hal.c.obj
 .debug_abbrev  0x0000102c      0x2db CMakeFiles/STM32Cube.elf.dir/Drivers/STM32L4xx_HAL_Driver/Src/stm32l4xx_hal_adc.c.obj
 .debug_abbrev  0x00001307      0x39b CMakeFiles/STM32Cube.elf.dir/Drivers/STM32L4xx_HAL_Driver/Src/stm32l4xx_hal_cortex.c.obj
 .debug_abbrev  0x000016a2      0x259 CMakeFiles/STM32Cube.elf.dir/Drivers/STM32L4xx_HAL_Driver/Src/stm32l4xx_hal_dma.c.obj
 .debug_abbrev  0x000018fb      0x213 CMakeFiles/STM32Cube.elf.dir/Drivers/STM32L4xx_HAL_Driver/Src/stm32l4xx_hal_gpio.c.obj
 .debug_abbrev  0x00001b0e      0x1be CMakeFiles/STM32Cube.elf.dir/Drivers/STM32L4xx_HAL_Driver/Src/stm32l4xx_hal_pwr.c.obj
 .debug_abbrev  0x00001ccc      0x228 CMakeFiles/STM32Cube.elf.dir/Drivers/STM32L4xx_HAL_Driver/Src/stm32l4xx_hal_pwr_ex.c.obj
 .debug_abbrev  0x00001ef4      0x251 CMakeFiles/STM32Cube.elf.dir/Drivers/STM32L4xx_HAL_Driver/Src/stm32l4xx_hal_rcc.c.obj
 .debug_abbrev  0x00002145      0x288 CMakeFiles/STM32Cube.elf.dir/Drivers/STM32L4xx_HAL_Driver/Src/stm32l4xx_hal_rcc_ex.c.obj
 .debug_abbrev  0x000023cd      0x267 CMakeFiles/STM32Cube.elf.dir/Drivers/STM32L4xx_HAL_Driver/Src/stm32l4xx_hal_spi.c.obj
 .debug_abbrev  0x00002634      0x269 CMakeFiles/STM32Cube.elf.dir/Drivers/STM32L4xx_HAL_Driver/Src/stm32l4xx_hal_tim.c.obj
 .debug_abbrev  0x0000289d      0x26e CMakeFiles/STM32Cube.elf.dir/Drivers/STM32L4xx_HAL_Driver/Src/stm32l4xx_hal_tim_ex.c.obj
 .debug_abbrev  0x00002b0b      0x270 CMakeFiles/STM32Cube.elf.dir/Drivers/STM32L4xx_HAL_Driver/Src/stm32l4xx_hal_uart.c.obj
 .debug_abbrev  0x00002d7b      0x24a CMakeFiles/STM32Cube.elf.dir/Drivers/STM32L4xx_HAL_Driver/Src/stm32l4xx_hal_uart_ex.c.obj
 .debug_abbrev  0x00002fc5      0x4d8 CMakeFiles/STM32Cube.elf.dir/Middlewares/Third_Party/FreeRTOS/Source/CMSIS_RTOS_V2/cmsis_os2.c.obj
 .debug_abbrev  0x0000349d      0x249 CMakeFiles/STM32Cube.elf.dir/Middlewares/Third_Party/FreeRTOS/Source/list.c.obj
 .debug_abbrev  0x000036e6      0x274 CMakeFiles/STM32Cube.elf.dir/Middlewares/Third_Party/FreeRTOS/Source/portable/GCC/ARM_CM4F/port.c.obj
 .debug_abbrev  0x0000395a      0x37b CMakeFiles/STM32Cube.elf.dir/Middlewares/Third_Party/FreeRTOS/Source/portable/MemMang/heap_4.c.obj
 .debug_abbrev  0x00003cd5      0x413 CMakeFiles/STM32Cube.elf.dir/Middlewares/Third_Party/FreeRTOS/Source/queue.c.obj
 .debug_abbrev  0x000040e8      0x41b CMakeFiles/STM32Cube.elf.dir/Middlewares/Third_Party/FreeRTOS/Source/tasks.c.obj
 .debug_abbrev  0x00004503      0x3ac CMakeFiles/STM32Cube.elf.dir/Middlewares/Third_Party/FreeRTOS/Source/timers.c.obj
 .debug_abbrev  0x000048af       0x12 CMakeFiles/STM32Cube.elf.dir/startup/startup_stm32l432xx.s.obj

.debug_loc      0x00000000    0x1d273
 .debug_loc     0x00000000      0x5d3 CMakeFiles/STM32Cube.elf.dir/Core/Src/main.c.obj
 .debug_loc     0x000005d3      0x1ad CMakeFiles/STM32Cube.elf.dir/Core/Src/stm32l4xx_hal_msp.c.obj
 .debug_loc     0x00000780       0x89 CMakeFiles/STM32Cube.elf.dir/Core/Src/stm32l4xx_hal_timebase_tim.c.obj
 .debug_loc     0x00000809      0x436 CMakeFiles/STM32Cube.elf.dir/Core/Src/syscalls.c.obj
 .debug_loc     0x00000c3f      0x1fc CMakeFiles/STM32Cube.elf.dir/Core/Src/system_stm32l4xx.c.obj
 .debug_loc     0x00000e3b      0x1cd CMakeFiles/STM32Cube.elf.dir/Drivers/STM32L4xx_HAL_Driver/Src/stm32l4xx_hal.c.obj
 .debug_loc     0x00001008     0x2516 CMakeFiles/STM32Cube.elf.dir/Drivers/STM32L4xx_HAL_Driver/Src/stm32l4xx_hal_adc.c.obj
 .debug_loc     0x0000351e      0x700 CMakeFiles/STM32Cube.elf.dir/Drivers/STM32L4xx_HAL_Driver/Src/stm32l4xx_hal_cortex.c.obj
 .debug_loc     0x00003c1e      0x878 CMakeFiles/STM32Cube.elf.dir/Drivers/STM32L4xx_HAL_Driver/Src/stm32l4xx_hal_dma.c.obj
 .debug_loc     0x00004496      0x3bf CMakeFiles/STM32Cube.elf.dir/Drivers/STM32L4xx_HAL_Driver/Src/stm32l4xx_hal_gpio.c.obj
 .debug_loc     0x00004855      0x18c CMakeFiles/STM32Cube.elf.dir/Drivers/STM32L4xx_HAL_Driver/Src/stm32l4xx_hal_pwr.c.obj
 .debug_loc     0x000049e1      0x734 CMakeFiles/STM32Cube.elf.dir/Drivers/STM32L4xx_HAL_Driver/Src/stm32l4xx_hal_pwr_ex.c.obj
 .debug_loc     0x00005115      0x851 CMakeFiles/STM32Cube.elf.dir/Drivers/STM32L4xx_HAL_Driver/Src/stm32l4xx_hal_rcc.c.obj
 .debug_loc     0x00005966     0x173f CMakeFiles/STM32Cube.elf.dir/Drivers/STM32L4xx_HAL_Driver/Src/stm32l4xx_hal_rcc_ex.c.obj
 .debug_loc     0x000070a5     0x2087 CMakeFiles/STM32Cube.elf.dir/Drivers/STM32L4xx_HAL_Driver/Src/stm32l4xx_hal_spi.c.obj
 .debug_loc     0x0000912c     0x56cb CMakeFiles/STM32Cube.elf.dir/Drivers/STM32L4xx_HAL_Driver/Src/stm32l4xx_hal_tim.c.obj
 .debug_loc     0x0000e7f7     0x2484 CMakeFiles/STM32Cube.elf.dir/Drivers/STM32L4xx_HAL_Driver/Src/stm32l4xx_hal_tim_ex.c.obj
 .debug_loc     0x00010c7b     0x1c6e CMakeFiles/STM32Cube.elf.dir/Drivers/STM32L4xx_HAL_Driver/Src/stm32l4xx_hal_uart.c.obj
 .debug_loc     0x000128e9      0x37e CMakeFiles/STM32Cube.elf.dir/Drivers/STM32L4xx_HAL_Driver/Src/stm32l4xx_hal_uart_ex.c.obj
 .debug_loc     0x00012c67     0x508f CMakeFiles/STM32Cube.elf.dir/Middlewares/Third_Party/FreeRTOS/Source/CMSIS_RTOS_V2/cmsis_os2.c.obj
 .debug_loc     0x00017cf6       0x93 CMakeFiles/STM32Cube.elf.dir/Middlewares/Third_Party/FreeRTOS/Source/list.c.obj
 .debug_loc     0x00017d89      0x124 CMakeFiles/STM32Cube.elf.dir/Middlewares/Third_Party/FreeRTOS/Source/portable/GCC/ARM_CM4F/port.c.obj
 .debug_loc     0x00017ead      0x324 CMakeFiles/STM32Cube.elf.dir/Middlewares/Third_Party/FreeRTOS/Source/portable/MemMang/heap_4.c.obj
 .debug_loc     0x000181d1     0x1bf5 CMakeFiles/STM32Cube.elf.dir/Middlewares/Third_Party/FreeRTOS/Source/queue.c.obj
 .debug_loc     0x00019dc6     0x24b7 CMakeFiles/STM32Cube.elf.dir/Middlewares/Third_Party/FreeRTOS/Source/tasks.c.obj
 .debug_loc     0x0001c27d      0xff6 CMakeFiles/STM32Cube.elf.dir/Middlewares/Third_Party/FreeRTOS/Source/timers.c.obj

.debug_aranges  0x00000000     0x1a58
 .debug_aranges
                0x00000000       0xa0 CMakeFiles/STM32Cube.elf.dir/Core/Src/main.c.obj
 .debug_aranges
                0x000000a0       0x50 CMakeFiles/STM32Cube.elf.dir/Core/Src/stm32l4xx_hal_msp.c.obj
 .debug_aranges
                0x000000f0       0x30 CMakeFiles/STM32Cube.elf.dir/Core/Src/stm32l4xx_hal_timebase_tim.c.obj
 .debug_aranges
                0x00000120       0x70 CMakeFiles/STM32Cube.elf.dir/Core/Src/stm32l4xx_it.c.obj
 .debug_aranges
                0x00000190       0xb0 CMakeFiles/STM32Cube.elf.dir/Core/Src/syscalls.c.obj
 .debug_aranges
                0x00000240       0x28 CMakeFiles/STM32Cube.elf.dir/Core/Src/system_stm32l4xx.c.obj
 .debug_aranges
                0x00000268      0x108 CMakeFiles/STM32Cube.elf.dir/Drivers/STM32L4xx_HAL_Driver/Src/stm32l4xx_hal.c.obj
 .debug_aranges
                0x00000370       0xf8 CMakeFiles/STM32Cube.elf.dir/Drivers/STM32L4xx_HAL_Driver/Src/stm32l4xx_hal_adc.c.obj
 .debug_aranges
                0x00000468       0xa8 CMakeFiles/STM32Cube.elf.dir/Drivers/STM32L4xx_HAL_Driver/Src/stm32l4xx_hal_cortex.c.obj
 .debug_aranges
                0x00000510       0x80 CMakeFiles/STM32Cube.elf.dir/Drivers/STM32L4xx_HAL_Driver/Src/stm32l4xx_hal_dma.c.obj
 .debug_aranges
                0x00000590       0x58 CMakeFiles/STM32Cube.elf.dir/Drivers/STM32L4xx_HAL_Driver/Src/stm32l4xx_hal_gpio.c.obj
 .debug_aranges
                0x000005e8       0x98 CMakeFiles/STM32Cube.elf.dir/Drivers/STM32L4xx_HAL_Driver/Src/stm32l4xx_hal_pwr.c.obj
 .debug_aranges
                0x00000680      0x128 CMakeFiles/STM32Cube.elf.dir/Drivers/STM32L4xx_HAL_Driver/Src/stm32l4xx_hal_pwr_ex.c.obj
 .debug_aranges
                0x000007a8       0x88 CMakeFiles/STM32Cube.elf.dir/Drivers/STM32L4xx_HAL_Driver/Src/stm32l4xx_hal_rcc.c.obj
 .debug_aranges
                0x00000830       0xf0 CMakeFiles/STM32Cube.elf.dir/Drivers/STM32L4xx_HAL_Driver/Src/stm32l4xx_hal_rcc_ex.c.obj
 .debug_aranges
                0x00000920      0x1d8 CMakeFiles/STM32Cube.elf.dir/Drivers/STM32L4xx_HAL_Driver/Src/stm32l4xx_hal_spi.c.obj
 .debug_aranges
                0x00000af8      0x3e0 CMakeFiles/STM32Cube.elf.dir/Drivers/STM32L4xx_HAL_Driver/Src/stm32l4xx_hal_tim.c.obj
 .debug_aranges
                0x00000ed8      0x180 CMakeFiles/STM32Cube.elf.dir/Drivers/STM32L4xx_HAL_Driver/Src/stm32l4xx_hal_tim_ex.c.obj
 .debug_aranges
                0x00001058      0x210 CMakeFiles/STM32Cube.elf.dir/Drivers/STM32L4xx_HAL_Driver/Src/stm32l4xx_hal_uart.c.obj
 .debug_aranges
                0x00001268       0x60 CMakeFiles/STM32Cube.elf.dir/Drivers/STM32L4xx_HAL_Driver/Src/stm32l4xx_hal_uart_ex.c.obj
 .debug_aranges
                0x000012c8      0x220 CMakeFiles/STM32Cube.elf.dir/Middlewares/Third_Party/FreeRTOS/Source/CMSIS_RTOS_V2/cmsis_os2.c.obj
 .debug_aranges
                0x000014e8       0x40 CMakeFiles/STM32Cube.elf.dir/Middlewares/Third_Party/FreeRTOS/Source/list.c.obj
 .debug_aranges
                0x00001528       0x80 CMakeFiles/STM32Cube.elf.dir/Middlewares/Third_Party/FreeRTOS/Source/portable/GCC/ARM_CM4F/port.c.obj
 .debug_aranges
                0x000015a8       0x50 CMakeFiles/STM32Cube.elf.dir/Middlewares/Third_Party/FreeRTOS/Source/portable/MemMang/heap_4.c.obj
 .debug_aranges
                0x000015f8      0x158 CMakeFiles/STM32Cube.elf.dir/Middlewares/Third_Party/FreeRTOS/Source/queue.c.obj
 .debug_aranges
                0x00001750      0x1f8 CMakeFiles/STM32Cube.elf.dir/Middlewares/Third_Party/FreeRTOS/Source/tasks.c.obj
 .debug_aranges
                0x00001948       0xe8 CMakeFiles/STM32Cube.elf.dir/Middlewares/Third_Party/FreeRTOS/Source/timers.c.obj
 .debug_aranges
                0x00001a30       0x28 CMakeFiles/STM32Cube.elf.dir/startup/startup_stm32l432xx.s.obj

.debug_ranges   0x00000000     0x1c48
 .debug_ranges  0x00000000       0x90 CMakeFiles/STM32Cube.elf.dir/Core/Src/main.c.obj
 .debug_ranges  0x00000090       0x40 CMakeFiles/STM32Cube.elf.dir/Core/Src/stm32l4xx_hal_msp.c.obj
 .debug_ranges  0x000000d0       0x20 CMakeFiles/STM32Cube.elf.dir/Core/Src/stm32l4xx_hal_timebase_tim.c.obj
 .debug_ranges  0x000000f0       0x60 CMakeFiles/STM32Cube.elf.dir/Core/Src/stm32l4xx_it.c.obj
 .debug_ranges  0x00000150       0xa0 CMakeFiles/STM32Cube.elf.dir/Core/Src/syscalls.c.obj
 .debug_ranges  0x000001f0       0x18 CMakeFiles/STM32Cube.elf.dir/Core/Src/system_stm32l4xx.c.obj
 .debug_ranges  0x00000208       0xf8 CMakeFiles/STM32Cube.elf.dir/Drivers/STM32L4xx_HAL_Driver/Src/stm32l4xx_hal.c.obj
 .debug_ranges  0x00000300      0x1f0 CMakeFiles/STM32Cube.elf.dir/Drivers/STM32L4xx_HAL_Driver/Src/stm32l4xx_hal_adc.c.obj
 .debug_ranges  0x000004f0       0xe0 CMakeFiles/STM32Cube.elf.dir/Drivers/STM32L4xx_HAL_Driver/Src/stm32l4xx_hal_cortex.c.obj
 .debug_ranges  0x000005d0       0x70 CMakeFiles/STM32Cube.elf.dir/Drivers/STM32L4xx_HAL_Driver/Src/stm32l4xx_hal_dma.c.obj
 .debug_ranges  0x00000640       0x48 CMakeFiles/STM32Cube.elf.dir/Drivers/STM32L4xx_HAL_Driver/Src/stm32l4xx_hal_gpio.c.obj
 .debug_ranges  0x00000688       0x88 CMakeFiles/STM32Cube.elf.dir/Drivers/STM32L4xx_HAL_Driver/Src/stm32l4xx_hal_pwr.c.obj
 .debug_ranges  0x00000710      0x118 CMakeFiles/STM32Cube.elf.dir/Drivers/STM32L4xx_HAL_Driver/Src/stm32l4xx_hal_pwr_ex.c.obj
 .debug_ranges  0x00000828       0x90 CMakeFiles/STM32Cube.elf.dir/Drivers/STM32L4xx_HAL_Driver/Src/stm32l4xx_hal_rcc.c.obj
 .debug_ranges  0x000008b8       0xf8 CMakeFiles/STM32Cube.elf.dir/Drivers/STM32L4xx_HAL_Driver/Src/stm32l4xx_hal_rcc_ex.c.obj
 .debug_ranges  0x000009b0      0x1c8 CMakeFiles/STM32Cube.elf.dir/Drivers/STM32L4xx_HAL_Driver/Src/stm32l4xx_hal_spi.c.obj
 .debug_ranges  0x00000b78      0x3d0 CMakeFiles/STM32Cube.elf.dir/Drivers/STM32L4xx_HAL_Driver/Src/stm32l4xx_hal_tim.c.obj
 .debug_ranges  0x00000f48      0x170 CMakeFiles/STM32Cube.elf.dir/Drivers/STM32L4xx_HAL_Driver/Src/stm32l4xx_hal_tim_ex.c.obj
 .debug_ranges  0x000010b8      0x200 CMakeFiles/STM32Cube.elf.dir/Drivers/STM32L4xx_HAL_Driver/Src/stm32l4xx_hal_uart.c.obj
 .debug_ranges  0x000012b8       0x50 CMakeFiles/STM32Cube.elf.dir/Drivers/STM32L4xx_HAL_Driver/Src/stm32l4xx_hal_uart_ex.c.obj
 .debug_ranges  0x00001308      0x210 CMakeFiles/STM32Cube.elf.dir/Middlewares/Third_Party/FreeRTOS/Source/CMSIS_RTOS_V2/cmsis_os2.c.obj
 .debug_ranges  0x00001518       0x30 CMakeFiles/STM32Cube.elf.dir/Middlewares/Third_Party/FreeRTOS/Source/list.c.obj
 .debug_ranges  0x00001548       0x88 CMakeFiles/STM32Cube.elf.dir/Middlewares/Third_Party/FreeRTOS/Source/portable/GCC/ARM_CM4F/port.c.obj
 .debug_ranges  0x000015d0       0x40 CMakeFiles/STM32Cube.elf.dir/Middlewares/Third_Party/FreeRTOS/Source/portable/MemMang/heap_4.c.obj
 .debug_ranges  0x00001610      0x218 CMakeFiles/STM32Cube.elf.dir/Middlewares/Third_Party/FreeRTOS/Source/queue.c.obj
 .debug_ranges  0x00001828      0x328 CMakeFiles/STM32Cube.elf.dir/Middlewares/Third_Party/FreeRTOS/Source/tasks.c.obj
 .debug_ranges  0x00001b50       0xd8 CMakeFiles/STM32Cube.elf.dir/Middlewares/Third_Party/FreeRTOS/Source/timers.c.obj
 .debug_ranges  0x00001c28       0x20 CMakeFiles/STM32Cube.elf.dir/startup/startup_stm32l432xx.s.obj

.debug_line     0x00000000    0x1fca7
 .debug_line    0x00000000      0xe07 CMakeFiles/STM32Cube.elf.dir/Core/Src/main.c.obj
 .debug_line    0x00000e07      0x73a CMakeFiles/STM32Cube.elf.dir/Core/Src/stm32l4xx_hal_msp.c.obj
 .debug_line    0x00001541      0x411 CMakeFiles/STM32Cube.elf.dir/Core/Src/stm32l4xx_hal_timebase_tim.c.obj
 .debug_line    0x00001952      0x466 CMakeFiles/STM32Cube.elf.dir/Core/Src/stm32l4xx_it.c.obj
 .debug_line    0x00001db8      0x4f8 CMakeFiles/STM32Cube.elf.dir/Core/Src/syscalls.c.obj
 .debug_line    0x000022b0      0x469 CMakeFiles/STM32Cube.elf.dir/Core/Src/system_stm32l4xx.c.obj
 .debug_line    0x00002719      0x724 CMakeFiles/STM32Cube.elf.dir/Drivers/STM32L4xx_HAL_Driver/Src/stm32l4xx_hal.c.obj
 .debug_line    0x00002e3d     0x219a CMakeFiles/STM32Cube.elf.dir/Drivers/STM32L4xx_HAL_Driver/Src/stm32l4xx_hal_adc.c.obj
 .debug_line    0x00004fd7      0x8e6 CMakeFiles/STM32Cube.elf.dir/Drivers/STM32L4xx_HAL_Driver/Src/stm32l4xx_hal_cortex.c.obj
 .debug_line    0x000058bd      0xb7f CMakeFiles/STM32Cube.elf.dir/Drivers/STM32L4xx_HAL_Driver/Src/stm32l4xx_hal_dma.c.obj
 .debug_line    0x0000643c      0x7ec CMakeFiles/STM32Cube.elf.dir/Drivers/STM32L4xx_HAL_Driver/Src/stm32l4xx_hal_gpio.c.obj
 .debug_line    0x00006c28      0x57d CMakeFiles/STM32Cube.elf.dir/Drivers/STM32L4xx_HAL_Driver/Src/stm32l4xx_hal_pwr.c.obj
 .debug_line    0x000071a5      0xa0f CMakeFiles/STM32Cube.elf.dir/Drivers/STM32L4xx_HAL_Driver/Src/stm32l4xx_hal_pwr_ex.c.obj
 .debug_line    0x00007bb4     0x1005 CMakeFiles/STM32Cube.elf.dir/Drivers/STM32L4xx_HAL_Driver/Src/stm32l4xx_hal_rcc.c.obj
 .debug_line    0x00008bb9     0x13fc CMakeFiles/STM32Cube.elf.dir/Drivers/STM32L4xx_HAL_Driver/Src/stm32l4xx_hal_rcc_ex.c.obj
 .debug_line    0x00009fb5     0x28f7 CMakeFiles/STM32Cube.elf.dir/Drivers/STM32L4xx_HAL_Driver/Src/stm32l4xx_hal_spi.c.obj
 .debug_line    0x0000c8ac     0x4af0 CMakeFiles/STM32Cube.elf.dir/Drivers/STM32L4xx_HAL_Driver/Src/stm32l4xx_hal_tim.c.obj
 .debug_line    0x0001139c     0x1f01 CMakeFiles/STM32Cube.elf.dir/Drivers/STM32L4xx_HAL_Driver/Src/stm32l4xx_hal_tim_ex.c.obj
 .debug_line    0x0001329d     0x226e CMakeFiles/STM32Cube.elf.dir/Drivers/STM32L4xx_HAL_Driver/Src/stm32l4xx_hal_uart.c.obj
 .debug_line    0x0001550b      0x614 CMakeFiles/STM32Cube.elf.dir/Drivers/STM32L4xx_HAL_Driver/Src/stm32l4xx_hal_uart_ex.c.obj
 .debug_line    0x00015b1f     0x2e37 CMakeFiles/STM32Cube.elf.dir/Middlewares/Third_Party/FreeRTOS/Source/CMSIS_RTOS_V2/cmsis_os2.c.obj
 .debug_line    0x00018956      0x54c CMakeFiles/STM32Cube.elf.dir/Middlewares/Third_Party/FreeRTOS/Source/list.c.obj
 .debug_line    0x00018ea2      0x79d CMakeFiles/STM32Cube.elf.dir/Middlewares/Third_Party/FreeRTOS/Source/portable/GCC/ARM_CM4F/port.c.obj
 .debug_line    0x0001963f      0x7d7 CMakeFiles/STM32Cube.elf.dir/Middlewares/Third_Party/FreeRTOS/Source/portable/MemMang/heap_4.c.obj
 .debug_line    0x00019e16     0x20fd CMakeFiles/STM32Cube.elf.dir/Middlewares/Third_Party/FreeRTOS/Source/queue.c.obj
 .debug_line    0x0001bf13     0x2ced CMakeFiles/STM32Cube.elf.dir/Middlewares/Third_Party/FreeRTOS/Source/tasks.c.obj
 .debug_line    0x0001ec00      0xfd5 CMakeFiles/STM32Cube.elf.dir/Middlewares/Third_Party/FreeRTOS/Source/timers.c.obj
 .debug_line    0x0001fbd5       0xd2 CMakeFiles/STM32Cube.elf.dir/startup/startup_stm32l432xx.s.obj

.debug_str      0x00000000     0xa17e
 .debug_str     0x00000000     0x25dc CMakeFiles/STM32Cube.elf.dir/Core/Src/main.c.obj
                               0x278e (size before relaxing)
 .debug_str     0x000025dc      0x12b CMakeFiles/STM32Cube.elf.dir/Core/Src/stm32l4xx_hal_msp.c.obj
                               0x1355 (size before relaxing)
 .debug_str     0x00002707      0x150 CMakeFiles/STM32Cube.elf.dir/Core/Src/stm32l4xx_hal_timebase_tim.c.obj
                               0x105d (size before relaxing)
 .debug_str     0x00002857      0x176 CMakeFiles/STM32Cube.elf.dir/Core/Src/stm32l4xx_it.c.obj
                                0xd06 (size before relaxing)
 .debug_str     0x000029cd      0x2bd CMakeFiles/STM32Cube.elf.dir/Core/Src/syscalls.c.obj
                                0x8fd (size before relaxing)
 .debug_str     0x00002c8a      0x10a CMakeFiles/STM32Cube.elf.dir/Core/Src/system_stm32l4xx.c.obj
                                0x6e0 (size before relaxing)
 .debug_str     0x00002d94      0x355 CMakeFiles/STM32Cube.elf.dir/Drivers/STM32L4xx_HAL_Driver/Src/stm32l4xx_hal.c.obj
                                0xdbe (size before relaxing)
 .debug_str     0x000030e9      0x927 CMakeFiles/STM32Cube.elf.dir/Drivers/STM32L4xx_HAL_Driver/Src/stm32l4xx_hal_adc.c.obj
                               0x13bb (size before relaxing)
 .debug_str     0x00003a10      0x466 CMakeFiles/STM32Cube.elf.dir/Drivers/STM32L4xx_HAL_Driver/Src/stm32l4xx_hal_cortex.c.obj
                                0xe30 (size before relaxing)
 .debug_str     0x00003e76      0x26b CMakeFiles/STM32Cube.elf.dir/Drivers/STM32L4xx_HAL_Driver/Src/stm32l4xx_hal_dma.c.obj
                                0x956 (size before relaxing)
 .debug_str     0x000040e1      0x171 CMakeFiles/STM32Cube.elf.dir/Drivers/STM32L4xx_HAL_Driver/Src/stm32l4xx_hal_gpio.c.obj
                                0x888 (size before relaxing)
 .debug_str     0x00004252      0x2f7 CMakeFiles/STM32Cube.elf.dir/Drivers/STM32L4xx_HAL_Driver/Src/stm32l4xx_hal_pwr.c.obj
                                0x9c8 (size before relaxing)
 .debug_str     0x00004549      0x405 CMakeFiles/STM32Cube.elf.dir/Drivers/STM32L4xx_HAL_Driver/Src/stm32l4xx_hal_pwr_ex.c.obj
                                0xac7 (size before relaxing)
 .debug_str     0x0000494e      0x21c CMakeFiles/STM32Cube.elf.dir/Drivers/STM32L4xx_HAL_Driver/Src/stm32l4xx_hal_rcc.c.obj
                                0xb2f (size before relaxing)
 .debug_str     0x00004b6a      0x47c CMakeFiles/STM32Cube.elf.dir/Drivers/STM32L4xx_HAL_Driver/Src/stm32l4xx_hal_rcc_ex.c.obj
                                0xe9b (size before relaxing)
 .debug_str     0x00004fe6      0x5b1 CMakeFiles/STM32Cube.elf.dir/Drivers/STM32L4xx_HAL_Driver/Src/stm32l4xx_hal_spi.c.obj
                                0xec1 (size before relaxing)
 .debug_str     0x00005597      0xf19 CMakeFiles/STM32Cube.elf.dir/Drivers/STM32L4xx_HAL_Driver/Src/stm32l4xx_hal_tim.c.obj
                               0x19e6 (size before relaxing)
 .debug_str     0x000064b0      0x710 CMakeFiles/STM32Cube.elf.dir/Drivers/STM32L4xx_HAL_Driver/Src/stm32l4xx_hal_tim_ex.c.obj
                               0x1311 (size before relaxing)
 .debug_str     0x00006bc0      0x6de CMakeFiles/STM32Cube.elf.dir/Drivers/STM32L4xx_HAL_Driver/Src/stm32l4xx_hal_uart.c.obj
                               0x1226 (size before relaxing)
 .debug_str     0x0000729e      0x1d7 CMakeFiles/STM32Cube.elf.dir/Drivers/STM32L4xx_HAL_Driver/Src/stm32l4xx_hal_uart_ex.c.obj
                                0xb0a (size before relaxing)
 .debug_str     0x00007475     0x11a2 CMakeFiles/STM32Cube.elf.dir/Middlewares/Third_Party/FreeRTOS/Source/CMSIS_RTOS_V2/cmsis_os2.c.obj
                               0x1df9 (size before relaxing)
 .debug_str     0x00008617      0x18b CMakeFiles/STM32Cube.elf.dir/Middlewares/Third_Party/FreeRTOS/Source/list.c.obj
                                0x7c1 (size before relaxing)
 .debug_str     0x000087a2      0x2b4 CMakeFiles/STM32Cube.elf.dir/Middlewares/Third_Party/FreeRTOS/Source/portable/GCC/ARM_CM4F/port.c.obj
                                0x547 (size before relaxing)
 .debug_str     0x00008a56      0x233 CMakeFiles/STM32Cube.elf.dir/Middlewares/Third_Party/FreeRTOS/Source/portable/MemMang/heap_4.c.obj
                                0x8aa (size before relaxing)
 .debug_str     0x00008c89      0x65a CMakeFiles/STM32Cube.elf.dir/Middlewares/Third_Party/FreeRTOS/Source/queue.c.obj
                               0x11bd (size before relaxing)
 .debug_str     0x000092e3      0x8f2 CMakeFiles/STM32Cube.elf.dir/Middlewares/Third_Party/FreeRTOS/Source/tasks.c.obj
                               0x1761 (size before relaxing)
 .debug_str     0x00009bd5      0x528 CMakeFiles/STM32Cube.elf.dir/Middlewares/Third_Party/FreeRTOS/Source/timers.c.obj
                               0x10e9 (size before relaxing)
 .debug_str     0x0000a0fd       0x81 CMakeFiles/STM32Cube.elf.dir/startup/startup_stm32l432xx.s.obj
                                 0xe8 (size before relaxing)

.comment        0x00000000       0x76
 .comment       0x00000000       0x76 CMakeFiles/STM32Cube.elf.dir/Core/Src/main.c.obj
                                 0x77 (size before relaxing)
 .comment       0x00000076       0x77 CMakeFiles/STM32Cube.elf.dir/Core/Src/stm32l4xx_hal_msp.c.obj
 .comment       0x00000076       0x77 CMakeFiles/STM32Cube.elf.dir/Core/Src/stm32l4xx_hal_timebase_tim.c.obj
 .comment       0x00000076       0x77 CMakeFiles/STM32Cube.elf.dir/Core/Src/stm32l4xx_it.c.obj
 .comment       0x00000076       0x77 CMakeFiles/STM32Cube.elf.dir/Core/Src/syscalls.c.obj
 .comment       0x00000076       0x77 CMakeFiles/STM32Cube.elf.dir/Core/Src/system_stm32l4xx.c.obj
 .comment       0x00000076       0x77 CMakeFiles/STM32Cube.elf.dir/Drivers/STM32L4xx_HAL_Driver/Src/stm32l4xx_hal.c.obj
 .comment       0x00000076       0x77 CMakeFiles/STM32Cube.elf.dir/Drivers/STM32L4xx_HAL_Driver/Src/stm32l4xx_hal_adc.c.obj
 .comment       0x00000076       0x77 CMakeFiles/STM32Cube.elf.dir/Drivers/STM32L4xx_HAL_Driver/Src/stm32l4xx_hal_cortex.c.obj
 .comment       0x00000076       0x77 CMakeFiles/STM32Cube.elf.dir/Drivers/STM32L4xx_HAL_Driver/Src/stm32l4xx_hal_dma.c.obj
 .comment       0x00000076       0x77 CMakeFiles/STM32Cube.elf.dir/Drivers/STM32L4xx_HAL_Driver/Src/stm32l4xx_hal_gpio.c.obj
 .comment       0x00000076       0x77 CMakeFiles/STM32Cube.elf.dir/Drivers/STM32L4xx_HAL_Driver/Src/stm32l4xx_hal_pwr.c.obj
 .comment       0x00000076       0x77 CMakeFiles/STM32Cube.elf.dir/Drivers/STM32L4xx_HAL_Driver/Src/stm32l4xx_hal_pwr_ex.c.obj
 .comment       0x00000076       0x77 CMakeFiles/STM32Cube.elf.dir/Drivers/STM32L4xx_HAL_Driver/Src/stm32l4xx_hal_rcc.c.obj
 .comment       0x00000076       0x77 CMakeFiles/STM32Cube.elf.dir/Drivers/STM32L4xx_HAL_Driver/Src/stm32l4xx_hal_rcc_ex.c.obj
 .comment       0x00000076       0x77 CMakeFiles/STM32Cube.elf.dir/Drivers/STM32L4xx_HAL_Driver/Src/stm32l4xx_hal_spi.c.obj
 .comment       0x00000076       0x77 CMakeFiles/STM32Cube.elf.dir/Drivers/STM32L4xx_HAL_Driver/Src/stm32l4xx_hal_tim.c.obj
 .comment       0x00000076       0x77 CMakeFiles/STM32Cube.elf.dir/Drivers/STM32L4xx_HAL_Driver/Src/stm32l4xx_hal_tim_ex.c.obj
 .comment       0x00000076       0x77 CMakeFiles/STM32Cube.elf.dir/Drivers/STM32L4xx_HAL_Driver/Src/stm32l4xx_hal_uart.c.obj
 .comment       0x00000076       0x77 CMakeFiles/STM32Cube.elf.dir/Drivers/STM32L4xx_HAL_Driver/Src/stm32l4xx_hal_uart_ex.c.obj
 .comment       0x00000076       0x77 CMakeFiles/STM32Cube.elf.dir/Middlewares/Third_Party/FreeRTOS/Source/CMSIS_RTOS_V2/cmsis_os2.c.obj
 .comment       0x00000076       0x77 CMakeFiles/STM32Cube.elf.dir/Middlewares/Third_Party/FreeRTOS/Source/list.c.obj
 .comment       0x00000076       0x77 CMakeFiles/STM32Cube.elf.dir/Middlewares/Third_Party/FreeRTOS/Source/portable/GCC/ARM_CM4F/port.c.obj
 .comment       0x00000076       0x77 CMakeFiles/STM32Cube.elf.dir/Middlewares/Third_Party/FreeRTOS/Source/portable/MemMang/heap_4.c.obj
 .comment       0x00000076       0x77 CMakeFiles/STM32Cube.elf.dir/Middlewares/Third_Party/FreeRTOS/Source/queue.c.obj
 .comment       0x00000076       0x77 CMakeFiles/STM32Cube.elf.dir/Middlewares/Third_Party/FreeRTOS/Source/tasks.c.obj
 .comment       0x00000076       0x77 CMakeFiles/STM32Cube.elf.dir/Middlewares/Third_Party/FreeRTOS/Source/timers.c.obj

.debug_frame    0x00000000     0x565c
 .debug_frame   0x00000000      0x1f0 CMakeFiles/STM32Cube.elf.dir/Core/Src/main.c.obj
 .debug_frame   0x000001f0       0xe0 CMakeFiles/STM32Cube.elf.dir/Core/Src/stm32l4xx_hal_msp.c.obj
 .debug_frame   0x000002d0       0x50 CMakeFiles/STM32Cube.elf.dir/Core/Src/stm32l4xx_hal_timebase_tim.c.obj
 .debug_frame   0x00000320       0xe8 CMakeFiles/STM32Cube.elf.dir/Core/Src/stm32l4xx_it.c.obj
 .debug_frame   0x00000408      0x1a8 CMakeFiles/STM32Cube.elf.dir/Core/Src/syscalls.c.obj
 .debug_frame   0x000005b0       0x30 CMakeFiles/STM32Cube.elf.dir/Core/Src/system_stm32l4xx.c.obj
 .debug_frame   0x000005e0      0x21c CMakeFiles/STM32Cube.elf.dir/Drivers/STM32L4xx_HAL_Driver/Src/stm32l4xx_hal.c.obj
 .debug_frame   0x000007fc      0x2d4 CMakeFiles/STM32Cube.elf.dir/Drivers/STM32L4xx_HAL_Driver/Src/stm32l4xx_hal_adc.c.obj
 .debug_frame   0x00000ad0      0x15c CMakeFiles/STM32Cube.elf.dir/Drivers/STM32L4xx_HAL_Driver/Src/stm32l4xx_hal_cortex.c.obj
 .debug_frame   0x00000c2c      0x158 CMakeFiles/STM32Cube.elf.dir/Drivers/STM32L4xx_HAL_Driver/Src/stm32l4xx_hal_dma.c.obj
 .debug_frame   0x00000d84       0xd0 CMakeFiles/STM32Cube.elf.dir/Drivers/STM32L4xx_HAL_Driver/Src/stm32l4xx_hal_gpio.c.obj
 .debug_frame   0x00000e54      0x120 CMakeFiles/STM32Cube.elf.dir/Drivers/STM32L4xx_HAL_Driver/Src/stm32l4xx_hal_pwr.c.obj
 .debug_frame   0x00000f74      0x248 CMakeFiles/STM32Cube.elf.dir/Drivers/STM32L4xx_HAL_Driver/Src/stm32l4xx_hal_pwr_ex.c.obj
 .debug_frame   0x000011bc      0x18c CMakeFiles/STM32Cube.elf.dir/Drivers/STM32L4xx_HAL_Driver/Src/stm32l4xx_hal_rcc.c.obj
 .debug_frame   0x00001348      0x248 CMakeFiles/STM32Cube.elf.dir/Drivers/STM32L4xx_HAL_Driver/Src/stm32l4xx_hal_rcc_ex.c.obj
 .debug_frame   0x00001590      0x5cc CMakeFiles/STM32Cube.elf.dir/Drivers/STM32L4xx_HAL_Driver/Src/stm32l4xx_hal_spi.c.obj
 .debug_frame   0x00001b5c      0xbec CMakeFiles/STM32Cube.elf.dir/Drivers/STM32L4xx_HAL_Driver/Src/stm32l4xx_hal_tim.c.obj
 .debug_frame   0x00002748      0x4f4 CMakeFiles/STM32Cube.elf.dir/Drivers/STM32L4xx_HAL_Driver/Src/stm32l4xx_hal_tim_ex.c.obj
 .debug_frame   0x00002c3c      0x5ac CMakeFiles/STM32Cube.elf.dir/Drivers/STM32L4xx_HAL_Driver/Src/stm32l4xx_hal_uart.c.obj
 .debug_frame   0x000031e8       0xdc CMakeFiles/STM32Cube.elf.dir/Drivers/STM32L4xx_HAL_Driver/Src/stm32l4xx_hal_uart_ex.c.obj
 .debug_frame   0x000032c4      0x774 CMakeFiles/STM32Cube.elf.dir/Middlewares/Third_Party/FreeRTOS/Source/CMSIS_RTOS_V2/cmsis_os2.c.obj
 .debug_frame   0x00003a38       0x6c CMakeFiles/STM32Cube.elf.dir/Middlewares/Third_Party/FreeRTOS/Source/list.c.obj
 .debug_frame   0x00003aa4      0x10c CMakeFiles/STM32Cube.elf.dir/Middlewares/Third_Party/FreeRTOS/Source/portable/GCC/ARM_CM4F/port.c.obj
 .debug_frame   0x00003bb0       0xac CMakeFiles/STM32Cube.elf.dir/Middlewares/Third_Party/FreeRTOS/Source/portable/MemMang/heap_4.c.obj
 .debug_frame   0x00003c5c      0x45c CMakeFiles/STM32Cube.elf.dir/Middlewares/Third_Party/FreeRTOS/Source/queue.c.obj
 .debug_frame   0x000040b8      0x644 CMakeFiles/STM32Cube.elf.dir/Middlewares/Third_Party/FreeRTOS/Source/tasks.c.obj
 .debug_frame   0x000046fc      0x2f8 CMakeFiles/STM32Cube.elf.dir/Middlewares/Third_Party/FreeRTOS/Source/timers.c.obj
 .debug_frame   0x000049f4       0x2c c:/progra~2/gnutoo~1/82019-~1/bin/../lib/gcc/arm-none-eabi/8.3.1/thumb/v7e-m+fp/hard\libgcc.a(_aeabi_uldivmod.o)
 .debug_frame   0x00004a20       0x34 c:/progra~2/gnutoo~1/82019-~1/bin/../lib/gcc/arm-none-eabi/8.3.1/thumb/v7e-m+fp/hard\libgcc.a(_udivmoddi4.o)
 .debug_frame   0x00004a54       0x20 c:/progra~2/gnutoo~1/82019-~1/bin/../lib/gcc/arm-none-eabi/8.3.1/../../../../arm-none-eabi/lib/thumb/v7e-m+fp/hard\libg.a(lib_a-errno.o)
 .debug_frame   0x00004a74       0x2c c:/progra~2/gnutoo~1/82019-~1/bin/../lib/gcc/arm-none-eabi/8.3.1/../../../../arm-none-eabi/lib/thumb/v7e-m+fp/hard\libg.a(lib_a-init.o)
 .debug_frame   0x00004aa0       0x38 c:/progra~2/gnutoo~1/82019-~1/bin/../lib/gcc/arm-none-eabi/8.3.1/../../../../arm-none-eabi/lib/thumb/v7e-m+fp/hard\libg.a(lib_a-memset.o)
 .debug_frame   0x00004ad8       0x80 c:/progra~2/gnutoo~1/82019-~1/bin/../lib/gcc/arm-none-eabi/8.3.1/../../../../arm-none-eabi/lib/thumb/v7e-m+fp/hard\libg.a(lib_a-sprintf.o)
 .debug_frame   0x00004b58       0x44 c:/progra~2/gnutoo~1/82019-~1/bin/../lib/gcc/arm-none-eabi/8.3.1/../../../../arm-none-eabi/lib/thumb/v7e-m+fp/hard\libg.a(lib_a-svfprintf.o)
 .debug_frame   0x00004b9c       0x5c c:/progra~2/gnutoo~1/82019-~1/bin/../lib/gcc/arm-none-eabi/8.3.1/../../../../arm-none-eabi/lib/thumb/v7e-m+fp/hard\libg.a(lib_a-__call_atexit.o)
 .debug_frame   0x00004bf8       0x20 c:/progra~2/gnutoo~1/82019-~1/bin/../lib/gcc/arm-none-eabi/8.3.1/../../../../arm-none-eabi/lib/thumb/v7e-m+fp/hard\libg.a(lib_a-atexit.o)
 .debug_frame   0x00004c18       0x8c c:/progra~2/gnutoo~1/82019-~1/bin/../lib/gcc/arm-none-eabi/8.3.1/../../../../arm-none-eabi/lib/thumb/v7e-m+fp/hard\libg.a(lib_a-dtoa.o)
 .debug_frame   0x00004ca4       0x34 c:/progra~2/gnutoo~1/82019-~1/bin/../lib/gcc/arm-none-eabi/8.3.1/../../../../arm-none-eabi/lib/thumb/v7e-m+fp/hard\libg.a(lib_a-fini.o)
 .debug_frame   0x00004cd8       0x8c c:/progra~2/gnutoo~1/82019-~1/bin/../lib/gcc/arm-none-eabi/8.3.1/../../../../arm-none-eabi/lib/thumb/v7e-m+fp/hard\libg.a(lib_a-freer.o)
 .debug_frame   0x00004d64       0x40 c:/progra~2/gnutoo~1/82019-~1/bin/../lib/gcc/arm-none-eabi/8.3.1/../../../../arm-none-eabi/lib/thumb/v7e-m+fp/hard\libg.a(lib_a-localeconv.o)
 .debug_frame   0x00004da4       0xb0 c:/progra~2/gnutoo~1/82019-~1/bin/../lib/gcc/arm-none-eabi/8.3.1/../../../../arm-none-eabi/lib/thumb/v7e-m+fp/hard\libg.a(lib_a-lock.o)
 .debug_frame   0x00004e54       0x4c c:/progra~2/gnutoo~1/82019-~1/bin/../lib/gcc/arm-none-eabi/8.3.1/../../../../arm-none-eabi/lib/thumb/v7e-m+fp/hard\libg.a(lib_a-mallocr.o)
 .debug_frame   0x00004ea0       0x30 c:/progra~2/gnutoo~1/82019-~1/bin/../lib/gcc/arm-none-eabi/8.3.1/../../../../arm-none-eabi/lib/thumb/v7e-m+fp/hard\libg.a(lib_a-mlock.o)
 .debug_frame   0x00004ed0      0x264 c:/progra~2/gnutoo~1/82019-~1/bin/../lib/gcc/arm-none-eabi/8.3.1/../../../../arm-none-eabi/lib/thumb/v7e-m+fp/hard\libg.a(lib_a-mprec.o)
 .debug_frame   0x00005134       0x2c c:/progra~2/gnutoo~1/82019-~1/bin/../lib/gcc/arm-none-eabi/8.3.1/../../../../arm-none-eabi/lib/thumb/v7e-m+fp/hard\libg.a(lib_a-s_frexp.o)
 .debug_frame   0x00005160       0x2c c:/progra~2/gnutoo~1/82019-~1/bin/../lib/gcc/arm-none-eabi/8.3.1/../../../../arm-none-eabi/lib/thumb/v7e-m+fp/hard\libg.a(lib_a-sbrkr.o)
 .debug_frame   0x0000518c       0x38 c:/progra~2/gnutoo~1/82019-~1/bin/../lib/gcc/arm-none-eabi/8.3.1/../../../../arm-none-eabi/lib/thumb/v7e-m+fp/hard\libg.a(lib_a-strncpy.o)
 .debug_frame   0x000051c4       0x78 c:/progra~2/gnutoo~1/82019-~1/bin/../lib/gcc/arm-none-eabi/8.3.1/../../../../arm-none-eabi/lib/thumb/v7e-m+fp/hard\libg.a(lib_a-svfiprintf.o)
 .debug_frame   0x0000523c       0x30 c:/progra~2/gnutoo~1/82019-~1/bin/../lib/gcc/arm-none-eabi/8.3.1/../../../../arm-none-eabi/lib/thumb/v7e-m+fp/hard\libg.a(lib_a-__atexit.o)
 .debug_frame   0x0000526c       0x28 c:/progra~2/gnutoo~1/82019-~1/bin/../lib/gcc/arm-none-eabi/8.3.1/../../../../arm-none-eabi/lib/thumb/v7e-m+fp/hard\libg.a(lib_a-callocr.o)
 .debug_frame   0x00005294       0x54 c:/progra~2/gnutoo~1/82019-~1/bin/../lib/gcc/arm-none-eabi/8.3.1/../../../../arm-none-eabi/lib/thumb/v7e-m+fp/hard\libg.a(lib_a-locale.o)
 .debug_frame   0x000052e8       0x4c c:/progra~2/gnutoo~1/82019-~1/bin/../lib/gcc/arm-none-eabi/8.3.1/../../../../arm-none-eabi/lib/thumb/v7e-m+fp/hard\libg.a(lib_a-mbtowc_r.o)
 .debug_frame   0x00005334       0x40 c:/progra~2/gnutoo~1/82019-~1/bin/../lib/gcc/arm-none-eabi/8.3.1/../../../../arm-none-eabi/lib/thumb/v7e-m+fp/hard\libg.a(lib_a-memmove.o)
 .debug_frame   0x00005374       0x48 c:/progra~2/gnutoo~1/82019-~1/bin/../lib/gcc/arm-none-eabi/8.3.1/../../../../arm-none-eabi/lib/thumb/v7e-m+fp/hard\libg.a(lib_a-reallocr.o)
 .debug_frame   0x000053bc       0x60 c:/progra~2/gnutoo~1/82019-~1/bin/../lib/gcc/arm-none-eabi/8.3.1/../../../../arm-none-eabi/lib/thumb/v7e-m+fp/hard\libg.a(lib_a-reent.o)
 .debug_frame   0x0000541c       0x3c c:/progra~2/gnutoo~1/82019-~1/bin/../lib/gcc/arm-none-eabi/8.3.1/../../../../arm-none-eabi/lib/thumb/v7e-m+fp/hard\libg.a(lib_a-wctomb_r.o)
 .debug_frame   0x00005458       0xac c:/progra~2/gnutoo~1/82019-~1/bin/../lib/gcc/arm-none-eabi/8.3.1/thumb/v7e-m+fp/hard\libgcc.a(_arm_addsubdf3.o)
 .debug_frame   0x00005504       0x50 c:/progra~2/gnutoo~1/82019-~1/bin/../lib/gcc/arm-none-eabi/8.3.1/thumb/v7e-m+fp/hard\libgcc.a(_arm_muldivdf3.o)
 .debug_frame   0x00005554       0xc4 c:/progra~2/gnutoo~1/82019-~1/bin/../lib/gcc/arm-none-eabi/8.3.1/thumb/v7e-m+fp/hard\libgcc.a(_arm_cmpdf2.o)
 .debug_frame   0x00005618       0x20 c:/progra~2/gnutoo~1/82019-~1/bin/../lib/gcc/arm-none-eabi/8.3.1/thumb/v7e-m+fp/hard\libgcc.a(_arm_unorddf2.o)
 .debug_frame   0x00005638       0x24 c:/progra~2/gnutoo~1/82019-~1/bin/../lib/gcc/arm-none-eabi/8.3.1/thumb/v7e-m+fp/hard\libgcc.a(_arm_fixdfsi.o)
